{
  "_format": "hh-sol-artifact-1",
  "contractName": "LazyNFT",
  "sourceName": "contracts/LazyNFT.sol",
  "abi": [
    {
      "inputs": [],
      "stateMutability": "nonpayable",
      "type": "constructor"
    },
    {
      "anonymous": false,
      "inputs": [
        {
          "indexed": true,
          "internalType": "address",
          "name": "owner",
          "type": "address"
        },
        {
          "indexed": true,
          "internalType": "address",
          "name": "approved",
          "type": "address"
        },
        {
          "indexed": true,
          "internalType": "uint256",
          "name": "tokenId",
          "type": "uint256"
        }
      ],
      "name": "Approval",
      "type": "event"
    },
    {
      "anonymous": false,
      "inputs": [
        {
          "indexed": true,
          "internalType": "address",
          "name": "owner",
          "type": "address"
        },
        {
          "indexed": true,
          "internalType": "address",
          "name": "operator",
          "type": "address"
        },
        {
          "indexed": false,
          "internalType": "bool",
          "name": "approved",
          "type": "bool"
        }
      ],
      "name": "ApprovalForAll",
      "type": "event"
    },
    {
      "anonymous": false,
      "inputs": [
        {
          "indexed": true,
          "internalType": "address",
          "name": "previousOwner",
          "type": "address"
        },
        {
          "indexed": true,
          "internalType": "address",
          "name": "newOwner",
          "type": "address"
        }
      ],
      "name": "OwnershipTransferred",
      "type": "event"
    },
    {
      "anonymous": false,
      "inputs": [
        {
          "indexed": true,
          "internalType": "bytes32",
          "name": "role",
          "type": "bytes32"
        },
        {
          "indexed": true,
          "internalType": "bytes32",
          "name": "previousAdminRole",
          "type": "bytes32"
        },
        {
          "indexed": true,
          "internalType": "bytes32",
          "name": "newAdminRole",
          "type": "bytes32"
        }
      ],
      "name": "RoleAdminChanged",
      "type": "event"
    },
    {
      "anonymous": false,
      "inputs": [
        {
          "indexed": true,
          "internalType": "bytes32",
          "name": "role",
          "type": "bytes32"
        },
        {
          "indexed": true,
          "internalType": "address",
          "name": "account",
          "type": "address"
        },
        {
          "indexed": true,
          "internalType": "address",
          "name": "sender",
          "type": "address"
        }
      ],
      "name": "RoleGranted",
      "type": "event"
    },
    {
      "anonymous": false,
      "inputs": [
        {
          "indexed": true,
          "internalType": "bytes32",
          "name": "role",
          "type": "bytes32"
        },
        {
          "indexed": true,
          "internalType": "address",
          "name": "account",
          "type": "address"
        },
        {
          "indexed": true,
          "internalType": "address",
          "name": "sender",
          "type": "address"
        }
      ],
      "name": "RoleRevoked",
      "type": "event"
    },
    {
      "anonymous": false,
      "inputs": [
        {
          "indexed": true,
          "internalType": "address",
          "name": "from",
          "type": "address"
        },
        {
          "indexed": true,
          "internalType": "address",
          "name": "to",
          "type": "address"
        },
        {
          "indexed": true,
          "internalType": "uint256",
          "name": "tokenId",
          "type": "uint256"
        }
      ],
      "name": "Transfer",
      "type": "event"
    },
    {
      "inputs": [],
      "name": "DEFAULT_ADMIN_ROLE",
      "outputs": [
        {
          "internalType": "bytes32",
          "name": "",
          "type": "bytes32"
        }
      ],
      "stateMutability": "view",
      "type": "function"
    },
    {
      "inputs": [],
      "name": "MINTER_ROLE",
      "outputs": [
        {
          "internalType": "bytes32",
          "name": "",
          "type": "bytes32"
        }
      ],
      "stateMutability": "view",
      "type": "function"
    },
    {
      "inputs": [
        {
          "internalType": "address",
          "name": "to",
          "type": "address"
        },
        {
          "internalType": "uint256",
          "name": "tokenId",
          "type": "uint256"
        }
      ],
      "name": "approve",
      "outputs": [],
      "stateMutability": "nonpayable",
      "type": "function"
    },
    {
      "inputs": [],
      "name": "availableToWithdraw",
      "outputs": [
        {
          "internalType": "uint256",
          "name": "",
          "type": "uint256"
        }
      ],
      "stateMutability": "view",
      "type": "function"
    },
    {
      "inputs": [
        {
          "internalType": "address",
          "name": "owner",
          "type": "address"
        }
      ],
      "name": "balanceOf",
      "outputs": [
        {
          "internalType": "uint256",
          "name": "",
          "type": "uint256"
        }
      ],
      "stateMutability": "view",
      "type": "function"
    },
    {
      "inputs": [
        {
          "internalType": "address",
          "name": "_reqAddress",
          "type": "address"
        }
      ],
      "name": "fetchNFTsOwned",
      "outputs": [
        {
          "components": [
            {
              "internalType": "uint256",
              "name": "tokenId",
              "type": "uint256"
            },
            {
              "internalType": "address",
              "name": "owner",
              "type": "address"
            },
            {
              "internalType": "address",
              "name": "creator",
              "type": "address"
            },
            {
              "internalType": "uint256",
              "name": "price",
              "type": "uint256"
            },
            {
              "internalType": "string",
              "name": "uri",
              "type": "string"
            },
            {
              "internalType": "string",
              "name": "collection",
              "type": "string"
            },
            {
              "internalType": "uint256",
              "name": "tier",
              "type": "uint256"
            }
          ],
          "internalType": "struct LazyNFT.MarketItem[]",
          "name": "",
          "type": "tuple[]"
        }
      ],
      "stateMutability": "view",
      "type": "function"
    },
    {
      "inputs": [],
      "name": "getAddress",
      "outputs": [
        {
          "internalType": "address",
          "name": "",
          "type": "address"
        }
      ],
      "stateMutability": "view",
      "type": "function"
    },
    {
      "inputs": [
        {
          "internalType": "uint256",
          "name": "tokenId",
          "type": "uint256"
        }
      ],
      "name": "getApproved",
      "outputs": [
        {
          "internalType": "address",
          "name": "",
          "type": "address"
        }
      ],
      "stateMutability": "view",
      "type": "function"
    },
    {
      "inputs": [
        {
          "internalType": "bytes32",
          "name": "role",
          "type": "bytes32"
        }
      ],
      "name": "getRoleAdmin",
      "outputs": [
        {
          "internalType": "bytes32",
          "name": "",
          "type": "bytes32"
        }
      ],
      "stateMutability": "view",
      "type": "function"
    },
    {
      "inputs": [
        {
          "internalType": "bytes32",
          "name": "role",
          "type": "bytes32"
        },
        {
          "internalType": "uint256",
          "name": "index",
          "type": "uint256"
        }
      ],
      "name": "getRoleMember",
      "outputs": [
        {
          "internalType": "address",
          "name": "",
          "type": "address"
        }
      ],
      "stateMutability": "view",
      "type": "function"
    },
    {
      "inputs": [
        {
          "internalType": "bytes32",
          "name": "role",
          "type": "bytes32"
        }
      ],
      "name": "getRoleMemberCount",
      "outputs": [
        {
          "internalType": "uint256",
          "name": "",
          "type": "uint256"
        }
      ],
      "stateMutability": "view",
      "type": "function"
    },
    {
      "inputs": [
        {
          "internalType": "bytes32",
          "name": "role",
          "type": "bytes32"
        },
        {
          "internalType": "address",
          "name": "account",
          "type": "address"
        }
      ],
      "name": "grantRole",
      "outputs": [],
      "stateMutability": "nonpayable",
      "type": "function"
    },
    {
      "inputs": [
        {
          "internalType": "bytes32",
          "name": "role",
          "type": "bytes32"
        },
        {
          "internalType": "address",
          "name": "account",
          "type": "address"
        }
      ],
      "name": "hasRole",
      "outputs": [
        {
          "internalType": "bool",
          "name": "",
          "type": "bool"
        }
      ],
      "stateMutability": "view",
      "type": "function"
    },
    {
      "inputs": [
        {
          "internalType": "address",
          "name": "owner",
          "type": "address"
        },
        {
          "internalType": "address",
          "name": "operator",
          "type": "address"
        }
      ],
      "name": "isApprovedForAll",
      "outputs": [
        {
          "internalType": "bool",
          "name": "",
          "type": "bool"
        }
      ],
      "stateMutability": "view",
      "type": "function"
    },
    {
      "inputs": [],
      "name": "name",
      "outputs": [
        {
          "internalType": "string",
          "name": "",
          "type": "string"
        }
      ],
      "stateMutability": "view",
      "type": "function"
    },
    {
      "inputs": [],
      "name": "owner",
      "outputs": [
        {
          "internalType": "address",
          "name": "",
          "type": "address"
        }
      ],
      "stateMutability": "view",
      "type": "function"
    },
    {
      "inputs": [
        {
          "internalType": "uint256",
          "name": "tokenId",
          "type": "uint256"
        }
      ],
      "name": "ownerOf",
      "outputs": [
        {
          "internalType": "address",
          "name": "",
          "type": "address"
        }
      ],
      "stateMutability": "view",
      "type": "function"
    },
    {
      "inputs": [
        {
          "internalType": "address",
          "name": "redeemer",
          "type": "address"
        },
        {
          "components": [
            {
              "internalType": "uint256",
              "name": "tokenId",
              "type": "uint256"
            },
            {
              "internalType": "uint256",
              "name": "minPrice",
              "type": "uint256"
            },
            {
              "internalType": "string",
              "name": "uri",
              "type": "string"
            },
            {
              "internalType": "string",
              "name": "collection",
              "type": "string"
            },
            {
              "internalType": "uint256",
              "name": "tier",
              "type": "uint256"
            }
          ],
          "internalType": "struct LazyNFT.NFTVoucher",
          "name": "voucher",
          "type": "tuple"
        },
        {
          "components": [
            {
              "internalType": "string",
              "name": "v_url",
              "type": "string"
            }
          ],
          "internalType": "struct LazyNFT.NFTCID",
          "name": "meta",
          "type": "tuple"
        },
        {
          "internalType": "bytes",
          "name": "signature",
          "type": "bytes"
        }
      ],
      "name": "redeem",
      "outputs": [
        {
          "internalType": "uint256",
          "name": "",
          "type": "uint256"
        }
      ],
      "stateMutability": "payable",
      "type": "function"
    },
    {
      "inputs": [
        {
          "internalType": "address",
          "name": "_addr",
          "type": "address"
        }
      ],
      "name": "removeMinter",
      "outputs": [],
      "stateMutability": "nonpayable",
      "type": "function"
    },
    {
      "inputs": [],
      "name": "renounceOwnership",
      "outputs": [],
      "stateMutability": "nonpayable",
      "type": "function"
    },
    {
      "inputs": [
        {
          "internalType": "bytes32",
          "name": "role",
          "type": "bytes32"
        },
        {
          "internalType": "address",
          "name": "account",
          "type": "address"
        }
      ],
      "name": "renounceRole",
      "outputs": [],
      "stateMutability": "nonpayable",
      "type": "function"
    },
    {
      "inputs": [
        {
          "internalType": "bytes32",
          "name": "role",
          "type": "bytes32"
        },
        {
          "internalType": "address",
          "name": "account",
          "type": "address"
        }
      ],
      "name": "revokeRole",
      "outputs": [],
      "stateMutability": "nonpayable",
      "type": "function"
    },
    {
      "inputs": [
        {
          "internalType": "address",
          "name": "from",
          "type": "address"
        },
        {
          "internalType": "address",
          "name": "to",
          "type": "address"
        },
        {
          "internalType": "uint256",
          "name": "tokenId",
          "type": "uint256"
        }
      ],
      "name": "safeTransferFrom",
      "outputs": [],
      "stateMutability": "nonpayable",
      "type": "function"
    },
    {
      "inputs": [
        {
          "internalType": "address",
          "name": "from",
          "type": "address"
        },
        {
          "internalType": "address",
          "name": "to",
          "type": "address"
        },
        {
          "internalType": "uint256",
          "name": "tokenId",
          "type": "uint256"
        },
        {
          "internalType": "bytes",
          "name": "_data",
          "type": "bytes"
        }
      ],
      "name": "safeTransferFrom",
      "outputs": [],
      "stateMutability": "nonpayable",
      "type": "function"
    },
    {
      "inputs": [
        {
          "internalType": "address",
          "name": "operator",
          "type": "address"
        },
        {
          "internalType": "bool",
          "name": "approved",
          "type": "bool"
        }
      ],
      "name": "setApprovalForAll",
      "outputs": [],
      "stateMutability": "nonpayable",
      "type": "function"
    },
    {
      "inputs": [
        {
          "internalType": "address",
          "name": "_addr",
          "type": "address"
        }
      ],
      "name": "setNewMinter",
      "outputs": [],
      "stateMutability": "nonpayable",
      "type": "function"
    },
    {
      "inputs": [
        {
          "internalType": "bytes4",
          "name": "interfaceId",
          "type": "bytes4"
        }
      ],
      "name": "supportsInterface",
      "outputs": [
        {
          "internalType": "bool",
          "name": "",
          "type": "bool"
        }
      ],
      "stateMutability": "view",
      "type": "function"
    },
    {
      "inputs": [],
      "name": "symbol",
      "outputs": [
        {
          "internalType": "string",
          "name": "",
          "type": "string"
        }
      ],
      "stateMutability": "view",
      "type": "function"
    },
    {
      "inputs": [
        {
          "internalType": "uint256",
          "name": "tokenId",
          "type": "uint256"
        }
      ],
      "name": "tokenURI",
      "outputs": [
        {
          "internalType": "string",
          "name": "",
          "type": "string"
        }
      ],
      "stateMutability": "view",
      "type": "function"
    },
    {
      "inputs": [
        {
          "internalType": "address",
          "name": "from",
          "type": "address"
        },
        {
          "internalType": "address",
          "name": "to",
          "type": "address"
        },
        {
          "internalType": "uint256",
          "name": "tokenId",
          "type": "uint256"
        }
      ],
      "name": "transferFrom",
      "outputs": [],
      "stateMutability": "nonpayable",
      "type": "function"
    },
    {
      "inputs": [
        {
          "internalType": "address",
          "name": "newOwner",
          "type": "address"
        }
      ],
      "name": "transferOwnership",
      "outputs": [],
      "stateMutability": "nonpayable",
      "type": "function"
    },
    {
      "inputs": [],
      "name": "withdraw",
      "outputs": [],
      "stateMutability": "nonpayable",
      "type": "function"
    }
  ],
  "bytecode": "0x6101406040523480156200001257600080fd5b506040518060400160405280600f81526020017f4c617a794e46542d566f756368657200000000000000000000000000000000008152506040518060400160405280600181526020017f31000000000000000000000000000000000000000000000000000000000000008152506040518060400160405280600781526020017f4c617a794e4654000000000000000000000000000000000000000000000000008152506040518060400160405280600381526020017f4c415a0000000000000000000000000000000000000000000000000000000000815250816000908051906020019062000103929190620005db565b5080600190805190602001906200011c929190620005db565b50505060008280519060200120905060008280519060200120905060007f8b73c3c69bb8fe3d512ecc4cf759cc79239f7b179b0ffacaa9a75d522b39400f90508260e081815250508161010081815250504660a08181525050620001888184846200024160201b60201c565b608081815250503073ffffffffffffffffffffffffffffffffffffffff1660c08173ffffffffffffffffffffffffffffffffffffffff1660601b815250508061012081815250505050505050620001f4620001e86200027d60201b60201c565b6200028560201b60201c565b620002267f9f2df0fed2c77648de5860a4cc508cd0818c85b8b8a1ab4ceeef8d981c8956a6336200034b60201b60201c565b6200023b6000801b336200034b60201b60201c565b620007c8565b600083838346306040516020016200025e959493929190620006be565b6040516020818303038152906040528051906020012090509392505050565b600033905090565b6000600760009054906101000a900473ffffffffffffffffffffffffffffffffffffffff16905081600760006101000a81548173ffffffffffffffffffffffffffffffffffffffff021916908373ffffffffffffffffffffffffffffffffffffffff1602179055508173ffffffffffffffffffffffffffffffffffffffff168173ffffffffffffffffffffffffffffffffffffffff167f8be0079c531659141344cd1fd0a4f28419497f9722a3daafe3b4186f6b6457e060405160405180910390a35050565b6200035d82826200036160201b60201c565b5050565b620003788282620003a960201b62001c461760201c565b620003a481600960008581526020019081526020016000206200049b60201b62001d271790919060201c565b505050565b620003bb8282620004d360201b60201c565b620004975760016008600084815260200190815260200160002060000160008373ffffffffffffffffffffffffffffffffffffffff1673ffffffffffffffffffffffffffffffffffffffff16815260200190815260200160002060006101000a81548160ff0219169083151502179055506200043c6200027d60201b60201c565b73ffffffffffffffffffffffffffffffffffffffff168173ffffffffffffffffffffffffffffffffffffffff16837f2f8788117e7eff1d82e926ec794901d17c78024a50270940304540a733656f0d60405160405180910390a45b5050565b6000620004cb836000018373ffffffffffffffffffffffffffffffffffffffff1660001b6200053e60201b60201c565b905092915050565b60006008600084815260200190815260200160002060000160008373ffffffffffffffffffffffffffffffffffffffff1673ffffffffffffffffffffffffffffffffffffffff16815260200190815260200160002060009054906101000a900460ff16905092915050565b6000620005528383620005b860201b60201c565b620005ad578260000182908060018154018082558091505060019003906000526020600020016000909190919091505582600001805490508360010160008481526020019081526020016000208190555060019050620005b2565b600090505b92915050565b600080836001016000848152602001908152602001600020541415905092915050565b828054620005e99062000763565b90600052602060002090601f0160209004810192826200060d576000855562000659565b82601f106200062857805160ff191683800117855562000659565b8280016001018555821562000659579182015b82811115620006585782518255916020019190600101906200063b565b5b5090506200066891906200066c565b5090565b5b80821115620006875760008160009055506001016200066d565b5090565b62000696816200071b565b82525050565b620006a7816200072f565b82525050565b620006b88162000759565b82525050565b600060a082019050620006d560008301886200069c565b620006e460208301876200069c565b620006f360408301866200069c565b620007026060830185620006ad565b6200071160808301846200068b565b9695505050505050565b6000620007288262000739565b9050919050565b6000819050919050565b600073ffffffffffffffffffffffffffffffffffffffff82169050919050565b6000819050919050565b600060028204905060018216806200077c57607f821691505b6020821081141562000793576200079262000799565b5b50919050565b7f4e487b7100000000000000000000000000000000000000000000000000000000600052602260045260246000fd5b60805160a05160c05160601c60e0516101005161012051615d4c6200081b6000396000613b5801526000613b9a01526000613b7901526000613aae01526000613b0401526000613b2d0152615d4c6000f3fe6080604052600436106101e35760003560e01c80637197de7c11610102578063b88d4fde11610095578063d547741f11610064578063d547741f1461071b578063e322ad2b14610744578063e985e9c51461076f578063f2fde38b146107ac576101e3565b8063b88d4fde1461064d578063c87b56dd14610676578063ca15c873146106b3578063d5391393146106f0576101e3565b806391d14854116100d157806391d148541461059157806395d89b41146105ce578063a217fddf146105f9578063a22cb46514610624576101e3565b80637197de7c146104bc57806380abce9a146104f95780638da5cb5b146105295780639010d07c14610554576101e3565b806336568abe1161017a57806348af6b151161014957806348af6b15146104025780636352211e1461042b57806370a0823114610468578063715018a6146104a5576101e3565b806336568abe1461036e57806338cc4831146103975780633ccfd60b146103c257806342842e0e146103d9576101e3565b806323b872dd116101b657806323b872dd146102b6578063248a9ca3146102df5780632f2ff15d1461031c5780633092afd514610345576101e3565b806301ffc9a7146101e857806306fdde0314610225578063081812fc14610250578063095ea7b31461028d575b600080fd5b3480156101f457600080fd5b5061020f600480360381019061020a919061424f565b6107d5565b60405161021c9190614b11565b60405180910390f35b34801561023157600080fd5b5061023a6107f7565b6040516102479190614c08565b60405180910390f35b34801561025c57600080fd5b50610277600480360381019061027291906142a1565b610889565b6040516102849190614a88565b60405180910390f35b34801561029957600080fd5b506102b460048036038101906102af9190614172565b61090e565b005b3480156102c257600080fd5b506102dd60048036038101906102d89190613fc1565b610a26565b005b3480156102eb57600080fd5b50610306600480360381019061030191906141ae565b610a86565b6040516103139190614b2c565b60405180910390f35b34801561032857600080fd5b50610343600480360381019061033e91906141d7565b610aa6565b005b34801561035157600080fd5b5061036c60048036038101906103679190613f5c565b610acf565b005b34801561037a57600080fd5b50610395600480360381019061039091906141d7565b610b78565b005b3480156103a357600080fd5b506103ac610bfb565b6040516103b99190614a88565b60405180910390f35b3480156103ce57600080fd5b506103d7610c03565b005b3480156103e557600080fd5b5061040060048036038101906103fb9190613fc1565b610d45565b005b34801561040e57600080fd5b5061042960048036038101906104249190613f5c565b610d65565b005b34801561043757600080fd5b50610452600480360381019061044d91906142a1565b610e0e565b60405161045f9190614a88565b60405180910390f35b34801561047457600080fd5b5061048f600480360381019061048a9190613f5c565b610ec0565b60405161049c9190614fba565b60405180910390f35b3480156104b157600080fd5b506104ba610f78565b005b3480156104c857600080fd5b506104e360048036038101906104de9190613f5c565b611000565b6040516104f09190614aef565b60405180910390f35b610513600480360381019061050e91906140c7565b611295565b6040516105209190614fba565b60405180910390f35b34801561053557600080fd5b5061053e6116db565b60405161054b9190614a88565b60405180910390f35b34801561056057600080fd5b5061057b60048036038101906105769190614213565b611705565b6040516105889190614a88565b60405180910390f35b34801561059d57600080fd5b506105b860048036038101906105b391906141d7565b611734565b6040516105c59190614b11565b60405180910390f35b3480156105da57600080fd5b506105e361179f565b6040516105f09190614c08565b60405180910390f35b34801561060557600080fd5b5061060e611831565b60405161061b9190614b2c565b60405180910390f35b34801561063057600080fd5b5061064b6004803603810190610646919061408b565b611838565b005b34801561065957600080fd5b50610674600480360381019061066f9190614010565b61184e565b005b34801561068257600080fd5b5061069d600480360381019061069891906142a1565b6118b0565b6040516106aa9190614c08565b60405180910390f35b3480156106bf57600080fd5b506106da60048036038101906106d591906141ae565b611a02565b6040516106e79190614fba565b60405180910390f35b3480156106fc57600080fd5b50610705611a26565b6040516107129190614b2c565b60405180910390f35b34801561072757600080fd5b50610742600480360381019061073d91906141d7565b611a4a565b005b34801561075057600080fd5b50610759611a73565b6040516107669190614fba565b60405180910390f35b34801561077b57600080fd5b5061079660048036038101906107919190613f85565b611aba565b6040516107a39190614b11565b60405180910390f35b3480156107b857600080fd5b506107d360048036038101906107ce9190613f5c565b611b4e565b005b60006107e082611d57565b806107f057506107ef82611e39565b5b9050919050565b60606000805461080690615326565b80601f016020809104026020016040519081016040528092919081815260200182805461083290615326565b801561087f5780601f106108545761010080835404028352916020019161087f565b820191906000526020600020905b81548152906001019060200180831161086257829003601f168201915b5050505050905090565b600061089482611eb3565b6108d3576040517f08c379a00000000000000000000000000000000000000000000000000000000081526004016108ca90614eba565b60405180910390fd5b6004600083815260200190815260200160002060009054906101000a900473ffffffffffffffffffffffffffffffffffffffff169050919050565b600061091982610e0e565b90508073ffffffffffffffffffffffffffffffffffffffff168373ffffffffffffffffffffffffffffffffffffffff16141561098a576040517f08c379a000000000000000000000000000000000000000000000000000000000815260040161098190614f3a565b60405180910390fd5b8073ffffffffffffffffffffffffffffffffffffffff166109a9611f1f565b73ffffffffffffffffffffffffffffffffffffffff1614806109d857506109d7816109d2611f1f565b611aba565b5b610a17576040517f08c379a0000000000000000000000000000000000000000000000000000000008152600401610a0e90614dba565b60405180910390fd5b610a218383611f27565b505050565b610a37610a31611f1f565b82611fe0565b610a76576040517f08c379a0000000000000000000000000000000000000000000000000000000008152600401610a6d90614f7a565b60405180910390fd5b610a818383836120be565b505050565b600060086000838152602001908152602001600020600101549050919050565b610aaf82610a86565b610ac081610abb611f1f565b612325565b610aca83836123c2565b505050565b610ad7611f1f565b73ffffffffffffffffffffffffffffffffffffffff16610af56116db565b73ffffffffffffffffffffffffffffffffffffffff1614610b4b576040517f08c379a0000000000000000000000000000000000000000000000000000000008152600401610b4290614eda565b60405180910390fd5b610b757f9f2df0fed2c77648de5860a4cc508cd0818c85b8b8a1ab4ceeef8d981c8956a682611a4a565b50565b610b80611f1f565b73ffffffffffffffffffffffffffffffffffffffff168173ffffffffffffffffffffffffffffffffffffffff1614610bed576040517f08c379a0000000000000000000000000000000000000000000000000000000008152600401610be490614f9a565b60405180910390fd5b610bf782826123f6565b5050565b600030905090565b610c2d7f9f2df0fed2c77648de5860a4cc508cd0818c85b8b8a1ab4ceeef8d981c8956a633611734565b610c6c576040517f08c379a0000000000000000000000000000000000000000000000000000000008152600401610c6390614f1a565b60405180910390fd5b60003390506000600b60008373ffffffffffffffffffffffffffffffffffffffff1673ffffffffffffffffffffffffffffffffffffffff1681526020019081526020016000205490506000600b60008473ffffffffffffffffffffffffffffffffffffffff1673ffffffffffffffffffffffffffffffffffffffff168152602001908152602001600020819055508173ffffffffffffffffffffffffffffffffffffffff166108fc829081150290604051600060405180830381858888f19350505050158015610d40573d6000803e3d6000fd5b505050565b610d608383836040518060200160405280600081525061184e565b505050565b610d6d611f1f565b73ffffffffffffffffffffffffffffffffffffffff16610d8b6116db565b73ffffffffffffffffffffffffffffffffffffffff1614610de1576040517f08c379a0000000000000000000000000000000000000000000000000000000008152600401610dd890614eda565b60405180910390fd5b610e0b7f9f2df0fed2c77648de5860a4cc508cd0818c85b8b8a1ab4ceeef8d981c8956a682610aa6565b50565b6000806002600084815260200190815260200160002060009054906101000a900473ffffffffffffffffffffffffffffffffffffffff169050600073ffffffffffffffffffffffffffffffffffffffff168173ffffffffffffffffffffffffffffffffffffffff161415610eb7576040517f08c379a0000000000000000000000000000000000000000000000000000000008152600401610eae90614dfa565b60405180910390fd5b80915050919050565b60008073ffffffffffffffffffffffffffffffffffffffff168273ffffffffffffffffffffffffffffffffffffffff161415610f31576040517f08c379a0000000000000000000000000000000000000000000000000000000008152600401610f2890614dda565b60405180910390fd5b600360008373ffffffffffffffffffffffffffffffffffffffff1673ffffffffffffffffffffffffffffffffffffffff168152602001908152602001600020549050919050565b610f80611f1f565b73ffffffffffffffffffffffffffffffffffffffff16610f9e6116db565b73ffffffffffffffffffffffffffffffffffffffff1614610ff4576040517f08c379a0000000000000000000000000000000000000000000000000000000008152600401610feb90614eda565b60405180910390fd5b610ffe600061242a565b565b606061100b826124f0565b600c60008373ffffffffffffffffffffffffffffffffffffffff1673ffffffffffffffffffffffffffffffffffffffff168152602001908152602001600020805480602002602001604051908101604052809291908181526020016000905b8282101561128a57838290600052602060002090600702016040518060e0016040529081600082015481526020016001820160009054906101000a900473ffffffffffffffffffffffffffffffffffffffff1673ffffffffffffffffffffffffffffffffffffffff1673ffffffffffffffffffffffffffffffffffffffff1681526020016002820160009054906101000a900473ffffffffffffffffffffffffffffffffffffffff1673ffffffffffffffffffffffffffffffffffffffff1673ffffffffffffffffffffffffffffffffffffffff1681526020016003820154815260200160048201805461115d90615326565b80601f016020809104026020016040519081016040528092919081815260200182805461118990615326565b80156111d65780601f106111ab576101008083540402835291602001916111d6565b820191906000526020600020905b8154815290600101906020018083116111b957829003601f168201915b505050505081526020016005820180546111ef90615326565b80601f016020809104026020016040519081016040528092919081815260200182805461121b90615326565b80156112685780601f1061123d57610100808354040283529160200191611268565b820191906000526020600020905b81548152906001019060200180831161124b57829003601f168201915b505050505081526020016006820154815250508152602001906001019061106a565b505050509050919050565b6000806112a28484612589565b90506112e36040518060400160405280600f81526020017f546865207369676e65722069733a200000000000000000000000000000000000815250826125bb565b61130d7f9f2df0fed2c77648de5860a4cc508cd0818c85b8b8a1ab4ceeef8d981c8956a682611734565b61134c576040517f08c379a000000000000000000000000000000000000000000000000000000000815260040161134390614f5a565b60405180910390fd5b8460200135341015611393576040517f08c379a000000000000000000000000000000000000000000000000000000000815260040161138a90614e5a565b60405180910390fd5b6113a1818660000135612657565b61140185600001358680604001906113b99190614fd5565b8080601f016020809104026020016040519081016040528093929190818152602001838380828437600081840152601f19601f82011690508083019250505050505050612831565b60006040518060e00160405280876000013581526020018873ffffffffffffffffffffffffffffffffffffffff1681526020018373ffffffffffffffffffffffffffffffffffffffff1681526020018760200135815260200187806040019061146a9190614fd5565b8080601f016020809104026020016040519081016040528093929190818152602001838380828437600081840152601f19601f8201169050808301925050505050505081526020018780606001906114c29190614fd5565b8080601f016020809104026020016040519081016040528093929190818152602001838380828437600081840152601f19601f82011690508083019250505050505050815260200187608001358152509050600c60008873ffffffffffffffffffffffffffffffffffffffff1673ffffffffffffffffffffffffffffffffffffffff1681526020019081526020016000208190806001815401808255809150506001900390600052602060002090600702016000909190919091506000820151816000015560208201518160010160006101000a81548173ffffffffffffffffffffffffffffffffffffffff021916908373ffffffffffffffffffffffffffffffffffffffff16021790555060408201518160020160006101000a81548173ffffffffffffffffffffffffffffffffffffffff021916908373ffffffffffffffffffffffffffffffffffffffff16021790555060608201518160030155608082015181600401908051906020019061163b929190613d9d565b5060a0820151816005019080519060200190611658929190613d9d565b5060c082015181600601555050611674828888600001356120be565b34600b60008473ffffffffffffffffffffffffffffffffffffffff1673ffffffffffffffffffffffffffffffffffffffff16815260200190815260200160002060008282546116c3919061511a565b92505081905550856000013592505050949350505050565b6000600760009054906101000a900473ffffffffffffffffffffffffffffffffffffffff16905090565b600061172c82600960008681526020019081526020016000206128a590919063ffffffff16565b905092915050565b60006008600084815260200190815260200160002060000160008373ffffffffffffffffffffffffffffffffffffffff1673ffffffffffffffffffffffffffffffffffffffff16815260200190815260200160002060009054906101000a900460ff16905092915050565b6060600180546117ae90615326565b80601f01602080910402602001604051908101604052809291908181526020018280546117da90615326565b80156118275780601f106117fc57610100808354040283529160200191611827565b820191906000526020600020905b81548152906001019060200180831161180a57829003601f168201915b5050505050905090565b6000801b81565b61184a611843611f1f565b83836128bf565b5050565b61185f611859611f1f565b83611fe0565b61189e576040517f08c379a000000000000000000000000000000000000000000000000000000000815260040161189590614f7a565b60405180910390fd5b6118aa84848484612a2c565b50505050565b60606118bb82611eb3565b6118fa576040517f08c379a00000000000000000000000000000000000000000000000000000000081526004016118f190614e9a565b60405180910390fd5b600060066000848152602001908152602001600020805461191a90615326565b80601f016020809104026020016040519081016040528092919081815260200182805461194690615326565b80156119935780601f1061196857610100808354040283529160200191611993565b820191906000526020600020905b81548152906001019060200180831161197657829003601f168201915b5050505050905060006119a4612a88565b90506000815114156119ba5781925050506119fd565b6000825111156119ef5780826040516020016119d79291906149cd565b604051602081830303815290604052925050506119fd565b6119f884612a9f565b925050505b919050565b6000611a1f60096000848152602001908152602001600020612b46565b9050919050565b7f9f2df0fed2c77648de5860a4cc508cd0818c85b8b8a1ab4ceeef8d981c8956a681565b611a5382610a86565b611a6481611a5f611f1f565b612325565b611a6e83836123f6565b505050565b6000600b60003373ffffffffffffffffffffffffffffffffffffffff1673ffffffffffffffffffffffffffffffffffffffff16815260200190815260200160002054905090565b6000600560008473ffffffffffffffffffffffffffffffffffffffff1673ffffffffffffffffffffffffffffffffffffffff16815260200190815260200160002060008373ffffffffffffffffffffffffffffffffffffffff1673ffffffffffffffffffffffffffffffffffffffff16815260200190815260200160002060009054906101000a900460ff16905092915050565b611b56611f1f565b73ffffffffffffffffffffffffffffffffffffffff16611b746116db565b73ffffffffffffffffffffffffffffffffffffffff1614611bca576040517f08c379a0000000000000000000000000000000000000000000000000000000008152600401611bc190614eda565b60405180910390fd5b600073ffffffffffffffffffffffffffffffffffffffff168173ffffffffffffffffffffffffffffffffffffffff161415611c3a576040517f08c379a0000000000000000000000000000000000000000000000000000000008152600401611c3190614cda565b60405180910390fd5b611c438161242a565b50565b611c508282611734565b611d235760016008600084815260200190815260200160002060000160008373ffffffffffffffffffffffffffffffffffffffff1673ffffffffffffffffffffffffffffffffffffffff16815260200190815260200160002060006101000a81548160ff021916908315150217905550611cc8611f1f565b73ffffffffffffffffffffffffffffffffffffffff168173ffffffffffffffffffffffffffffffffffffffff16837f2f8788117e7eff1d82e926ec794901d17c78024a50270940304540a733656f0d60405160405180910390a45b5050565b6000611d4f836000018373ffffffffffffffffffffffffffffffffffffffff1660001b612b5b565b905092915050565b60007f80ac58cd000000000000000000000000000000000000000000000000000000007bffffffffffffffffffffffffffffffffffffffffffffffffffffffff1916827bffffffffffffffffffffffffffffffffffffffffffffffffffffffff19161480611e2257507f5b5e139f000000000000000000000000000000000000000000000000000000007bffffffffffffffffffffffffffffffffffffffffffffffffffffffff1916827bffffffffffffffffffffffffffffffffffffffffffffffffffffffff1916145b80611e325750611e3182612bcb565b5b9050919050565b60007f7965db0b000000000000000000000000000000000000000000000000000000007bffffffffffffffffffffffffffffffffffffffffffffffffffffffff1916827bffffffffffffffffffffffffffffffffffffffffffffffffffffffff19161480611eac5750611eab82611d57565b5b9050919050565b60008073ffffffffffffffffffffffffffffffffffffffff166002600084815260200190815260200160002060009054906101000a900473ffffffffffffffffffffffffffffffffffffffff1673ffffffffffffffffffffffffffffffffffffffff1614159050919050565b600033905090565b816004600083815260200190815260200160002060006101000a81548173ffffffffffffffffffffffffffffffffffffffff021916908373ffffffffffffffffffffffffffffffffffffffff160217905550808273ffffffffffffffffffffffffffffffffffffffff16611f9a83610e0e565b73ffffffffffffffffffffffffffffffffffffffff167f8c5be1e5ebec7d5bd14f71427d1e84f3dd0314c0f7b2291e5b200ac8c7c3b92560405160405180910390a45050565b6000611feb82611eb3565b61202a576040517f08c379a000000000000000000000000000000000000000000000000000000000815260040161202190614d9a565b60405180910390fd5b600061203583610e0e565b90508073ffffffffffffffffffffffffffffffffffffffff168473ffffffffffffffffffffffffffffffffffffffff1614806120a457508373ffffffffffffffffffffffffffffffffffffffff1661208c84610889565b73ffffffffffffffffffffffffffffffffffffffff16145b806120b557506120b48185611aba565b5b91505092915050565b8273ffffffffffffffffffffffffffffffffffffffff166120de82610e0e565b73ffffffffffffffffffffffffffffffffffffffff1614612134576040517f08c379a000000000000000000000000000000000000000000000000000000000815260040161212b90614cfa565b60405180910390fd5b600073ffffffffffffffffffffffffffffffffffffffff168273ffffffffffffffffffffffffffffffffffffffff1614156121a4576040517f08c379a000000000000000000000000000000000000000000000000000000000815260040161219b90614d3a565b60405180910390fd5b6121af838383612c35565b6121ba600082611f27565b6001600360008573ffffffffffffffffffffffffffffffffffffffff1673ffffffffffffffffffffffffffffffffffffffff168152602001908152602001600020600082825461220a91906151fb565b925050819055506001600360008473ffffffffffffffffffffffffffffffffffffffff1673ffffffffffffffffffffffffffffffffffffffff1681526020019081526020016000206000828254612261919061511a565b92505081905550816002600083815260200190815260200160002060006101000a81548173ffffffffffffffffffffffffffffffffffffffff021916908373ffffffffffffffffffffffffffffffffffffffff160217905550808273ffffffffffffffffffffffffffffffffffffffff168473ffffffffffffffffffffffffffffffffffffffff167fddf252ad1be2c89b69c2b068fc378daa952ba7f163c4a11628f55a4df523b3ef60405160405180910390a4612320838383612c3a565b505050565b61232f8282611734565b6123be576123548173ffffffffffffffffffffffffffffffffffffffff166014612c3f565b6123628360001c6020612c3f565b604051602001612373929190614a4e565b6040516020818303038152906040526040517f08c379a00000000000000000000000000000000000000000000000000000000081526004016123b59190614c08565b60405180910390fd5b5050565b6123cc8282611c46565b6123f18160096000858152602001908152602001600020611d2790919063ffffffff16565b505050565b6124008282612f39565b612425816009600085815260200190815260200160002061301b90919063ffffffff16565b505050565b6000600760009054906101000a900473ffffffffffffffffffffffffffffffffffffffff16905081600760006101000a81548173ffffffffffffffffffffffffffffffffffffffff021916908373ffffffffffffffffffffffffffffffffffffffff1602179055508173ffffffffffffffffffffffffffffffffffffffff168173ffffffffffffffffffffffffffffffffffffffff167f8be0079c531659141344cd1fd0a4f28419497f9722a3daafe3b4186f6b6457e060405160405180910390a35050565b612586816040516024016125049190614a88565b6040516020818303038152906040527f2c2ecbc2000000000000000000000000000000000000000000000000000000007bffffffffffffffffffffffffffffffffffffffffffffffffffffffff19166020820180517bffffffffffffffffffffffffffffffffffffffffffffffffffffffff838183161783525050505061304b565b50565b60008061259584613074565b90506125b2836125a4836130f3565b61312390919063ffffffff16565b91505092915050565b61265382826040516024016125d1929190614c2a565b6040516020818303038152906040527f319af333000000000000000000000000000000000000000000000000000000007bffffffffffffffffffffffffffffffffffffffffffffffffffffffff19166020820180517bffffffffffffffffffffffffffffffffffffffffffffffffffffffff838183161783525050505061304b565b5050565b600073ffffffffffffffffffffffffffffffffffffffff168273ffffffffffffffffffffffffffffffffffffffff1614156126c7576040517f08c379a00000000000000000000000000000000000000000000000000000000081526004016126be90614e7a565b60405180910390fd5b6126d081611eb3565b15612710576040517f08c379a000000000000000000000000000000000000000000000000000000000815260040161270790614d1a565b60405180910390fd5b61271c60008383612c35565b6001600360008473ffffffffffffffffffffffffffffffffffffffff1673ffffffffffffffffffffffffffffffffffffffff168152602001908152602001600020600082825461276c919061511a565b92505081905550816002600083815260200190815260200160002060006101000a81548173ffffffffffffffffffffffffffffffffffffffff021916908373ffffffffffffffffffffffffffffffffffffffff160217905550808273ffffffffffffffffffffffffffffffffffffffff16600073ffffffffffffffffffffffffffffffffffffffff167fddf252ad1be2c89b69c2b068fc378daa952ba7f163c4a11628f55a4df523b3ef60405160405180910390a461282d60008383612c3a565b5050565b61283a82611eb3565b612879576040517f08c379a000000000000000000000000000000000000000000000000000000000815260040161287090614e1a565b60405180910390fd5b806006600084815260200190815260200160002090805190602001906128a0929190613d9d565b505050565b60006128b4836000018361314a565b60001c905092915050565b8173ffffffffffffffffffffffffffffffffffffffff168373ffffffffffffffffffffffffffffffffffffffff16141561292e576040517f08c379a000000000000000000000000000000000000000000000000000000000815260040161292590614d5a565b60405180910390fd5b80600560008573ffffffffffffffffffffffffffffffffffffffff1673ffffffffffffffffffffffffffffffffffffffff16815260200190815260200160002060008473ffffffffffffffffffffffffffffffffffffffff1673ffffffffffffffffffffffffffffffffffffffff16815260200190815260200160002060006101000a81548160ff0219169083151502179055508173ffffffffffffffffffffffffffffffffffffffff168373ffffffffffffffffffffffffffffffffffffffff167f17307eab39ab6107e8899845ad3d59bd9653f200f220920489ca2b5937696c3183604051612a1f9190614b11565b60405180910390a3505050565b612a378484846120be565b612a438484848461319b565b612a82576040517f08c379a0000000000000000000000000000000000000000000000000000000008152600401612a7990614cba565b60405180910390fd5b50505050565b606060405180602001604052806000815250905090565b6060612aaa82611eb3565b612ae9576040517f08c379a0000000000000000000000000000000000000000000000000000000008152600401612ae090614efa565b60405180910390fd5b6000612af3612a88565b90506000815111612b135760405180602001604052806000815250612b3e565b80612b1d84613332565b604051602001612b2e9291906149cd565b6040516020818303038152906040525b915050919050565b6000612b54826000016134df565b9050919050565b6000612b6783836134f0565b612bc0578260000182908060018154018082558091505060019003906000526020600020016000909190919091505582600001805490508360010160008481526020019081526020016000208190555060019050612bc5565b600090505b92915050565b60007f01ffc9a7000000000000000000000000000000000000000000000000000000007bffffffffffffffffffffffffffffffffffffffffffffffffffffffff1916827bffffffffffffffffffffffffffffffffffffffffffffffffffffffff1916149050919050565b505050565b505050565b606060006002836002612c5291906151a1565b612c5c919061511a565b67ffffffffffffffff811115612c9b577f4e487b7100000000000000000000000000000000000000000000000000000000600052604160045260246000fd5b6040519080825280601f01601f191660200182016040528015612ccd5781602001600182028036833780820191505090505b5090507f300000000000000000000000000000000000000000000000000000000000000081600081518110612d2b577f4e487b7100000000000000000000000000000000000000000000000000000000600052603260045260246000fd5b60200101907effffffffffffffffffffffffffffffffffffffffffffffffffffffffffffff1916908160001a9053507f780000000000000000000000000000000000000000000000000000000000000081600181518110612db5577f4e487b7100000000000000000000000000000000000000000000000000000000600052603260045260246000fd5b60200101907effffffffffffffffffffffffffffffffffffffffffffffffffffffffffffff1916908160001a90535060006001846002612df591906151a1565b612dff919061511a565b90505b6001811115612eeb577f3031323334353637383961626364656600000000000000000000000000000000600f861660108110612e67577f4e487b7100000000000000000000000000000000000000000000000000000000600052603260045260246000fd5b1a60f81b828281518110612ea4577f4e487b7100000000000000000000000000000000000000000000000000000000600052603260045260246000fd5b60200101907effffffffffffffffffffffffffffffffffffffffffffffffffffffffffffff1916908160001a905350600485901c945080612ee4906152fc565b9050612e02565b5060008414612f2f576040517f08c379a0000000000000000000000000000000000000000000000000000000008152600401612f2690614c7a565b60405180910390fd5b8091505092915050565b612f438282611734565b156130175760006008600084815260200190815260200160002060000160008373ffffffffffffffffffffffffffffffffffffffff1673ffffffffffffffffffffffffffffffffffffffff16815260200190815260200160002060006101000a81548160ff021916908315150217905550612fbc611f1f565b73ffffffffffffffffffffffffffffffffffffffff168173ffffffffffffffffffffffffffffffffffffffff16837ff6391f5c32d9c69d2a47ea670b442974b53935d1edc7fd64eb21e047a839171b60405160405180910390a45b5050565b6000613043836000018373ffffffffffffffffffffffffffffffffffffffff1660001b613513565b905092915050565b60008151905060006a636f6e736f6c652e6c6f679050602083016000808483855afa5050505050565b60006130ec7f1b51c0b447daca9b3baf5c10eb3177543bbe5d6accebaf0ab8f0728569aae13a8380600001906130aa9190614fd5565b6040516130b89291906149b4565b60405180910390206040516020016130d1929190614b47565b60405160208183030381529060405280519060200120613699565b9050919050565b60008160405160200161310691906149f1565b604051602081830303815290604052805190602001209050919050565b600080600061313285856136b3565b9150915061313f81613736565b819250505092915050565b6000826000018281548110613188577f4e487b7100000000000000000000000000000000000000000000000000000000600052603260045260246000fd5b9060005260206000200154905092915050565b60006131bc8473ffffffffffffffffffffffffffffffffffffffff16613a87565b15613325578373ffffffffffffffffffffffffffffffffffffffff1663150b7a026131e5611f1f565b8786866040518563ffffffff1660e01b81526004016132079493929190614aa3565b602060405180830381600087803b15801561322157600080fd5b505af192505050801561325257506040513d601f19601f8201168201806040525081019061324f9190614278565b60015b6132d5573d8060008114613282576040519150601f19603f3d011682016040523d82523d6000602084013e613287565b606091505b506000815114156132cd576040517f08c379a00000000000000000000000000000000000000000000000000000000081526004016132c490614cba565b60405180910390fd5b805181602001fd5b63150b7a0260e01b7bffffffffffffffffffffffffffffffffffffffffffffffffffffffff1916817bffffffffffffffffffffffffffffffffffffffffffffffffffffffff19161491505061332a565b600190505b949350505050565b6060600082141561337a576040518060400160405280600181526020017f300000000000000000000000000000000000000000000000000000000000000081525090506134da565b600082905060005b600082146133ac57808061339590615389565b915050600a826133a59190615170565b9150613382565b60008167ffffffffffffffff8111156133ee577f4e487b7100000000000000000000000000000000000000000000000000000000600052604160045260246000fd5b6040519080825280601f01601f1916602001820160405280156134205781602001600182028036833780820191505090505b5090505b600085146134d35760018261343991906151fb565b9150600a8561344891906153dc565b6030613454919061511a565b60f81b818381518110613490577f4e487b7100000000000000000000000000000000000000000000000000000000600052603260045260246000fd5b60200101907effffffffffffffffffffffffffffffffffffffffffffffffffffffffffffff1916908160001a905350600a856134cc9190615170565b9450613424565b8093505050505b919050565b600081600001805490509050919050565b600080836001016000848152602001908152602001600020541415905092915050565b6000808360010160008481526020019081526020016000205490506000811461368d57600060018261354591906151fb565b905060006001866000018054905061355d91906151fb565b90508181146136185760008660000182815481106135a4577f4e487b7100000000000000000000000000000000000000000000000000000000600052603260045260246000fd5b90600052602060002001549050808760000184815481106135ee577f4e487b7100000000000000000000000000000000000000000000000000000000600052603260045260246000fd5b90600052602060002001819055508387600101600083815260200190815260200160002081905550505b85600001805480613652577f4e487b7100000000000000000000000000000000000000000000000000000000600052603160045260246000fd5b600190038181906000526020600020016000905590558560010160008681526020019081526020016000206000905560019350505050613693565b60009150505b92915050565b60006136ac6136a6613aaa565b83613bc4565b9050919050565b6000806041835114156136f55760008060006020860151925060408601519150606086015160001a90506136e987828585613bf7565b9450945050505061372f565b60408351141561372657600080602085015191506040850151905061371b868383613d04565b93509350505061372f565b60006002915091505b9250929050565b60006004811115613770577f4e487b7100000000000000000000000000000000000000000000000000000000600052602160045260246000fd5b8160048111156137a9577f4e487b7100000000000000000000000000000000000000000000000000000000600052602160045260246000fd5b14156137b457613a84565b600160048111156137ee577f4e487b7100000000000000000000000000000000000000000000000000000000600052602160045260246000fd5b816004811115613827577f4e487b7100000000000000000000000000000000000000000000000000000000600052602160045260246000fd5b1415613868576040517f08c379a000000000000000000000000000000000000000000000000000000000815260040161385f90614c5a565b60405180910390fd5b600260048111156138a2577f4e487b7100000000000000000000000000000000000000000000000000000000600052602160045260246000fd5b8160048111156138db577f4e487b7100000000000000000000000000000000000000000000000000000000600052602160045260246000fd5b141561391c576040517f08c379a000000000000000000000000000000000000000000000000000000000815260040161391390614c9a565b60405180910390fd5b60036004811115613956577f4e487b7100000000000000000000000000000000000000000000000000000000600052602160045260246000fd5b81600481111561398f577f4e487b7100000000000000000000000000000000000000000000000000000000600052602160045260246000fd5b14156139d0576040517f08c379a00000000000000000000000000000000000000000000000000000000081526004016139c790614d7a565b60405180910390fd5b600480811115613a09577f4e487b7100000000000000000000000000000000000000000000000000000000600052602160045260246000fd5b816004811115613a42577f4e487b7100000000000000000000000000000000000000000000000000000000600052602160045260246000fd5b1415613a83576040517f08c379a0000000000000000000000000000000000000000000000000000000008152600401613a7a90614e3a565b60405180910390fd5b5b50565b6000808273ffffffffffffffffffffffffffffffffffffffff163b119050919050565b60007f000000000000000000000000000000000000000000000000000000000000000073ffffffffffffffffffffffffffffffffffffffff163073ffffffffffffffffffffffffffffffffffffffff16148015613b2657507f000000000000000000000000000000000000000000000000000000000000000046145b15613b53577f00000000000000000000000000000000000000000000000000000000000000009050613bc1565b613bbe7f00000000000000000000000000000000000000000000000000000000000000007f00000000000000000000000000000000000000000000000000000000000000007f0000000000000000000000000000000000000000000000000000000000000000613d63565b90505b90565b60008282604051602001613bd9929190614a17565b60405160208183030381529060405280519060200120905092915050565b6000807f7fffffffffffffffffffffffffffffff5d576e7357a4501ddfe92f46681b20a08360001c1115613c32576000600391509150613cfb565b601b8560ff1614158015613c4a5750601c8560ff1614155b15613c5c576000600491509150613cfb565b600060018787878760405160008152602001604052604051613c819493929190614bc3565b6020604051602081039080840390855afa158015613ca3573d6000803e3d6000fd5b505050602060405103519050600073ffffffffffffffffffffffffffffffffffffffff168173ffffffffffffffffffffffffffffffffffffffff161415613cf257600060019250925050613cfb565b80600092509250505b94509492505050565b60008060007f7fffffffffffffffffffffffffffffffffffffffffffffffffffffffffffffff60001b841690506000601b60ff8660001c901c613d47919061511a565b9050613d5587828885613bf7565b935093505050935093915050565b60008383834630604051602001613d7e959493929190614b70565b6040516020818303038152906040528051906020012090509392505050565b828054613da990615326565b90600052602060002090601f016020900481019282613dcb5760008555613e12565b82601f10613de457805160ff1916838001178555613e12565b82800160010185558215613e12579182015b82811115613e11578251825591602001919060010190613df6565b5b509050613e1f9190613e23565b5090565b5b80821115613e3c576000816000905550600101613e24565b5090565b6000613e53613e4e84615051565b61502c565b905082815260208101848484011115613e6b57600080fd5b613e768482856152ba565b509392505050565b600081359050613e8d81615ca3565b92915050565b600081359050613ea281615cba565b92915050565b600081359050613eb781615cd1565b92915050565b600081359050613ecc81615ce8565b92915050565b600081519050613ee181615ce8565b92915050565b600082601f830112613ef857600080fd5b8135613f08848260208601613e40565b91505092915050565b600060208284031215613f2357600080fd5b81905092915050565b600060a08284031215613f3e57600080fd5b81905092915050565b600081359050613f5681615cff565b92915050565b600060208284031215613f6e57600080fd5b6000613f7c84828501613e7e565b91505092915050565b60008060408385031215613f9857600080fd5b6000613fa685828601613e7e565b9250506020613fb785828601613e7e565b9150509250929050565b600080600060608486031215613fd657600080fd5b6000613fe486828701613e7e565b9350506020613ff586828701613e7e565b925050604061400686828701613f47565b9150509250925092565b6000806000806080858703121561402657600080fd5b600061403487828801613e7e565b945050602061404587828801613e7e565b935050604061405687828801613f47565b925050606085013567ffffffffffffffff81111561407357600080fd5b61407f87828801613ee7565b91505092959194509250565b6000806040838503121561409e57600080fd5b60006140ac85828601613e7e565b92505060206140bd85828601613e93565b9150509250929050565b600080600080608085870312156140dd57600080fd5b60006140eb87828801613e7e565b945050602085013567ffffffffffffffff81111561410857600080fd5b61411487828801613f2c565b935050604085013567ffffffffffffffff81111561413157600080fd5b61413d87828801613f11565b925050606085013567ffffffffffffffff81111561415a57600080fd5b61416687828801613ee7565b91505092959194509250565b6000806040838503121561418557600080fd5b600061419385828601613e7e565b92505060206141a485828601613f47565b9150509250929050565b6000602082840312156141c057600080fd5b60006141ce84828501613ea8565b91505092915050565b600080604083850312156141ea57600080fd5b60006141f885828601613ea8565b925050602061420985828601613e7e565b9150509250929050565b6000806040838503121561422657600080fd5b600061423485828601613ea8565b925050602061424585828601613f47565b9150509250929050565b60006020828403121561426157600080fd5b600061426f84828501613ebd565b91505092915050565b60006020828403121561428a57600080fd5b600061429884828501613ed2565b91505092915050565b6000602082840312156142b357600080fd5b60006142c184828501613f47565b91505092915050565b60006142d683836148e4565b905092915050565b6142e78161522f565b82525050565b6142f68161522f565b82525050565b600061430782615092565b61431181856150c0565b93508360208202850161432385615082565b8060005b8581101561435f578484038952815161434085826142ca565b945061434b836150b3565b925060208a01995050600181019050614327565b50829750879550505050505092915050565b61437a81615241565b82525050565b6143898161524d565b82525050565b6143a061439b8261524d565b6153d2565b82525050565b60006143b283856150e2565b93506143bf8385846152ba565b82840190509392505050565b60006143d68261509d565b6143e081856150d1565b93506143f08185602086016152c9565b6143f9816154c9565b840191505092915050565b600061440f826150a8565b61441981856150ed565b93506144298185602086016152c9565b614432816154c9565b840191505092915050565b6000614448826150a8565b61445281856150fe565b93506144628185602086016152c9565b61446b816154c9565b840191505092915050565b6000614481826150a8565b61448b818561510f565b935061449b8185602086016152c9565b80840191505092915050565b60006144b46018836150fe565b91506144bf826154da565b602082019050919050565b60006144d76020836150fe565b91506144e282615503565b602082019050919050565b60006144fa601f836150fe565b91506145058261552c565b602082019050919050565b600061451d601c8361510f565b915061452882615555565b601c82019050919050565b60006145406032836150fe565b915061454b8261557e565b604082019050919050565b60006145636026836150fe565b915061456e826155cd565b604082019050919050565b60006145866025836150fe565b91506145918261561c565b604082019050919050565b60006145a9601c836150fe565b91506145b48261566b565b602082019050919050565b60006145cc60028361510f565b91506145d782615694565b600282019050919050565b60006145ef6024836150fe565b91506145fa826156bd565b604082019050919050565b60006146126019836150fe565b915061461d8261570c565b602082019050919050565b60006146356022836150fe565b915061464082615735565b604082019050919050565b6000614658602c836150fe565b915061466382615784565b604082019050919050565b600061467b6038836150fe565b9150614686826157d3565b604082019050919050565b600061469e602a836150fe565b91506146a982615822565b604082019050919050565b60006146c16029836150fe565b91506146cc82615871565b604082019050919050565b60006146e4602e836150fe565b91506146ef826158c0565b604082019050919050565b60006147076022836150fe565b91506147128261590f565b604082019050919050565b600061472a601c836150fe565b91506147358261595e565b602082019050919050565b600061474d6020836150fe565b915061475882615987565b602082019050919050565b60006147706031836150fe565b915061477b826159b0565b604082019050919050565b6000614793602c836150fe565b915061479e826159ff565b604082019050919050565b60006147b66020836150fe565b91506147c182615a4e565b602082019050919050565b60006147d9602f836150fe565b91506147e482615a77565b604082019050919050565b60006147fc6024836150fe565b915061480782615ac6565b604082019050919050565b600061481f6021836150fe565b915061482a82615b15565b604082019050919050565b60006148426021836150fe565b915061484d82615b64565b604082019050919050565b60006148656031836150fe565b915061487082615bb3565b604082019050919050565b600061488860178361510f565b915061489382615c02565b601782019050919050565b60006148ab60118361510f565b91506148b682615c2b565b601182019050919050565b60006148ce602f836150fe565b91506148d982615c54565b604082019050919050565b600060e0830160008301516148fc6000860182614987565b50602083015161490f60208601826142de565b50604083015161492260408601826142de565b5060608301516149356060860182614987565b506080830151848203608086015261494d8282614404565b91505060a083015184820360a08601526149678282614404565b91505060c083015161497c60c0860182614987565b508091505092915050565b614990816152a3565b82525050565b61499f816152a3565b82525050565b6149ae816152ad565b82525050565b60006149c18284866143a6565b91508190509392505050565b60006149d98285614476565b91506149e58284614476565b91508190509392505050565b60006149fc82614510565b9150614a08828461438f565b60208201915081905092915050565b6000614a22826145bf565b9150614a2e828561438f565b602082019150614a3e828461438f565b6020820191508190509392505050565b6000614a598261487b565b9150614a658285614476565b9150614a708261489e565b9150614a7c8284614476565b91508190509392505050565b6000602082019050614a9d60008301846142ed565b92915050565b6000608082019050614ab860008301876142ed565b614ac560208301866142ed565b614ad26040830185614996565b8181036060830152614ae481846143cb565b905095945050505050565b60006020820190508181036000830152614b0981846142fc565b905092915050565b6000602082019050614b266000830184614371565b92915050565b6000602082019050614b416000830184614380565b92915050565b6000604082019050614b5c6000830185614380565b614b696020830184614380565b9392505050565b600060a082019050614b856000830188614380565b614b926020830187614380565b614b9f6040830186614380565b614bac6060830185614996565b614bb960808301846142ed565b9695505050505050565b6000608082019050614bd86000830187614380565b614be560208301866149a5565b614bf26040830185614380565b614bff6060830184614380565b95945050505050565b60006020820190508181036000830152614c22818461443d565b905092915050565b60006040820190508181036000830152614c44818561443d565b9050614c5360208301846142ed565b9392505050565b60006020820190508181036000830152614c73816144a7565b9050919050565b60006020820190508181036000830152614c93816144ca565b9050919050565b60006020820190508181036000830152614cb3816144ed565b9050919050565b60006020820190508181036000830152614cd381614533565b9050919050565b60006020820190508181036000830152614cf381614556565b9050919050565b60006020820190508181036000830152614d1381614579565b9050919050565b60006020820190508181036000830152614d338161459c565b9050919050565b60006020820190508181036000830152614d53816145e2565b9050919050565b60006020820190508181036000830152614d7381614605565b9050919050565b60006020820190508181036000830152614d9381614628565b9050919050565b60006020820190508181036000830152614db38161464b565b9050919050565b60006020820190508181036000830152614dd38161466e565b9050919050565b60006020820190508181036000830152614df381614691565b9050919050565b60006020820190508181036000830152614e13816146b4565b9050919050565b60006020820190508181036000830152614e33816146d7565b9050919050565b60006020820190508181036000830152614e53816146fa565b9050919050565b60006020820190508181036000830152614e738161471d565b9050919050565b60006020820190508181036000830152614e9381614740565b9050919050565b60006020820190508181036000830152614eb381614763565b9050919050565b60006020820190508181036000830152614ed381614786565b9050919050565b60006020820190508181036000830152614ef3816147a9565b9050919050565b60006020820190508181036000830152614f13816147cc565b9050919050565b60006020820190508181036000830152614f33816147ef565b9050919050565b60006020820190508181036000830152614f5381614812565b9050919050565b60006020820190508181036000830152614f7381614835565b9050919050565b60006020820190508181036000830152614f9381614858565b9050919050565b60006020820190508181036000830152614fb3816148c1565b9050919050565b6000602082019050614fcf6000830184614996565b92915050565b60008083356001602003843603038112614fee57600080fd5b80840192508235915067ffffffffffffffff82111561500c57600080fd5b60208301925060018202360383131561502457600080fd5b509250929050565b6000615036615047565b90506150428282615358565b919050565b6000604051905090565b600067ffffffffffffffff82111561506c5761506b61549a565b5b615075826154c9565b9050602081019050919050565b6000819050602082019050919050565b600081519050919050565b600081519050919050565b600081519050919050565b6000602082019050919050565b600082825260208201905092915050565b600082825260208201905092915050565b600081905092915050565b600082825260208201905092915050565b600082825260208201905092915050565b600081905092915050565b6000615125826152a3565b9150615130836152a3565b9250827fffffffffffffffffffffffffffffffffffffffffffffffffffffffffffffffff038211156151655761516461540d565b5b828201905092915050565b600061517b826152a3565b9150615186836152a3565b9250826151965761519561543c565b5b828204905092915050565b60006151ac826152a3565b91506151b7836152a3565b9250817fffffffffffffffffffffffffffffffffffffffffffffffffffffffffffffffff04831182151516156151f0576151ef61540d565b5b828202905092915050565b6000615206826152a3565b9150615211836152a3565b9250828210156152245761522361540d565b5b828203905092915050565b600061523a82615283565b9050919050565b60008115159050919050565b6000819050919050565b60007fffffffff0000000000000000000000000000000000000000000000000000000082169050919050565b600073ffffffffffffffffffffffffffffffffffffffff82169050919050565b6000819050919050565b600060ff82169050919050565b82818337600083830152505050565b60005b838110156152e75780820151818401526020810190506152cc565b838111156152f6576000848401525b50505050565b6000615307826152a3565b9150600082141561531b5761531a61540d565b5b600182039050919050565b6000600282049050600182168061533e57607f821691505b602082108114156153525761535161546b565b5b50919050565b615361826154c9565b810181811067ffffffffffffffff821117156153805761537f61549a565b5b80604052505050565b6000615394826152a3565b91507fffffffffffffffffffffffffffffffffffffffffffffffffffffffffffffffff8214156153c7576153c661540d565b5b600182019050919050565b6000819050919050565b60006153e7826152a3565b91506153f2836152a3565b9250826154025761540161543c565b5b828206905092915050565b7f4e487b7100000000000000000000000000000000000000000000000000000000600052601160045260246000fd5b7f4e487b7100000000000000000000000000000000000000000000000000000000600052601260045260246000fd5b7f4e487b7100000000000000000000000000000000000000000000000000000000600052602260045260246000fd5b7f4e487b7100000000000000000000000000000000000000000000000000000000600052604160045260246000fd5b6000601f19601f8301169050919050565b7f45434453413a20696e76616c6964207369676e61747572650000000000000000600082015250565b7f537472696e67733a20686578206c656e67746820696e73756666696369656e74600082015250565b7f45434453413a20696e76616c6964207369676e6174757265206c656e67746800600082015250565b7f19457468657265756d205369676e6564204d6573736167653a0a333200000000600082015250565b7f4552433732313a207472616e7366657220746f206e6f6e20455243373231526560008201527f63656976657220696d706c656d656e7465720000000000000000000000000000602082015250565b7f4f776e61626c653a206e6577206f776e657220697320746865207a65726f206160008201527f6464726573730000000000000000000000000000000000000000000000000000602082015250565b7f4552433732313a207472616e736665722066726f6d20696e636f72726563742060008201527f6f776e6572000000000000000000000000000000000000000000000000000000602082015250565b7f4552433732313a20746f6b656e20616c7265616479206d696e74656400000000600082015250565b7f1901000000000000000000000000000000000000000000000000000000000000600082015250565b7f4552433732313a207472616e7366657220746f20746865207a65726f2061646460008201527f7265737300000000000000000000000000000000000000000000000000000000602082015250565b7f4552433732313a20617070726f766520746f2063616c6c657200000000000000600082015250565b7f45434453413a20696e76616c6964207369676e6174757265202773272076616c60008201527f7565000000000000000000000000000000000000000000000000000000000000602082015250565b7f4552433732313a206f70657261746f7220717565727920666f72206e6f6e657860008201527f697374656e7420746f6b656e0000000000000000000000000000000000000000602082015250565b7f4552433732313a20617070726f76652063616c6c6572206973206e6f74206f7760008201527f6e6572206e6f7220617070726f76656420666f7220616c6c0000000000000000602082015250565b7f4552433732313a2062616c616e636520717565727920666f7220746865207a6560008201527f726f206164647265737300000000000000000000000000000000000000000000602082015250565b7f4552433732313a206f776e657220717565727920666f72206e6f6e657869737460008201527f656e7420746f6b656e0000000000000000000000000000000000000000000000602082015250565b7f45524337323155524953746f726167653a2055524920736574206f66206e6f6e60008201527f6578697374656e7420746f6b656e000000000000000000000000000000000000602082015250565b7f45434453413a20696e76616c6964207369676e6174757265202776272076616c60008201527f7565000000000000000000000000000000000000000000000000000000000000602082015250565b7f496e73756666696369656e742066756e647320746f2072656465656d00000000600082015250565b7f4552433732313a206d696e7420746f20746865207a65726f2061646472657373600082015250565b7f45524337323155524953746f726167653a2055524920717565727920666f722060008201527f6e6f6e6578697374656e7420746f6b656e000000000000000000000000000000602082015250565b7f4552433732313a20617070726f76656420717565727920666f72206e6f6e657860008201527f697374656e7420746f6b656e0000000000000000000000000000000000000000602082015250565b7f4f776e61626c653a2063616c6c6572206973206e6f7420746865206f776e6572600082015250565b7f4552433732314d657461646174613a2055524920717565727920666f72206e6f60008201527f6e6578697374656e7420746f6b656e0000000000000000000000000000000000602082015250565b7f4f6e6c7920617574686f72697a6564206d696e746572732063616e207769746860008201527f6472617700000000000000000000000000000000000000000000000000000000602082015250565b7f4552433732313a20617070726f76616c20746f2063757272656e74206f776e6560008201527f7200000000000000000000000000000000000000000000000000000000000000602082015250565b7f5369676e617475726520696e76616c6964206f7220756e617574686f72697a6560008201527f6400000000000000000000000000000000000000000000000000000000000000602082015250565b7f4552433732313a207472616e736665722063616c6c6572206973206e6f74206f60008201527f776e6572206e6f7220617070726f766564000000000000000000000000000000602082015250565b7f416363657373436f6e74726f6c3a206163636f756e7420000000000000000000600082015250565b7f206973206d697373696e6720726f6c6520000000000000000000000000000000600082015250565b7f416363657373436f6e74726f6c3a2063616e206f6e6c792072656e6f756e636560008201527f20726f6c657320666f722073656c660000000000000000000000000000000000602082015250565b615cac8161522f565b8114615cb757600080fd5b50565b615cc381615241565b8114615cce57600080fd5b50565b615cda8161524d565b8114615ce557600080fd5b50565b615cf181615257565b8114615cfc57600080fd5b50565b615d08816152a3565b8114615d1357600080fd5b5056fea2646970667358221220eaaa340347ea955983f0e02e68b391ff097c4b683ea8b04e6fee11021c74571b64736f6c63430008040033",
  "linkReferences": {},
  "deployedLinkReferences": {}
}