{
  "_format": "hh-sol-artifact-1",
  "contractName": "LazyNFT",
  "sourceName": "contracts/LazyNFT.sol",
  "abi": [
    {
      "inputs": [
        {
          "internalType": "address payable",
          "name": "minter",
          "type": "address"
        }
      ],
      "stateMutability": "nonpayable",
      "type": "constructor"
    },
    {
      "anonymous": false,
      "inputs": [
        {
          "indexed": true,
          "internalType": "address",
          "name": "owner",
          "type": "address"
        },
        {
          "indexed": true,
          "internalType": "address",
          "name": "approved",
          "type": "address"
        },
        {
          "indexed": true,
          "internalType": "uint256",
          "name": "tokenId",
          "type": "uint256"
        }
      ],
      "name": "Approval",
      "type": "event"
    },
    {
      "anonymous": false,
      "inputs": [
        {
          "indexed": true,
          "internalType": "address",
          "name": "owner",
          "type": "address"
        },
        {
          "indexed": true,
          "internalType": "address",
          "name": "operator",
          "type": "address"
        },
        {
          "indexed": false,
          "internalType": "bool",
          "name": "approved",
          "type": "bool"
        }
      ],
      "name": "ApprovalForAll",
      "type": "event"
    },
    {
      "anonymous": false,
      "inputs": [
        {
          "indexed": true,
          "internalType": "bytes32",
          "name": "role",
          "type": "bytes32"
        },
        {
          "indexed": true,
          "internalType": "bytes32",
          "name": "previousAdminRole",
          "type": "bytes32"
        },
        {
          "indexed": true,
          "internalType": "bytes32",
          "name": "newAdminRole",
          "type": "bytes32"
        }
      ],
      "name": "RoleAdminChanged",
      "type": "event"
    },
    {
      "anonymous": false,
      "inputs": [
        {
          "indexed": true,
          "internalType": "bytes32",
          "name": "role",
          "type": "bytes32"
        },
        {
          "indexed": true,
          "internalType": "address",
          "name": "account",
          "type": "address"
        },
        {
          "indexed": true,
          "internalType": "address",
          "name": "sender",
          "type": "address"
        }
      ],
      "name": "RoleGranted",
      "type": "event"
    },
    {
      "anonymous": false,
      "inputs": [
        {
          "indexed": true,
          "internalType": "bytes32",
          "name": "role",
          "type": "bytes32"
        },
        {
          "indexed": true,
          "internalType": "address",
          "name": "account",
          "type": "address"
        },
        {
          "indexed": true,
          "internalType": "address",
          "name": "sender",
          "type": "address"
        }
      ],
      "name": "RoleRevoked",
      "type": "event"
    },
    {
      "anonymous": false,
      "inputs": [
        {
          "indexed": true,
          "internalType": "address",
          "name": "from",
          "type": "address"
        },
        {
          "indexed": true,
          "internalType": "address",
          "name": "to",
          "type": "address"
        },
        {
          "indexed": true,
          "internalType": "uint256",
          "name": "tokenId",
          "type": "uint256"
        }
      ],
      "name": "Transfer",
      "type": "event"
    },
    {
      "inputs": [],
      "name": "DEFAULT_ADMIN_ROLE",
      "outputs": [
        {
          "internalType": "bytes32",
          "name": "",
          "type": "bytes32"
        }
      ],
      "stateMutability": "view",
      "type": "function"
    },
    {
      "inputs": [],
      "name": "MINTER_ROLE",
      "outputs": [
        {
          "internalType": "bytes32",
          "name": "",
          "type": "bytes32"
        }
      ],
      "stateMutability": "view",
      "type": "function"
    },
    {
      "inputs": [
        {
          "internalType": "address",
          "name": "to",
          "type": "address"
        },
        {
          "internalType": "uint256",
          "name": "tokenId",
          "type": "uint256"
        }
      ],
      "name": "approve",
      "outputs": [],
      "stateMutability": "nonpayable",
      "type": "function"
    },
    {
      "inputs": [],
      "name": "availableToWithdraw",
      "outputs": [
        {
          "internalType": "uint256",
          "name": "",
          "type": "uint256"
        }
      ],
      "stateMutability": "view",
      "type": "function"
    },
    {
      "inputs": [
        {
          "internalType": "address",
          "name": "owner",
          "type": "address"
        }
      ],
      "name": "balanceOf",
      "outputs": [
        {
          "internalType": "uint256",
          "name": "",
          "type": "uint256"
        }
      ],
      "stateMutability": "view",
      "type": "function"
    },
    {
      "inputs": [
        {
          "internalType": "address",
          "name": "_reqAddress",
          "type": "address"
        }
      ],
      "name": "fetchNFTsOwned",
      "outputs": [
        {
          "components": [
            {
              "internalType": "uint256",
              "name": "tokenId",
              "type": "uint256"
            },
            {
              "internalType": "address",
              "name": "owner",
              "type": "address"
            },
            {
              "internalType": "address",
              "name": "creator",
              "type": "address"
            },
            {
              "internalType": "uint256",
              "name": "price",
              "type": "uint256"
            },
            {
              "internalType": "string",
              "name": "uri",
              "type": "string"
            },
            {
              "internalType": "string",
              "name": "collection",
              "type": "string"
            }
          ],
          "internalType": "struct LazyNFT.MarketItem[]",
          "name": "",
          "type": "tuple[]"
        }
      ],
      "stateMutability": "view",
      "type": "function"
    },
    {
      "inputs": [],
      "name": "getAddress",
      "outputs": [
        {
          "internalType": "address",
          "name": "",
          "type": "address"
        }
      ],
      "stateMutability": "view",
      "type": "function"
    },
    {
      "inputs": [
        {
          "internalType": "uint256",
          "name": "tokenId",
          "type": "uint256"
        }
      ],
      "name": "getApproved",
      "outputs": [
        {
          "internalType": "address",
          "name": "",
          "type": "address"
        }
      ],
      "stateMutability": "view",
      "type": "function"
    },
    {
      "inputs": [
        {
          "internalType": "bytes32",
          "name": "role",
          "type": "bytes32"
        }
      ],
      "name": "getRoleAdmin",
      "outputs": [
        {
          "internalType": "bytes32",
          "name": "",
          "type": "bytes32"
        }
      ],
      "stateMutability": "view",
      "type": "function"
    },
    {
      "inputs": [
        {
          "internalType": "bytes32",
          "name": "role",
          "type": "bytes32"
        },
        {
          "internalType": "address",
          "name": "account",
          "type": "address"
        }
      ],
      "name": "grantRole",
      "outputs": [],
      "stateMutability": "nonpayable",
      "type": "function"
    },
    {
      "inputs": [
        {
          "internalType": "bytes32",
          "name": "role",
          "type": "bytes32"
        },
        {
          "internalType": "address",
          "name": "account",
          "type": "address"
        }
      ],
      "name": "hasRole",
      "outputs": [
        {
          "internalType": "bool",
          "name": "",
          "type": "bool"
        }
      ],
      "stateMutability": "view",
      "type": "function"
    },
    {
      "inputs": [
        {
          "internalType": "address",
          "name": "owner",
          "type": "address"
        },
        {
          "internalType": "address",
          "name": "operator",
          "type": "address"
        }
      ],
      "name": "isApprovedForAll",
      "outputs": [
        {
          "internalType": "bool",
          "name": "",
          "type": "bool"
        }
      ],
      "stateMutability": "view",
      "type": "function"
    },
    {
      "inputs": [],
      "name": "name",
      "outputs": [
        {
          "internalType": "string",
          "name": "",
          "type": "string"
        }
      ],
      "stateMutability": "view",
      "type": "function"
    },
    {
      "inputs": [
        {
          "internalType": "uint256",
          "name": "tokenId",
          "type": "uint256"
        }
      ],
      "name": "ownerOf",
      "outputs": [
        {
          "internalType": "address",
          "name": "",
          "type": "address"
        }
      ],
      "stateMutability": "view",
      "type": "function"
    },
    {
      "inputs": [
        {
          "internalType": "address",
          "name": "redeemer",
          "type": "address"
        },
        {
          "components": [
            {
              "internalType": "uint256",
              "name": "tokenId",
              "type": "uint256"
            },
            {
              "internalType": "uint256",
              "name": "minPrice",
              "type": "uint256"
            },
            {
              "internalType": "string",
              "name": "uri",
              "type": "string"
            },
            {
              "internalType": "string",
              "name": "collection",
              "type": "string"
            }
          ],
          "internalType": "struct LazyNFT.NFTVoucher",
          "name": "voucher",
          "type": "tuple"
        },
        {
          "internalType": "bytes",
          "name": "signature",
          "type": "bytes"
        }
      ],
      "name": "redeem",
      "outputs": [
        {
          "internalType": "uint256",
          "name": "",
          "type": "uint256"
        }
      ],
      "stateMutability": "payable",
      "type": "function"
    },
    {
      "inputs": [
        {
          "internalType": "bytes32",
          "name": "role",
          "type": "bytes32"
        },
        {
          "internalType": "address",
          "name": "account",
          "type": "address"
        }
      ],
      "name": "renounceRole",
      "outputs": [],
      "stateMutability": "nonpayable",
      "type": "function"
    },
    {
      "inputs": [
        {
          "internalType": "bytes32",
          "name": "role",
          "type": "bytes32"
        },
        {
          "internalType": "address",
          "name": "account",
          "type": "address"
        }
      ],
      "name": "revokeRole",
      "outputs": [],
      "stateMutability": "nonpayable",
      "type": "function"
    },
    {
      "inputs": [
        {
          "internalType": "address",
          "name": "from",
          "type": "address"
        },
        {
          "internalType": "address",
          "name": "to",
          "type": "address"
        },
        {
          "internalType": "uint256",
          "name": "tokenId",
          "type": "uint256"
        }
      ],
      "name": "safeTransferFrom",
      "outputs": [],
      "stateMutability": "nonpayable",
      "type": "function"
    },
    {
      "inputs": [
        {
          "internalType": "address",
          "name": "from",
          "type": "address"
        },
        {
          "internalType": "address",
          "name": "to",
          "type": "address"
        },
        {
          "internalType": "uint256",
          "name": "tokenId",
          "type": "uint256"
        },
        {
          "internalType": "bytes",
          "name": "_data",
          "type": "bytes"
        }
      ],
      "name": "safeTransferFrom",
      "outputs": [],
      "stateMutability": "nonpayable",
      "type": "function"
    },
    {
      "inputs": [
        {
          "internalType": "address",
          "name": "operator",
          "type": "address"
        },
        {
          "internalType": "bool",
          "name": "approved",
          "type": "bool"
        }
      ],
      "name": "setApprovalForAll",
      "outputs": [],
      "stateMutability": "nonpayable",
      "type": "function"
    },
    {
      "inputs": [
        {
          "internalType": "bytes4",
          "name": "interfaceId",
          "type": "bytes4"
        }
      ],
      "name": "supportsInterface",
      "outputs": [
        {
          "internalType": "bool",
          "name": "",
          "type": "bool"
        }
      ],
      "stateMutability": "view",
      "type": "function"
    },
    {
      "inputs": [],
      "name": "symbol",
      "outputs": [
        {
          "internalType": "string",
          "name": "",
          "type": "string"
        }
      ],
      "stateMutability": "view",
      "type": "function"
    },
    {
      "inputs": [
        {
          "internalType": "uint256",
          "name": "tokenId",
          "type": "uint256"
        }
      ],
      "name": "tokenURI",
      "outputs": [
        {
          "internalType": "string",
          "name": "",
          "type": "string"
        }
      ],
      "stateMutability": "view",
      "type": "function"
    },
    {
      "inputs": [
        {
          "internalType": "address",
          "name": "from",
          "type": "address"
        },
        {
          "internalType": "address",
          "name": "to",
          "type": "address"
        },
        {
          "internalType": "uint256",
          "name": "tokenId",
          "type": "uint256"
        }
      ],
      "name": "transferFrom",
      "outputs": [],
      "stateMutability": "nonpayable",
      "type": "function"
    },
    {
      "inputs": [],
      "name": "withdraw",
      "outputs": [],
      "stateMutability": "nonpayable",
      "type": "function"
    }
  ],
  "bytecode": "0x6101206040523480156200001257600080fd5b506040516200577738038062005777833981810160405281019062000038919062000478565b6040518060400160405280600f81526020017f4c617a794e46542d566f756368657200000000000000000000000000000000008152506040518060400160405280600181526020017f31000000000000000000000000000000000000000000000000000000000000008152506040518060400160405280600781526020017f4c617a794e4654000000000000000000000000000000000000000000000000008152506040518060400160405280600381526020017f4c415a0000000000000000000000000000000000000000000000000000000000815250816000908051906020019062000128929190620003b1565b50806001908051906020019062000141929190620003b1565b50505060008280519060200120905060008280519060200120905060007f8b73c3c69bb8fe3d512ecc4cf759cc79239f7b179b0ffacaa9a75d522b39400f90508260c081815250508160e081815250504660a08181525050620001ac818484620001fa60201b60201c565b608081815250508061010081815250505050505050620001f37f9f2df0fed2c77648de5860a4cc508cd0818c85b8b8a1ab4ceeef8d981c8956a6826200023660201b60201c565b506200060f565b6000838383463060405160200162000217959493929190620004d7565b6040516020818303038152906040528051906020012090509392505050565b6200024882826200024c60201b60201c565b5050565b6200025e82826200033e60201b60201c565b6200033a5760016007600084815260200190815260200160002060000160008373ffffffffffffffffffffffffffffffffffffffff1673ffffffffffffffffffffffffffffffffffffffff16815260200190815260200160002060006101000a81548160ff021916908315150217905550620002df620003a960201b60201c565b73ffffffffffffffffffffffffffffffffffffffff168173ffffffffffffffffffffffffffffffffffffffff16837f2f8788117e7eff1d82e926ec794901d17c78024a50270940304540a733656f0d60405160405180910390a45b5050565b60006007600084815260200190815260200160002060000160008373ffffffffffffffffffffffffffffffffffffffff1673ffffffffffffffffffffffffffffffffffffffff16815260200190815260200160002060009054906101000a900460ff16905092915050565b600033905090565b828054620003bf9062000590565b90600052602060002090601f016020900481019282620003e357600085556200042f565b82601f10620003fe57805160ff19168380011785556200042f565b828001600101855582156200042f579182015b828111156200042e57825182559160200191906001019062000411565b5b5090506200043e919062000442565b5090565b5b808211156200045d57600081600090555060010162000443565b5090565b6000815190506200047281620005f5565b92915050565b6000602082840312156200048b57600080fd5b60006200049b8482850162000461565b91505092915050565b620004af8162000534565b82525050565b620004c0816200055c565b82525050565b620004d18162000586565b82525050565b600060a082019050620004ee6000830188620004b5565b620004fd6020830187620004b5565b6200050c6040830186620004b5565b6200051b6060830185620004c6565b6200052a6080830184620004a4565b9695505050505050565b6000620005418262000566565b9050919050565b6000620005558262000566565b9050919050565b6000819050919050565b600073ffffffffffffffffffffffffffffffffffffffff82169050919050565b6000819050919050565b60006002820490506001821680620005a957607f821691505b60208210811415620005c057620005bf620005c6565b5b50919050565b7f4e487b7100000000000000000000000000000000000000000000000000000000600052602260045260246000fd5b620006008162000548565b81146200060c57600080fd5b50565b60805160a05160c05160e051610100516151236200065460003960006130da0152600061311c015260006130fb01526000613087015260006130af01526151236000f3fe6080604052600436106101665760003560e01c806370a08231116100d1578063b88d4fde1161008a578063d547741f11610064578063d547741f14610560578063e322ad2b14610589578063e985e9c5146105b4578063f045de2e146105f157610166565b8063b88d4fde146104cf578063c87b56dd146104f8578063d53913931461053557610166565b806370a08231146103995780637197de7c146103d657806391d148541461041357806395d89b4114610450578063a217fddf1461047b578063a22cb465146104a657610166565b80632f2ff15d116101235780632f2ff15d1461029f57806336568abe146102c857806338cc4831146102f15780633ccfd60b1461031c57806342842e0e146103335780636352211e1461035c57610166565b806301ffc9a71461016b57806306fdde03146101a8578063081812fc146101d3578063095ea7b31461021057806323b872dd14610239578063248a9ca314610262575b600080fd5b34801561017757600080fd5b50610192600480360381019061018d919061373d565b610621565b60405161019f9190613fa6565b60405180910390f35b3480156101b457600080fd5b506101bd610643565b6040516101ca91906140c7565b60405180910390f35b3480156101df57600080fd5b506101fa60048036038101906101f5919061378f565b6106d5565b6040516102079190613f1d565b60405180910390f35b34801561021c57600080fd5b506102376004803603810190610232919061369c565b61075a565b005b34801561024557600080fd5b50610260600480360381019061025b9190613517565b610872565b005b34801561026e57600080fd5b50610289600480360381019061028491906136d8565b6108d2565b6040516102969190613fc1565b60405180910390f35b3480156102ab57600080fd5b506102c660048036038101906102c19190613701565b6108f2565b005b3480156102d457600080fd5b506102ef60048036038101906102ea9190613701565b61091b565b005b3480156102fd57600080fd5b5061030661099e565b6040516103139190613f1d565b60405180910390f35b34801561032857600080fd5b506103316109a6565b005b34801561033f57600080fd5b5061035a60048036038101906103559190613517565b610ae8565b005b34801561036857600080fd5b50610383600480360381019061037e919061378f565b610b08565b6040516103909190613f1d565b60405180910390f35b3480156103a557600080fd5b506103c060048036038101906103bb91906134b2565b610bba565b6040516103cd9190614409565b60405180910390f35b3480156103e257600080fd5b506103fd60048036038101906103f891906134b2565b610c72565b60405161040a9190613f84565b60405180910390f35b34801561041f57600080fd5b5061043a60048036038101906104359190613701565b610efd565b6040516104479190613fa6565b60405180910390f35b34801561045c57600080fd5b50610465610f68565b60405161047291906140c7565b60405180910390f35b34801561048757600080fd5b50610490610ffa565b60405161049d9190613fc1565b60405180910390f35b3480156104b257600080fd5b506104cd60048036038101906104c891906135e1565b611001565b005b3480156104db57600080fd5b506104f660048036038101906104f19190613566565b611182565b005b34801561050457600080fd5b5061051f600480360381019061051a919061378f565b6111e4565b60405161052c91906140c7565b60405180910390f35b34801561054157600080fd5b5061054a611336565b6040516105579190613fc1565b60405180910390f35b34801561056c57600080fd5b5061058760048036038101906105829190613701565b61135a565b005b34801561059557600080fd5b5061059e611383565b6040516105ab9190614409565b60405180910390f35b3480156105c057600080fd5b506105db60048036038101906105d691906134db565b6113ca565b6040516105e89190613fa6565b60405180910390f35b61060b6004803603810190610606919061361d565b61145e565b6040516106189190614409565b60405180910390f35b600061062c82611859565b8061063c575061063b8261193b565b5b9050919050565b60606000805461065290614775565b80601f016020809104026020016040519081016040528092919081815260200182805461067e90614775565b80156106cb5780601f106106a0576101008083540402835291602001916106cb565b820191906000526020600020905b8154815290600101906020018083116106ae57829003601f168201915b5050505050905090565b60006106e0826119b5565b61071f576040517f08c379a000000000000000000000000000000000000000000000000000000000815260040161071690614309565b60405180910390fd5b6004600083815260200190815260200160002060009054906101000a900473ffffffffffffffffffffffffffffffffffffffff169050919050565b600061076582610b08565b90508073ffffffffffffffffffffffffffffffffffffffff168373ffffffffffffffffffffffffffffffffffffffff1614156107d6576040517f08c379a00000000000000000000000000000000000000000000000000000000081526004016107cd90614389565b60405180910390fd5b8073ffffffffffffffffffffffffffffffffffffffff166107f5611a21565b73ffffffffffffffffffffffffffffffffffffffff16148061082457506108238161081e611a21565b6113ca565b5b610863576040517f08c379a000000000000000000000000000000000000000000000000000000000815260040161085a90614209565b60405180910390fd5b61086d8383611a29565b505050565b61088361087d611a21565b82611ae2565b6108c2576040517f08c379a00000000000000000000000000000000000000000000000000000000081526004016108b9906143c9565b60405180910390fd5b6108cd838383611bc0565b505050565b600060076000838152602001908152602001600020600101549050919050565b6108fb826108d2565b61090c81610907611a21565b611e1c565b6109168383611eb9565b505050565b610923611a21565b73ffffffffffffffffffffffffffffffffffffffff168173ffffffffffffffffffffffffffffffffffffffff1614610990576040517f08c379a0000000000000000000000000000000000000000000000000000000008152600401610987906143e9565b60405180910390fd5b61099a8282611f9a565b5050565b600030905090565b6109d07f9f2df0fed2c77648de5860a4cc508cd0818c85b8b8a1ab4ceeef8d981c8956a633610efd565b610a0f576040517f08c379a0000000000000000000000000000000000000000000000000000000008152600401610a0690614369565b60405180910390fd5b60003390506000600a60008373ffffffffffffffffffffffffffffffffffffffff1673ffffffffffffffffffffffffffffffffffffffff1681526020019081526020016000205490506000600a60008473ffffffffffffffffffffffffffffffffffffffff1673ffffffffffffffffffffffffffffffffffffffff168152602001908152602001600020819055508173ffffffffffffffffffffffffffffffffffffffff166108fc829081150290604051600060405180830381858888f19350505050158015610ae3573d6000803e3d6000fd5b505050565b610b0383838360405180602001604052806000815250611182565b505050565b6000806002600084815260200190815260200160002060009054906101000a900473ffffffffffffffffffffffffffffffffffffffff169050600073ffffffffffffffffffffffffffffffffffffffff168173ffffffffffffffffffffffffffffffffffffffff161415610bb1576040517f08c379a0000000000000000000000000000000000000000000000000000000008152600401610ba890614249565b60405180910390fd5b80915050919050565b60008073ffffffffffffffffffffffffffffffffffffffff168273ffffffffffffffffffffffffffffffffffffffff161415610c2b576040517f08c379a0000000000000000000000000000000000000000000000000000000008152600401610c2290614229565b60405180910390fd5b600360008373ffffffffffffffffffffffffffffffffffffffff1673ffffffffffffffffffffffffffffffffffffffff168152602001908152602001600020549050919050565b6060610c7d8261207c565b600b60008373ffffffffffffffffffffffffffffffffffffffff1673ffffffffffffffffffffffffffffffffffffffff168152602001908152602001600020805480602002602001604051908101604052809291908181526020016000905b82821015610ef257838290600052602060002090600602016040518060c0016040529081600082015481526020016001820160009054906101000a900473ffffffffffffffffffffffffffffffffffffffff1673ffffffffffffffffffffffffffffffffffffffff1673ffffffffffffffffffffffffffffffffffffffff1681526020016002820160009054906101000a900473ffffffffffffffffffffffffffffffffffffffff1673ffffffffffffffffffffffffffffffffffffffff1673ffffffffffffffffffffffffffffffffffffffff16815260200160038201548152602001600482018054610dcf90614775565b80601f0160208091040260200160405190810160405280929190818152602001828054610dfb90614775565b8015610e485780601f10610e1d57610100808354040283529160200191610e48565b820191906000526020600020905b815481529060010190602001808311610e2b57829003601f168201915b50505050508152602001600582018054610e6190614775565b80601f0160208091040260200160405190810160405280929190818152602001828054610e8d90614775565b8015610eda5780601f10610eaf57610100808354040283529160200191610eda565b820191906000526020600020905b815481529060010190602001808311610ebd57829003601f168201915b50505050508152505081526020019060010190610cdc565b505050509050919050565b60006007600084815260200190815260200160002060000160008373ffffffffffffffffffffffffffffffffffffffff1673ffffffffffffffffffffffffffffffffffffffff16815260200190815260200160002060009054906101000a900460ff16905092915050565b606060018054610f7790614775565b80601f0160208091040260200160405190810160405280929190818152602001828054610fa390614775565b8015610ff05780601f10610fc557610100808354040283529160200191610ff0565b820191906000526020600020905b815481529060010190602001808311610fd357829003601f168201915b5050505050905090565b6000801b81565b611009611a21565b73ffffffffffffffffffffffffffffffffffffffff168273ffffffffffffffffffffffffffffffffffffffff161415611077576040517f08c379a000000000000000000000000000000000000000000000000000000000815260040161106e906141a9565b60405180910390fd5b8060056000611084611a21565b73ffffffffffffffffffffffffffffffffffffffff1673ffffffffffffffffffffffffffffffffffffffff16815260200190815260200160002060008473ffffffffffffffffffffffffffffffffffffffff1673ffffffffffffffffffffffffffffffffffffffff16815260200190815260200160002060006101000a81548160ff0219169083151502179055508173ffffffffffffffffffffffffffffffffffffffff16611131611a21565b73ffffffffffffffffffffffffffffffffffffffff167f17307eab39ab6107e8899845ad3d59bd9653f200f220920489ca2b5937696c31836040516111769190613fa6565b60405180910390a35050565b61119361118d611a21565b83611ae2565b6111d2576040517f08c379a00000000000000000000000000000000000000000000000000000000081526004016111c9906143c9565b60405180910390fd5b6111de84848484612115565b50505050565b60606111ef826119b5565b61122e576040517f08c379a0000000000000000000000000000000000000000000000000000000008152600401611225906142e9565b60405180910390fd5b600060066000848152602001908152602001600020805461124e90614775565b80601f016020809104026020016040519081016040528092919081815260200182805461127a90614775565b80156112c75780601f1061129c576101008083540402835291602001916112c7565b820191906000526020600020905b8154815290600101906020018083116112aa57829003601f168201915b5050505050905060006112d8612171565b90506000815114156112ee578192505050611331565b60008251111561132357808260405160200161130b929190613e62565b60405160208183030381529060405292505050611331565b61132c84612188565b925050505b919050565b7f9f2df0fed2c77648de5860a4cc508cd0818c85b8b8a1ab4ceeef8d981c8956a681565b611363826108d2565b6113748161136f611a21565b611e1c565b61137e8383611f9a565b505050565b6000600a60003373ffffffffffffffffffffffffffffffffffffffff1673ffffffffffffffffffffffffffffffffffffffff16815260200190815260200160002054905090565b6000600560008473ffffffffffffffffffffffffffffffffffffffff1673ffffffffffffffffffffffffffffffffffffffff16815260200190815260200160002060008373ffffffffffffffffffffffffffffffffffffffff1673ffffffffffffffffffffffffffffffffffffffff16815260200190815260200160002060009054906101000a900460ff16905092915050565b60008061146b848461222f565b90506114768161207c565b6114a07f9f2df0fed2c77648de5860a4cc508cd0818c85b8b8a1ab4ceeef8d981c8956a682610efd565b6114df576040517f08c379a00000000000000000000000000000000000000000000000000000000081526004016114d6906143a9565b60405180910390fd5b8360200135341015611526576040517f08c379a000000000000000000000000000000000000000000000000000000000815260040161151d906142a9565b60405180910390fd5b611534818560000135612261565b611594846000013585806040019061154c9190614424565b8080601f016020809104026020016040519081016040528093929190818152602001838380828437600081840152601f19601f8201169050808301925050505050505061242f565b60006040518060c00160405280866000013581526020018773ffffffffffffffffffffffffffffffffffffffff1681526020018373ffffffffffffffffffffffffffffffffffffffff168152602001866020013581526020018680604001906115fd9190614424565b8080601f016020809104026020016040519081016040528093929190818152602001838380828437600081840152601f19601f8201169050808301925050505050505081526020018680606001906116559190614424565b8080601f016020809104026020016040519081016040528093929190818152602001838380828437600081840152601f19601f820116905080830192505050505050508152509050600b60008773ffffffffffffffffffffffffffffffffffffffff1673ffffffffffffffffffffffffffffffffffffffff1681526020019081526020016000208190806001815401808255809150506001900390600052602060002090600602016000909190919091506000820151816000015560208201518160010160006101000a81548173ffffffffffffffffffffffffffffffffffffffff021916908373ffffffffffffffffffffffffffffffffffffffff16021790555060408201518160020160006101000a81548173ffffffffffffffffffffffffffffffffffffffff021916908373ffffffffffffffffffffffffffffffffffffffff1602179055506060820151816003015560808201518160040190805190602001906117c492919061330e565b5060a08201518160050190805190602001906117e192919061330e565b5050506117f382878760000135611bc0565b34600a60008473ffffffffffffffffffffffffffffffffffffffff1673ffffffffffffffffffffffffffffffffffffffff16815260200190815260200160002060008282546118429190614569565b925050819055508460000135925050509392505050565b60007f80ac58cd000000000000000000000000000000000000000000000000000000007bffffffffffffffffffffffffffffffffffffffffffffffffffffffff1916827bffffffffffffffffffffffffffffffffffffffffffffffffffffffff1916148061192457507f5b5e139f000000000000000000000000000000000000000000000000000000007bffffffffffffffffffffffffffffffffffffffffffffffffffffffff1916827bffffffffffffffffffffffffffffffffffffffffffffffffffffffff1916145b806119345750611933826124a3565b5b9050919050565b60007f7965db0b000000000000000000000000000000000000000000000000000000007bffffffffffffffffffffffffffffffffffffffffffffffffffffffff1916827bffffffffffffffffffffffffffffffffffffffffffffffffffffffff191614806119ae57506119ad82611859565b5b9050919050565b60008073ffffffffffffffffffffffffffffffffffffffff166002600084815260200190815260200160002060009054906101000a900473ffffffffffffffffffffffffffffffffffffffff1673ffffffffffffffffffffffffffffffffffffffff1614159050919050565b600033905090565b816004600083815260200190815260200160002060006101000a81548173ffffffffffffffffffffffffffffffffffffffff021916908373ffffffffffffffffffffffffffffffffffffffff160217905550808273ffffffffffffffffffffffffffffffffffffffff16611a9c83610b08565b73ffffffffffffffffffffffffffffffffffffffff167f8c5be1e5ebec7d5bd14f71427d1e84f3dd0314c0f7b2291e5b200ac8c7c3b92560405160405180910390a45050565b6000611aed826119b5565b611b2c576040517f08c379a0000000000000000000000000000000000000000000000000000000008152600401611b23906141e9565b60405180910390fd5b6000611b3783610b08565b90508073ffffffffffffffffffffffffffffffffffffffff168473ffffffffffffffffffffffffffffffffffffffff161480611ba657508373ffffffffffffffffffffffffffffffffffffffff16611b8e846106d5565b73ffffffffffffffffffffffffffffffffffffffff16145b80611bb75750611bb681856113ca565b5b91505092915050565b8273ffffffffffffffffffffffffffffffffffffffff16611be082610b08565b73ffffffffffffffffffffffffffffffffffffffff1614611c36576040517f08c379a0000000000000000000000000000000000000000000000000000000008152600401611c2d90614329565b60405180910390fd5b600073ffffffffffffffffffffffffffffffffffffffff168273ffffffffffffffffffffffffffffffffffffffff161415611ca6576040517f08c379a0000000000000000000000000000000000000000000000000000000008152600401611c9d90614189565b60405180910390fd5b611cb183838361250d565b611cbc600082611a29565b6001600360008573ffffffffffffffffffffffffffffffffffffffff1673ffffffffffffffffffffffffffffffffffffffff1681526020019081526020016000206000828254611d0c919061464a565b925050819055506001600360008473ffffffffffffffffffffffffffffffffffffffff1673ffffffffffffffffffffffffffffffffffffffff1681526020019081526020016000206000828254611d639190614569565b92505081905550816002600083815260200190815260200160002060006101000a81548173ffffffffffffffffffffffffffffffffffffffff021916908373ffffffffffffffffffffffffffffffffffffffff160217905550808273ffffffffffffffffffffffffffffffffffffffff168473ffffffffffffffffffffffffffffffffffffffff167fddf252ad1be2c89b69c2b068fc378daa952ba7f163c4a11628f55a4df523b3ef60405160405180910390a4505050565b611e268282610efd565b611eb557611e4b8173ffffffffffffffffffffffffffffffffffffffff166014612512565b611e598360001c6020612512565b604051602001611e6a929190613ee3565b6040516020818303038152906040526040517f08c379a0000000000000000000000000000000000000000000000000000000008152600401611eac91906140c7565b60405180910390fd5b5050565b611ec38282610efd565b611f965760016007600084815260200190815260200160002060000160008373ffffffffffffffffffffffffffffffffffffffff1673ffffffffffffffffffffffffffffffffffffffff16815260200190815260200160002060006101000a81548160ff021916908315150217905550611f3b611a21565b73ffffffffffffffffffffffffffffffffffffffff168173ffffffffffffffffffffffffffffffffffffffff16837f2f8788117e7eff1d82e926ec794901d17c78024a50270940304540a733656f0d60405160405180910390a45b5050565b611fa48282610efd565b156120785760006007600084815260200190815260200160002060000160008373ffffffffffffffffffffffffffffffffffffffff1673ffffffffffffffffffffffffffffffffffffffff16815260200190815260200160002060006101000a81548160ff02191690831515021790555061201d611a21565b73ffffffffffffffffffffffffffffffffffffffff168173ffffffffffffffffffffffffffffffffffffffff16837ff6391f5c32d9c69d2a47ea670b442974b53935d1edc7fd64eb21e047a839171b60405160405180910390a45b5050565b612112816040516024016120909190613f1d565b6040516020818303038152906040527f2c2ecbc2000000000000000000000000000000000000000000000000000000007bffffffffffffffffffffffffffffffffffffffffffffffffffffffff19166020820180517bffffffffffffffffffffffffffffffffffffffffffffffffffffffff838183161783525050505061280c565b50565b612120848484611bc0565b61212c84848484612835565b61216b576040517f08c379a000000000000000000000000000000000000000000000000000000000815260040161216290614149565b60405180910390fd5b50505050565b606060405180602001604052806000815250905090565b6060612193826119b5565b6121d2576040517f08c379a00000000000000000000000000000000000000000000000000000000081526004016121c990614349565b60405180910390fd5b60006121dc612171565b905060008151116121fc5760405180602001604052806000815250612227565b80612206846129cc565b604051602001612217929190613e62565b6040516020818303038152906040525b915050919050565b60008061223b84612b79565b90506122588361224a83612c2b565b612c5b90919063ffffffff16565b91505092915050565b600073ffffffffffffffffffffffffffffffffffffffff168273ffffffffffffffffffffffffffffffffffffffff1614156122d1576040517f08c379a00000000000000000000000000000000000000000000000000000000081526004016122c8906142c9565b60405180910390fd5b6122da816119b5565b1561231a576040517f08c379a000000000000000000000000000000000000000000000000000000000815260040161231190614169565b60405180910390fd5b6123266000838361250d565b6001600360008473ffffffffffffffffffffffffffffffffffffffff1673ffffffffffffffffffffffffffffffffffffffff16815260200190815260200160002060008282546123769190614569565b92505081905550816002600083815260200190815260200160002060006101000a81548173ffffffffffffffffffffffffffffffffffffffff021916908373ffffffffffffffffffffffffffffffffffffffff160217905550808273ffffffffffffffffffffffffffffffffffffffff16600073ffffffffffffffffffffffffffffffffffffffff167fddf252ad1be2c89b69c2b068fc378daa952ba7f163c4a11628f55a4df523b3ef60405160405180910390a45050565b612438826119b5565b612477576040517f08c379a000000000000000000000000000000000000000000000000000000000815260040161246e90614269565b60405180910390fd5b8060066000848152602001908152602001600020908051906020019061249e92919061330e565b505050565b60007f01ffc9a7000000000000000000000000000000000000000000000000000000007bffffffffffffffffffffffffffffffffffffffffffffffffffffffff1916827bffffffffffffffffffffffffffffffffffffffffffffffffffffffff1916149050919050565b505050565b60606000600283600261252591906145f0565b61252f9190614569565b67ffffffffffffffff81111561256e577f4e487b7100000000000000000000000000000000000000000000000000000000600052604160045260246000fd5b6040519080825280601f01601f1916602001820160405280156125a05781602001600182028036833780820191505090505b5090507f3000000000000000000000000000000000000000000000000000000000000000816000815181106125fe577f4e487b7100000000000000000000000000000000000000000000000000000000600052603260045260246000fd5b60200101907effffffffffffffffffffffffffffffffffffffffffffffffffffffffffffff1916908160001a9053507f780000000000000000000000000000000000000000000000000000000000000081600181518110612688577f4e487b7100000000000000000000000000000000000000000000000000000000600052603260045260246000fd5b60200101907effffffffffffffffffffffffffffffffffffffffffffffffffffffffffffff1916908160001a905350600060018460026126c891906145f0565b6126d29190614569565b90505b60018111156127be577f3031323334353637383961626364656600000000000000000000000000000000600f86166010811061273a577f4e487b7100000000000000000000000000000000000000000000000000000000600052603260045260246000fd5b1a60f81b828281518110612777577f4e487b7100000000000000000000000000000000000000000000000000000000600052603260045260246000fd5b60200101907effffffffffffffffffffffffffffffffffffffffffffffffffffffffffffff1916908160001a905350600485901c9450806127b79061474b565b90506126d5565b5060008414612802576040517f08c379a00000000000000000000000000000000000000000000000000000000081526004016127f990614109565b60405180910390fd5b8091505092915050565b60008151905060006a636f6e736f6c652e6c6f679050602083016000808483855afa5050505050565b60006128568473ffffffffffffffffffffffffffffffffffffffff16612c82565b156129bf578373ffffffffffffffffffffffffffffffffffffffff1663150b7a0261287f611a21565b8786866040518563ffffffff1660e01b81526004016128a19493929190613f38565b602060405180830381600087803b1580156128bb57600080fd5b505af19250505080156128ec57506040513d601f19601f820116820180604052508101906128e99190613766565b60015b61296f573d806000811461291c576040519150601f19603f3d011682016040523d82523d6000602084013e612921565b606091505b50600081511415612967576040517f08c379a000000000000000000000000000000000000000000000000000000000815260040161295e90614149565b60405180910390fd5b805181602001fd5b63150b7a0260e01b7bffffffffffffffffffffffffffffffffffffffffffffffffffffffff1916817bffffffffffffffffffffffffffffffffffffffffffffffffffffffff1916149150506129c4565b600190505b949350505050565b60606000821415612a14576040518060400160405280600181526020017f30000000000000000000000000000000000000000000000000000000000000008152509050612b74565b600082905060005b60008214612a46578080612a2f906147d8565b915050600a82612a3f91906145bf565b9150612a1c565b60008167ffffffffffffffff811115612a88577f4e487b7100000000000000000000000000000000000000000000000000000000600052604160045260246000fd5b6040519080825280601f01601f191660200182016040528015612aba5781602001600182028036833780820191505090505b5090505b60008514612b6d57600182612ad3919061464a565b9150600a85612ae2919061482b565b6030612aee9190614569565b60f81b818381518110612b2a577f4e487b7100000000000000000000000000000000000000000000000000000000600052603260045260246000fd5b60200101907effffffffffffffffffffffffffffffffffffffffffffffffffffffffffffff1916908160001a905350600a85612b6691906145bf565b9450612abe565b8093505050505b919050565b6000612c247f2610be69d7e986e75c2b7515aee267e6e34ecf9855631848cd65c06efd75c78b83600001358460200135858060400190612bb99190614424565b604051612bc7929190613e49565b6040518091039020868060600190612bdf9190614424565b604051612bed929190613e49565b6040518091039020604051602001612c0995949392919061402f565b60405160208183030381529060405280519060200120612c95565b9050919050565b600081604051602001612c3e9190613e86565b604051602081830303815290604052805190602001209050919050565b6000806000612c6a8585612caf565b91509150612c7781612d32565b819250505092915050565b600080823b905060008111915050919050565b6000612ca8612ca2613083565b83613146565b9050919050565b600080604183511415612cf15760008060006020860151925060408601519150606086015160001a9050612ce587828585613179565b94509450505050612d2b565b604083511415612d22576000806020850151915060408501519050612d17868383613286565b935093505050612d2b565b60006002915091505b9250929050565b60006004811115612d6c577f4e487b7100000000000000000000000000000000000000000000000000000000600052602160045260246000fd5b816004811115612da5577f4e487b7100000000000000000000000000000000000000000000000000000000600052602160045260246000fd5b1415612db057613080565b60016004811115612dea577f4e487b7100000000000000000000000000000000000000000000000000000000600052602160045260246000fd5b816004811115612e23577f4e487b7100000000000000000000000000000000000000000000000000000000600052602160045260246000fd5b1415612e64576040517f08c379a0000000000000000000000000000000000000000000000000000000008152600401612e5b906140e9565b60405180910390fd5b60026004811115612e9e577f4e487b7100000000000000000000000000000000000000000000000000000000600052602160045260246000fd5b816004811115612ed7577f4e487b7100000000000000000000000000000000000000000000000000000000600052602160045260246000fd5b1415612f18576040517f08c379a0000000000000000000000000000000000000000000000000000000008152600401612f0f90614129565b60405180910390fd5b60036004811115612f52577f4e487b7100000000000000000000000000000000000000000000000000000000600052602160045260246000fd5b816004811115612f8b577f4e487b7100000000000000000000000000000000000000000000000000000000600052602160045260246000fd5b1415612fcc576040517f08c379a0000000000000000000000000000000000000000000000000000000008152600401612fc3906141c9565b60405180910390fd5b600480811115613005577f4e487b7100000000000000000000000000000000000000000000000000000000600052602160045260246000fd5b81600481111561303e577f4e487b7100000000000000000000000000000000000000000000000000000000600052602160045260246000fd5b141561307f576040517f08c379a000000000000000000000000000000000000000000000000000000000815260040161307690614289565b60405180910390fd5b5b50565b60007f00000000000000000000000000000000000000000000000000000000000000004614156130d5577f00000000000000000000000000000000000000000000000000000000000000009050613143565b6131407f00000000000000000000000000000000000000000000000000000000000000007f00000000000000000000000000000000000000000000000000000000000000007f00000000000000000000000000000000000000000000000000000000000000006132d4565b90505b90565b6000828260405160200161315b929190613eac565b60405160208183030381529060405280519060200120905092915050565b6000807f7fffffffffffffffffffffffffffffff5d576e7357a4501ddfe92f46681b20a08360001c11156131b457600060039150915061327d565b601b8560ff16141580156131cc5750601c8560ff1614155b156131de57600060049150915061327d565b6000600187878787604051600081526020016040526040516132039493929190614082565b6020604051602081039080840390855afa158015613225573d6000803e3d6000fd5b505050602060405103519050600073ffffffffffffffffffffffffffffffffffffffff168173ffffffffffffffffffffffffffffffffffffffff1614156132745760006001925092505061327d565b80600092509250505b94509492505050565b6000806000807f7fffffffffffffffffffffffffffffffffffffffffffffffffffffffffffffff85169150601b8560ff1c0190506132c687828885613179565b935093505050935093915050565b600083838346306040516020016132ef959493929190613fdc565b6040516020818303038152906040528051906020012090509392505050565b82805461331a90614775565b90600052602060002090601f01602090048101928261333c5760008555613383565b82601f1061335557805160ff1916838001178555613383565b82800160010185558215613383579182015b82811115613382578251825591602001919060010190613367565b5b5090506133909190613394565b5090565b5b808211156133ad576000816000905550600101613395565b5090565b60006133c46133bf846144a0565b61447b565b9050828152602081018484840111156133dc57600080fd5b6133e7848285614709565b509392505050565b6000813590506133fe8161507a565b92915050565b60008135905061341381615091565b92915050565b600081359050613428816150a8565b92915050565b60008135905061343d816150bf565b92915050565b600081519050613452816150bf565b92915050565b600082601f83011261346957600080fd5b81356134798482602086016133b1565b91505092915050565b60006080828403121561349457600080fd5b81905092915050565b6000813590506134ac816150d6565b92915050565b6000602082840312156134c457600080fd5b60006134d2848285016133ef565b91505092915050565b600080604083850312156134ee57600080fd5b60006134fc858286016133ef565b925050602061350d858286016133ef565b9150509250929050565b60008060006060848603121561352c57600080fd5b600061353a868287016133ef565b935050602061354b868287016133ef565b925050604061355c8682870161349d565b9150509250925092565b6000806000806080858703121561357c57600080fd5b600061358a878288016133ef565b945050602061359b878288016133ef565b93505060406135ac8782880161349d565b925050606085013567ffffffffffffffff8111156135c957600080fd5b6135d587828801613458565b91505092959194509250565b600080604083850312156135f457600080fd5b6000613602858286016133ef565b925050602061361385828601613404565b9150509250929050565b60008060006060848603121561363257600080fd5b6000613640868287016133ef565b935050602084013567ffffffffffffffff81111561365d57600080fd5b61366986828701613482565b925050604084013567ffffffffffffffff81111561368657600080fd5b61369286828701613458565b9150509250925092565b600080604083850312156136af57600080fd5b60006136bd858286016133ef565b92505060206136ce8582860161349d565b9150509250929050565b6000602082840312156136ea57600080fd5b60006136f884828501613419565b91505092915050565b6000806040838503121561371457600080fd5b600061372285828601613419565b9250506020613733858286016133ef565b9150509250929050565b60006020828403121561374f57600080fd5b600061375d8482850161342e565b91505092915050565b60006020828403121561377857600080fd5b600061378684828501613443565b91505092915050565b6000602082840312156137a157600080fd5b60006137af8482850161349d565b91505092915050565b60006137c48383613d8c565b905092915050565b6137d58161467e565b82525050565b6137e48161467e565b82525050565b60006137f5826144e1565b6137ff818561450f565b935083602082028501613811856144d1565b8060005b8581101561384d578484038952815161382e85826137b8565b945061383983614502565b925060208a01995050600181019050613815565b50829750879550505050505092915050565b61386881614690565b82525050565b6138778161469c565b82525050565b61388e6138898261469c565b614821565b82525050565b60006138a08385614531565b93506138ad838584614709565b82840190509392505050565b60006138c4826144ec565b6138ce8185614520565b93506138de818560208601614718565b6138e781614918565b840191505092915050565b60006138fd826144f7565b613907818561453c565b9350613917818560208601614718565b61392081614918565b840191505092915050565b6000613936826144f7565b613940818561454d565b9350613950818560208601614718565b61395981614918565b840191505092915050565b600061396f826144f7565b613979818561455e565b9350613989818560208601614718565b80840191505092915050565b60006139a260188361454d565b91506139ad82614929565b602082019050919050565b60006139c560208361454d565b91506139d082614952565b602082019050919050565b60006139e8601f8361454d565b91506139f38261497b565b602082019050919050565b6000613a0b601c8361455e565b9150613a16826149a4565b601c82019050919050565b6000613a2e60328361454d565b9150613a39826149cd565b604082019050919050565b6000613a51601c8361454d565b9150613a5c82614a1c565b602082019050919050565b6000613a7460028361455e565b9150613a7f82614a45565b600282019050919050565b6000613a9760248361454d565b9150613aa282614a6e565b604082019050919050565b6000613aba60198361454d565b9150613ac582614abd565b602082019050919050565b6000613add60228361454d565b9150613ae882614ae6565b604082019050919050565b6000613b00602c8361454d565b9150613b0b82614b35565b604082019050919050565b6000613b2360388361454d565b9150613b2e82614b84565b604082019050919050565b6000613b46602a8361454d565b9150613b5182614bd3565b604082019050919050565b6000613b6960298361454d565b9150613b7482614c22565b604082019050919050565b6000613b8c602e8361454d565b9150613b9782614c71565b604082019050919050565b6000613baf60228361454d565b9150613bba82614cc0565b604082019050919050565b6000613bd2601c8361454d565b9150613bdd82614d0f565b602082019050919050565b6000613bf560208361454d565b9150613c0082614d38565b602082019050919050565b6000613c1860318361454d565b9150613c2382614d61565b604082019050919050565b6000613c3b602c8361454d565b9150613c4682614db0565b604082019050919050565b6000613c5e60298361454d565b9150613c6982614dff565b604082019050919050565b6000613c81602f8361454d565b9150613c8c82614e4e565b604082019050919050565b6000613ca460248361454d565b9150613caf82614e9d565b604082019050919050565b6000613cc760218361454d565b9150613cd282614eec565b604082019050919050565b6000613cea60218361454d565b9150613cf582614f3b565b604082019050919050565b6000613d0d60318361454d565b9150613d1882614f8a565b604082019050919050565b6000613d3060178361455e565b9150613d3b82614fd9565b601782019050919050565b6000613d5360118361455e565b9150613d5e82615002565b601182019050919050565b6000613d76602f8361454d565b9150613d818261502b565b604082019050919050565b600060c083016000830151613da46000860182613e1c565b506020830151613db760208601826137cc565b506040830151613dca60408601826137cc565b506060830151613ddd6060860182613e1c565b5060808301518482036080860152613df582826138f2565b91505060a083015184820360a0860152613e0f82826138f2565b9150508091505092915050565b613e25816146f2565b82525050565b613e34816146f2565b82525050565b613e43816146fc565b82525050565b6000613e56828486613894565b91508190509392505050565b6000613e6e8285613964565b9150613e7a8284613964565b91508190509392505050565b6000613e91826139fe565b9150613e9d828461387d565b60208201915081905092915050565b6000613eb782613a67565b9150613ec3828561387d565b602082019150613ed3828461387d565b6020820191508190509392505050565b6000613eee82613d23565b9150613efa8285613964565b9150613f0582613d46565b9150613f118284613964565b91508190509392505050565b6000602082019050613f3260008301846137db565b92915050565b6000608082019050613f4d60008301876137db565b613f5a60208301866137db565b613f676040830185613e2b565b8181036060830152613f7981846138b9565b905095945050505050565b60006020820190508181036000830152613f9e81846137ea565b905092915050565b6000602082019050613fbb600083018461385f565b92915050565b6000602082019050613fd6600083018461386e565b92915050565b600060a082019050613ff1600083018861386e565b613ffe602083018761386e565b61400b604083018661386e565b6140186060830185613e2b565b61402560808301846137db565b9695505050505050565b600060a082019050614044600083018861386e565b6140516020830187613e2b565b61405e6040830186613e2b565b61406b606083018561386e565b614078608083018461386e565b9695505050505050565b6000608082019050614097600083018761386e565b6140a46020830186613e3a565b6140b1604083018561386e565b6140be606083018461386e565b95945050505050565b600060208201905081810360008301526140e1818461392b565b905092915050565b6000602082019050818103600083015261410281613995565b9050919050565b60006020820190508181036000830152614122816139b8565b9050919050565b60006020820190508181036000830152614142816139db565b9050919050565b6000602082019050818103600083015261416281613a21565b9050919050565b6000602082019050818103600083015261418281613a44565b9050919050565b600060208201905081810360008301526141a281613a8a565b9050919050565b600060208201905081810360008301526141c281613aad565b9050919050565b600060208201905081810360008301526141e281613ad0565b9050919050565b6000602082019050818103600083015261420281613af3565b9050919050565b6000602082019050818103600083015261422281613b16565b9050919050565b6000602082019050818103600083015261424281613b39565b9050919050565b6000602082019050818103600083015261426281613b5c565b9050919050565b6000602082019050818103600083015261428281613b7f565b9050919050565b600060208201905081810360008301526142a281613ba2565b9050919050565b600060208201905081810360008301526142c281613bc5565b9050919050565b600060208201905081810360008301526142e281613be8565b9050919050565b6000602082019050818103600083015261430281613c0b565b9050919050565b6000602082019050818103600083015261432281613c2e565b9050919050565b6000602082019050818103600083015261434281613c51565b9050919050565b6000602082019050818103600083015261436281613c74565b9050919050565b6000602082019050818103600083015261438281613c97565b9050919050565b600060208201905081810360008301526143a281613cba565b9050919050565b600060208201905081810360008301526143c281613cdd565b9050919050565b600060208201905081810360008301526143e281613d00565b9050919050565b6000602082019050818103600083015261440281613d69565b9050919050565b600060208201905061441e6000830184613e2b565b92915050565b6000808335600160200384360303811261443d57600080fd5b80840192508235915067ffffffffffffffff82111561445b57600080fd5b60208301925060018202360383131561447357600080fd5b509250929050565b6000614485614496565b905061449182826147a7565b919050565b6000604051905090565b600067ffffffffffffffff8211156144bb576144ba6148e9565b5b6144c482614918565b9050602081019050919050565b6000819050602082019050919050565b600081519050919050565b600081519050919050565b600081519050919050565b6000602082019050919050565b600082825260208201905092915050565b600082825260208201905092915050565b600081905092915050565b600082825260208201905092915050565b600082825260208201905092915050565b600081905092915050565b6000614574826146f2565b915061457f836146f2565b9250827fffffffffffffffffffffffffffffffffffffffffffffffffffffffffffffffff038211156145b4576145b361485c565b5b828201905092915050565b60006145ca826146f2565b91506145d5836146f2565b9250826145e5576145e461488b565b5b828204905092915050565b60006145fb826146f2565b9150614606836146f2565b9250817fffffffffffffffffffffffffffffffffffffffffffffffffffffffffffffffff048311821515161561463f5761463e61485c565b5b828202905092915050565b6000614655826146f2565b9150614660836146f2565b9250828210156146735761467261485c565b5b828203905092915050565b6000614689826146d2565b9050919050565b60008115159050919050565b6000819050919050565b60007fffffffff0000000000000000000000000000000000000000000000000000000082169050919050565b600073ffffffffffffffffffffffffffffffffffffffff82169050919050565b6000819050919050565b600060ff82169050919050565b82818337600083830152505050565b60005b8381101561473657808201518184015260208101905061471b565b83811115614745576000848401525b50505050565b6000614756826146f2565b9150600082141561476a5761476961485c565b5b600182039050919050565b6000600282049050600182168061478d57607f821691505b602082108114156147a1576147a06148ba565b5b50919050565b6147b082614918565b810181811067ffffffffffffffff821117156147cf576147ce6148e9565b5b80604052505050565b60006147e3826146f2565b91507fffffffffffffffffffffffffffffffffffffffffffffffffffffffffffffffff8214156148165761481561485c565b5b600182019050919050565b6000819050919050565b6000614836826146f2565b9150614841836146f2565b9250826148515761485061488b565b5b828206905092915050565b7f4e487b7100000000000000000000000000000000000000000000000000000000600052601160045260246000fd5b7f4e487b7100000000000000000000000000000000000000000000000000000000600052601260045260246000fd5b7f4e487b7100000000000000000000000000000000000000000000000000000000600052602260045260246000fd5b7f4e487b7100000000000000000000000000000000000000000000000000000000600052604160045260246000fd5b6000601f19601f8301169050919050565b7f45434453413a20696e76616c6964207369676e61747572650000000000000000600082015250565b7f537472696e67733a20686578206c656e67746820696e73756666696369656e74600082015250565b7f45434453413a20696e76616c6964207369676e6174757265206c656e67746800600082015250565b7f19457468657265756d205369676e6564204d6573736167653a0a333200000000600082015250565b7f4552433732313a207472616e7366657220746f206e6f6e20455243373231526560008201527f63656976657220696d706c656d656e7465720000000000000000000000000000602082015250565b7f4552433732313a20746f6b656e20616c7265616479206d696e74656400000000600082015250565b7f1901000000000000000000000000000000000000000000000000000000000000600082015250565b7f4552433732313a207472616e7366657220746f20746865207a65726f2061646460008201527f7265737300000000000000000000000000000000000000000000000000000000602082015250565b7f4552433732313a20617070726f766520746f2063616c6c657200000000000000600082015250565b7f45434453413a20696e76616c6964207369676e6174757265202773272076616c60008201527f7565000000000000000000000000000000000000000000000000000000000000602082015250565b7f4552433732313a206f70657261746f7220717565727920666f72206e6f6e657860008201527f697374656e7420746f6b656e0000000000000000000000000000000000000000602082015250565b7f4552433732313a20617070726f76652063616c6c6572206973206e6f74206f7760008201527f6e6572206e6f7220617070726f76656420666f7220616c6c0000000000000000602082015250565b7f4552433732313a2062616c616e636520717565727920666f7220746865207a6560008201527f726f206164647265737300000000000000000000000000000000000000000000602082015250565b7f4552433732313a206f776e657220717565727920666f72206e6f6e657869737460008201527f656e7420746f6b656e0000000000000000000000000000000000000000000000602082015250565b7f45524337323155524953746f726167653a2055524920736574206f66206e6f6e60008201527f6578697374656e7420746f6b656e000000000000000000000000000000000000602082015250565b7f45434453413a20696e76616c6964207369676e6174757265202776272076616c60008201527f7565000000000000000000000000000000000000000000000000000000000000602082015250565b7f496e73756666696369656e742066756e647320746f2072656465656d00000000600082015250565b7f4552433732313a206d696e7420746f20746865207a65726f2061646472657373600082015250565b7f45524337323155524953746f726167653a2055524920717565727920666f722060008201527f6e6f6e6578697374656e7420746f6b656e000000000000000000000000000000602082015250565b7f4552433732313a20617070726f76656420717565727920666f72206e6f6e657860008201527f697374656e7420746f6b656e0000000000000000000000000000000000000000602082015250565b7f4552433732313a207472616e73666572206f6620746f6b656e2074686174206960008201527f73206e6f74206f776e0000000000000000000000000000000000000000000000602082015250565b7f4552433732314d657461646174613a2055524920717565727920666f72206e6f60008201527f6e6578697374656e7420746f6b656e0000000000000000000000000000000000602082015250565b7f4f6e6c7920617574686f72697a6564206d696e746572732063616e207769746860008201527f6472617700000000000000000000000000000000000000000000000000000000602082015250565b7f4552433732313a20617070726f76616c20746f2063757272656e74206f776e6560008201527f7200000000000000000000000000000000000000000000000000000000000000602082015250565b7f5369676e617475726520696e76616c6964206f7220756e617574686f72697a6560008201527f6400000000000000000000000000000000000000000000000000000000000000602082015250565b7f4552433732313a207472616e736665722063616c6c6572206973206e6f74206f60008201527f776e6572206e6f7220617070726f766564000000000000000000000000000000602082015250565b7f416363657373436f6e74726f6c3a206163636f756e7420000000000000000000600082015250565b7f206973206d697373696e6720726f6c6520000000000000000000000000000000600082015250565b7f416363657373436f6e74726f6c3a2063616e206f6e6c792072656e6f756e636560008201527f20726f6c657320666f722073656c660000000000000000000000000000000000602082015250565b6150838161467e565b811461508e57600080fd5b50565b61509a81614690565b81146150a557600080fd5b50565b6150b18161469c565b81146150bc57600080fd5b50565b6150c8816146a6565b81146150d357600080fd5b50565b6150df816146f2565b81146150ea57600080fd5b5056fea2646970667358221220a8854b3bddaa2375dd12531cbce4b86e6827cc096e7e0d8ee4f8a70e804b65a264736f6c63430008040033",
  "linkReferences": {},
  "deployedLinkReferences": {}
}