{
  "_format": "hh-sol-artifact-1",
  "contractName": "LazyNFT",
  "sourceName": "contracts/LazyNFT.sol",
  "abi": [
    {
      "inputs": [],
      "stateMutability": "nonpayable",
      "type": "constructor"
    },
    {
      "anonymous": false,
      "inputs": [
        {
          "indexed": true,
          "internalType": "address",
          "name": "owner",
          "type": "address"
        },
        {
          "indexed": true,
          "internalType": "address",
          "name": "approved",
          "type": "address"
        },
        {
          "indexed": true,
          "internalType": "uint256",
          "name": "tokenId",
          "type": "uint256"
        }
      ],
      "name": "Approval",
      "type": "event"
    },
    {
      "anonymous": false,
      "inputs": [
        {
          "indexed": true,
          "internalType": "address",
          "name": "owner",
          "type": "address"
        },
        {
          "indexed": true,
          "internalType": "address",
          "name": "operator",
          "type": "address"
        },
        {
          "indexed": false,
          "internalType": "bool",
          "name": "approved",
          "type": "bool"
        }
      ],
      "name": "ApprovalForAll",
      "type": "event"
    },
    {
      "anonymous": false,
      "inputs": [
        {
          "indexed": true,
          "internalType": "address",
          "name": "previousOwner",
          "type": "address"
        },
        {
          "indexed": true,
          "internalType": "address",
          "name": "newOwner",
          "type": "address"
        }
      ],
      "name": "OwnershipTransferred",
      "type": "event"
    },
    {
      "anonymous": false,
      "inputs": [
        {
          "indexed": true,
          "internalType": "bytes32",
          "name": "role",
          "type": "bytes32"
        },
        {
          "indexed": true,
          "internalType": "bytes32",
          "name": "previousAdminRole",
          "type": "bytes32"
        },
        {
          "indexed": true,
          "internalType": "bytes32",
          "name": "newAdminRole",
          "type": "bytes32"
        }
      ],
      "name": "RoleAdminChanged",
      "type": "event"
    },
    {
      "anonymous": false,
      "inputs": [
        {
          "indexed": true,
          "internalType": "bytes32",
          "name": "role",
          "type": "bytes32"
        },
        {
          "indexed": true,
          "internalType": "address",
          "name": "account",
          "type": "address"
        },
        {
          "indexed": true,
          "internalType": "address",
          "name": "sender",
          "type": "address"
        }
      ],
      "name": "RoleGranted",
      "type": "event"
    },
    {
      "anonymous": false,
      "inputs": [
        {
          "indexed": true,
          "internalType": "bytes32",
          "name": "role",
          "type": "bytes32"
        },
        {
          "indexed": true,
          "internalType": "address",
          "name": "account",
          "type": "address"
        },
        {
          "indexed": true,
          "internalType": "address",
          "name": "sender",
          "type": "address"
        }
      ],
      "name": "RoleRevoked",
      "type": "event"
    },
    {
      "anonymous": false,
      "inputs": [
        {
          "indexed": true,
          "internalType": "address",
          "name": "from",
          "type": "address"
        },
        {
          "indexed": true,
          "internalType": "address",
          "name": "to",
          "type": "address"
        },
        {
          "indexed": true,
          "internalType": "uint256",
          "name": "tokenId",
          "type": "uint256"
        }
      ],
      "name": "Transfer",
      "type": "event"
    },
    {
      "inputs": [],
      "name": "DEFAULT_ADMIN_ROLE",
      "outputs": [
        {
          "internalType": "bytes32",
          "name": "",
          "type": "bytes32"
        }
      ],
      "stateMutability": "view",
      "type": "function"
    },
    {
      "inputs": [],
      "name": "MINTER_ROLE",
      "outputs": [
        {
          "internalType": "bytes32",
          "name": "",
          "type": "bytes32"
        }
      ],
      "stateMutability": "view",
      "type": "function"
    },
    {
      "inputs": [
        {
          "internalType": "address",
          "name": "to",
          "type": "address"
        },
        {
          "internalType": "uint256",
          "name": "tokenId",
          "type": "uint256"
        }
      ],
      "name": "approve",
      "outputs": [],
      "stateMutability": "nonpayable",
      "type": "function"
    },
    {
      "inputs": [],
      "name": "availableToWithdraw",
      "outputs": [
        {
          "internalType": "uint256",
          "name": "",
          "type": "uint256"
        }
      ],
      "stateMutability": "view",
      "type": "function"
    },
    {
      "inputs": [
        {
          "internalType": "address",
          "name": "owner",
          "type": "address"
        }
      ],
      "name": "balanceOf",
      "outputs": [
        {
          "internalType": "uint256",
          "name": "",
          "type": "uint256"
        }
      ],
      "stateMutability": "view",
      "type": "function"
    },
    {
      "inputs": [
        {
          "internalType": "address",
          "name": "_reqAddress",
          "type": "address"
        }
      ],
      "name": "fetchNFTsOwned",
      "outputs": [
        {
          "components": [
            {
              "internalType": "uint256",
              "name": "tokenId",
              "type": "uint256"
            },
            {
              "internalType": "address",
              "name": "owner",
              "type": "address"
            },
            {
              "internalType": "address",
              "name": "creator",
              "type": "address"
            },
            {
              "internalType": "uint256",
              "name": "price",
              "type": "uint256"
            },
            {
              "internalType": "string",
              "name": "uri",
              "type": "string"
            },
            {
              "internalType": "string",
              "name": "collection",
              "type": "string"
            }
          ],
          "internalType": "struct LazyNFT.MarketItem[]",
          "name": "",
          "type": "tuple[]"
        }
      ],
      "stateMutability": "view",
      "type": "function"
    },
    {
      "inputs": [],
      "name": "getAddress",
      "outputs": [
        {
          "internalType": "address",
          "name": "",
          "type": "address"
        }
      ],
      "stateMutability": "view",
      "type": "function"
    },
    {
      "inputs": [
        {
          "internalType": "uint256",
          "name": "tokenId",
          "type": "uint256"
        }
      ],
      "name": "getApproved",
      "outputs": [
        {
          "internalType": "address",
          "name": "",
          "type": "address"
        }
      ],
      "stateMutability": "view",
      "type": "function"
    },
    {
      "inputs": [
        {
          "internalType": "bytes32",
          "name": "role",
          "type": "bytes32"
        }
      ],
      "name": "getRoleAdmin",
      "outputs": [
        {
          "internalType": "bytes32",
          "name": "",
          "type": "bytes32"
        }
      ],
      "stateMutability": "view",
      "type": "function"
    },
    {
      "inputs": [
        {
          "internalType": "bytes32",
          "name": "role",
          "type": "bytes32"
        },
        {
          "internalType": "uint256",
          "name": "index",
          "type": "uint256"
        }
      ],
      "name": "getRoleMember",
      "outputs": [
        {
          "internalType": "address",
          "name": "",
          "type": "address"
        }
      ],
      "stateMutability": "view",
      "type": "function"
    },
    {
      "inputs": [
        {
          "internalType": "bytes32",
          "name": "role",
          "type": "bytes32"
        }
      ],
      "name": "getRoleMemberCount",
      "outputs": [
        {
          "internalType": "uint256",
          "name": "",
          "type": "uint256"
        }
      ],
      "stateMutability": "view",
      "type": "function"
    },
    {
      "inputs": [
        {
          "internalType": "bytes32",
          "name": "role",
          "type": "bytes32"
        },
        {
          "internalType": "address",
          "name": "account",
          "type": "address"
        }
      ],
      "name": "grantRole",
      "outputs": [],
      "stateMutability": "nonpayable",
      "type": "function"
    },
    {
      "inputs": [
        {
          "internalType": "bytes32",
          "name": "role",
          "type": "bytes32"
        },
        {
          "internalType": "address",
          "name": "account",
          "type": "address"
        }
      ],
      "name": "hasRole",
      "outputs": [
        {
          "internalType": "bool",
          "name": "",
          "type": "bool"
        }
      ],
      "stateMutability": "view",
      "type": "function"
    },
    {
      "inputs": [
        {
          "internalType": "address",
          "name": "owner",
          "type": "address"
        },
        {
          "internalType": "address",
          "name": "operator",
          "type": "address"
        }
      ],
      "name": "isApprovedForAll",
      "outputs": [
        {
          "internalType": "bool",
          "name": "",
          "type": "bool"
        }
      ],
      "stateMutability": "view",
      "type": "function"
    },
    {
      "inputs": [],
      "name": "name",
      "outputs": [
        {
          "internalType": "string",
          "name": "",
          "type": "string"
        }
      ],
      "stateMutability": "view",
      "type": "function"
    },
    {
      "inputs": [],
      "name": "owner",
      "outputs": [
        {
          "internalType": "address",
          "name": "",
          "type": "address"
        }
      ],
      "stateMutability": "view",
      "type": "function"
    },
    {
      "inputs": [
        {
          "internalType": "uint256",
          "name": "tokenId",
          "type": "uint256"
        }
      ],
      "name": "ownerOf",
      "outputs": [
        {
          "internalType": "address",
          "name": "",
          "type": "address"
        }
      ],
      "stateMutability": "view",
      "type": "function"
    },
    {
      "inputs": [
        {
          "internalType": "address",
          "name": "redeemer",
          "type": "address"
        },
        {
          "components": [
            {
              "internalType": "uint256",
              "name": "tokenId",
              "type": "uint256"
            },
            {
              "internalType": "uint256",
              "name": "minPrice",
              "type": "uint256"
            },
            {
              "internalType": "string",
              "name": "uri",
              "type": "string"
            },
            {
              "internalType": "string",
              "name": "collection",
              "type": "string"
            }
          ],
          "internalType": "struct LazyNFT.NFTVoucher",
          "name": "voucher",
          "type": "tuple"
        },
        {
          "internalType": "bytes",
          "name": "signature",
          "type": "bytes"
        }
      ],
      "name": "redeem",
      "outputs": [
        {
          "internalType": "uint256",
          "name": "",
          "type": "uint256"
        }
      ],
      "stateMutability": "payable",
      "type": "function"
    },
    {
      "inputs": [
        {
          "internalType": "address",
          "name": "_addr",
          "type": "address"
        }
      ],
      "name": "removeMinter",
      "outputs": [],
      "stateMutability": "nonpayable",
      "type": "function"
    },
    {
      "inputs": [],
      "name": "renounceOwnership",
      "outputs": [],
      "stateMutability": "nonpayable",
      "type": "function"
    },
    {
      "inputs": [
        {
          "internalType": "bytes32",
          "name": "role",
          "type": "bytes32"
        },
        {
          "internalType": "address",
          "name": "account",
          "type": "address"
        }
      ],
      "name": "renounceRole",
      "outputs": [],
      "stateMutability": "nonpayable",
      "type": "function"
    },
    {
      "inputs": [
        {
          "internalType": "bytes32",
          "name": "role",
          "type": "bytes32"
        },
        {
          "internalType": "address",
          "name": "account",
          "type": "address"
        }
      ],
      "name": "revokeRole",
      "outputs": [],
      "stateMutability": "nonpayable",
      "type": "function"
    },
    {
      "inputs": [
        {
          "internalType": "address",
          "name": "from",
          "type": "address"
        },
        {
          "internalType": "address",
          "name": "to",
          "type": "address"
        },
        {
          "internalType": "uint256",
          "name": "tokenId",
          "type": "uint256"
        }
      ],
      "name": "safeTransferFrom",
      "outputs": [],
      "stateMutability": "nonpayable",
      "type": "function"
    },
    {
      "inputs": [
        {
          "internalType": "address",
          "name": "from",
          "type": "address"
        },
        {
          "internalType": "address",
          "name": "to",
          "type": "address"
        },
        {
          "internalType": "uint256",
          "name": "tokenId",
          "type": "uint256"
        },
        {
          "internalType": "bytes",
          "name": "_data",
          "type": "bytes"
        }
      ],
      "name": "safeTransferFrom",
      "outputs": [],
      "stateMutability": "nonpayable",
      "type": "function"
    },
    {
      "inputs": [
        {
          "internalType": "address",
          "name": "operator",
          "type": "address"
        },
        {
          "internalType": "bool",
          "name": "approved",
          "type": "bool"
        }
      ],
      "name": "setApprovalForAll",
      "outputs": [],
      "stateMutability": "nonpayable",
      "type": "function"
    },
    {
      "inputs": [
        {
          "internalType": "address",
          "name": "_addr",
          "type": "address"
        }
      ],
      "name": "setNewMinter",
      "outputs": [],
      "stateMutability": "nonpayable",
      "type": "function"
    },
    {
      "inputs": [
        {
          "internalType": "bytes4",
          "name": "interfaceId",
          "type": "bytes4"
        }
      ],
      "name": "supportsInterface",
      "outputs": [
        {
          "internalType": "bool",
          "name": "",
          "type": "bool"
        }
      ],
      "stateMutability": "view",
      "type": "function"
    },
    {
      "inputs": [],
      "name": "symbol",
      "outputs": [
        {
          "internalType": "string",
          "name": "",
          "type": "string"
        }
      ],
      "stateMutability": "view",
      "type": "function"
    },
    {
      "inputs": [
        {
          "internalType": "uint256",
          "name": "tokenId",
          "type": "uint256"
        }
      ],
      "name": "tokenURI",
      "outputs": [
        {
          "internalType": "string",
          "name": "",
          "type": "string"
        }
      ],
      "stateMutability": "view",
      "type": "function"
    },
    {
      "inputs": [
        {
          "internalType": "address",
          "name": "from",
          "type": "address"
        },
        {
          "internalType": "address",
          "name": "to",
          "type": "address"
        },
        {
          "internalType": "uint256",
          "name": "tokenId",
          "type": "uint256"
        }
      ],
      "name": "transferFrom",
      "outputs": [],
      "stateMutability": "nonpayable",
      "type": "function"
    },
    {
      "inputs": [
        {
          "internalType": "address",
          "name": "newOwner",
          "type": "address"
        }
      ],
      "name": "transferOwnership",
      "outputs": [],
      "stateMutability": "nonpayable",
      "type": "function"
    },
    {
      "inputs": [],
      "name": "withdraw",
      "outputs": [],
      "stateMutability": "nonpayable",
      "type": "function"
    }
  ],
  "bytecode": "0x6101406040523480156200001257600080fd5b506040518060400160405280600f81526020017f4c617a794e46542d566f756368657200000000000000000000000000000000008152506040518060400160405280600181526020017f31000000000000000000000000000000000000000000000000000000000000008152506040518060400160405280600781526020017f4c617a794e4654000000000000000000000000000000000000000000000000008152506040518060400160405280600381526020017f4c415a0000000000000000000000000000000000000000000000000000000000815250816000908051906020019062000103929190620005db565b5080600190805190602001906200011c929190620005db565b50505060008280519060200120905060008280519060200120905060007f8b73c3c69bb8fe3d512ecc4cf759cc79239f7b179b0ffacaa9a75d522b39400f90508260e081815250508161010081815250504660a08181525050620001888184846200024160201b60201c565b608081815250503073ffffffffffffffffffffffffffffffffffffffff1660c08173ffffffffffffffffffffffffffffffffffffffff1660601b815250508061012081815250505050505050620001f4620001e86200027d60201b60201c565b6200028560201b60201c565b620002267f9f2df0fed2c77648de5860a4cc508cd0818c85b8b8a1ab4ceeef8d981c8956a6336200034b60201b60201c565b6200023b6000801b336200034b60201b60201c565b620007c8565b600083838346306040516020016200025e959493929190620006be565b6040516020818303038152906040528051906020012090509392505050565b600033905090565b6000600760009054906101000a900473ffffffffffffffffffffffffffffffffffffffff16905081600760006101000a81548173ffffffffffffffffffffffffffffffffffffffff021916908373ffffffffffffffffffffffffffffffffffffffff1602179055508173ffffffffffffffffffffffffffffffffffffffff168173ffffffffffffffffffffffffffffffffffffffff167f8be0079c531659141344cd1fd0a4f28419497f9722a3daafe3b4186f6b6457e060405160405180910390a35050565b6200035d82826200036160201b60201c565b5050565b620003788282620003a960201b62001be81760201c565b620003a481600960008581526020019081526020016000206200049b60201b62001cc91790919060201c565b505050565b620003bb8282620004d360201b60201c565b620004975760016008600084815260200190815260200160002060000160008373ffffffffffffffffffffffffffffffffffffffff1673ffffffffffffffffffffffffffffffffffffffff16815260200190815260200160002060006101000a81548160ff0219169083151502179055506200043c6200027d60201b60201c565b73ffffffffffffffffffffffffffffffffffffffff168173ffffffffffffffffffffffffffffffffffffffff16837f2f8788117e7eff1d82e926ec794901d17c78024a50270940304540a733656f0d60405160405180910390a45b5050565b6000620004cb836000018373ffffffffffffffffffffffffffffffffffffffff1660001b6200053e60201b60201c565b905092915050565b60006008600084815260200190815260200160002060000160008373ffffffffffffffffffffffffffffffffffffffff1673ffffffffffffffffffffffffffffffffffffffff16815260200190815260200160002060009054906101000a900460ff16905092915050565b6000620005528383620005b860201b60201c565b620005ad578260000182908060018154018082558091505060019003906000526020600020016000909190919091505582600001805490508360010160008481526020019081526020016000208190555060019050620005b2565b600090505b92915050565b600080836001016000848152602001908152602001600020541415905092915050565b828054620005e99062000763565b90600052602060002090601f0160209004810192826200060d576000855562000659565b82601f106200062857805160ff191683800117855562000659565b8280016001018555821562000659579182015b82811115620006585782518255916020019190600101906200063b565b5b5090506200066891906200066c565b5090565b5b80821115620006875760008160009055506001016200066d565b5090565b62000696816200071b565b82525050565b620006a7816200072f565b82525050565b620006b88162000759565b82525050565b600060a082019050620006d560008301886200069c565b620006e460208301876200069c565b620006f360408301866200069c565b620007026060830185620006ad565b6200071160808301846200068b565b9695505050505050565b6000620007288262000739565b9050919050565b6000819050919050565b600073ffffffffffffffffffffffffffffffffffffffff82169050919050565b6000819050919050565b600060028204905060018216806200077c57607f821691505b6020821081141562000793576200079262000799565b5b50919050565b7f4e487b7100000000000000000000000000000000000000000000000000000000600052602260045260246000fd5b60805160a05160c05160601c60e0516101005161012051615be86200081b6000396000613a6501526000613aa701526000613a86015260006139bb01526000613a1101526000613a3a0152615be86000f3fe6080604052600436106101e35760003560e01c80637197de7c11610102578063c87b56dd11610095578063e322ad2b11610064578063e322ad2b14610714578063e985e9c51461073f578063f045de2e1461077c578063f2fde38b146107ac576101e3565b8063c87b56dd14610646578063ca15c87314610683578063d5391393146106c0578063d547741f146106eb576101e3565b806395d89b41116100d157806395d89b411461059e578063a217fddf146105c9578063a22cb465146105f4578063b88d4fde1461061d576101e3565b80637197de7c146104bc5780638da5cb5b146104f95780639010d07c1461052457806391d1485414610561576101e3565b806336568abe1161017a57806348af6b151161014957806348af6b15146104025780636352211e1461042b57806370a0823114610468578063715018a6146104a5576101e3565b806336568abe1461036e57806338cc4831146103975780633ccfd60b146103c257806342842e0e146103d9576101e3565b806323b872dd116101b657806323b872dd146102b6578063248a9ca3146102df5780632f2ff15d1461031c5780633092afd514610345576101e3565b806301ffc9a7146101e857806306fdde0314610225578063081812fc14610250578063095ea7b31461028d575b600080fd5b3480156101f457600080fd5b5061020f600480360381019061020a9190614104565b6107d5565b60405161021c91906149b3565b60405180910390f35b34801561023157600080fd5b5061023a6107f7565b6040516102479190614ad4565b60405180910390f35b34801561025c57600080fd5b5061027760048036038101906102729190614156565b610889565b604051610284919061492a565b60405180910390f35b34801561029957600080fd5b506102b460048036038101906102af9190614027565b61090e565b005b3480156102c257600080fd5b506102dd60048036038101906102d89190613ea2565b610a26565b005b3480156102eb57600080fd5b5061030660048036038101906103019190614063565b610a86565b60405161031391906149ce565b60405180910390f35b34801561032857600080fd5b50610343600480360381019061033e919061408c565b610aa6565b005b34801561035157600080fd5b5061036c60048036038101906103679190613e3d565b610acf565b005b34801561037a57600080fd5b506103956004803603810190610390919061408c565b610b78565b005b3480156103a357600080fd5b506103ac610bfb565b6040516103b9919061492a565b60405180910390f35b3480156103ce57600080fd5b506103d7610c03565b005b3480156103e557600080fd5b5061040060048036038101906103fb9190613ea2565b610d45565b005b34801561040e57600080fd5b5061042960048036038101906104249190613e3d565b610d65565b005b34801561043757600080fd5b50610452600480360381019061044d9190614156565b610e0e565b60405161045f919061492a565b60405180910390f35b34801561047457600080fd5b5061048f600480360381019061048a9190613e3d565b610ec0565b60405161049c9190614e56565b60405180910390f35b3480156104b157600080fd5b506104ba610f78565b005b3480156104c857600080fd5b506104e360048036038101906104de9190613e3d565b611000565b6040516104f09190614991565b60405180910390f35b34801561050557600080fd5b5061050e61128b565b60405161051b919061492a565b60405180910390f35b34801561053057600080fd5b5061054b600480360381019061054691906140c8565b6112b5565b604051610558919061492a565b60405180910390f35b34801561056d57600080fd5b506105886004803603810190610583919061408c565b6112e4565b60405161059591906149b3565b60405180910390f35b3480156105aa57600080fd5b506105b361134f565b6040516105c09190614ad4565b60405180910390f35b3480156105d557600080fd5b506105de6113e1565b6040516105eb91906149ce565b60405180910390f35b34801561060057600080fd5b5061061b60048036038101906106169190613f6c565b6113e8565b005b34801561062957600080fd5b50610644600480360381019061063f9190613ef1565b6113fe565b005b34801561065257600080fd5b5061066d60048036038101906106689190614156565b611460565b60405161067a9190614ad4565b60405180910390f35b34801561068f57600080fd5b506106aa60048036038101906106a59190614063565b6115b2565b6040516106b79190614e56565b60405180910390f35b3480156106cc57600080fd5b506106d56115d6565b6040516106e291906149ce565b60405180910390f35b3480156106f757600080fd5b50610712600480360381019061070d919061408c565b6115fa565b005b34801561072057600080fd5b50610729611623565b6040516107369190614e56565b60405180910390f35b34801561074b57600080fd5b5061076660048036038101906107619190613e66565b61166a565b60405161077391906149b3565b60405180910390f35b61079660048036038101906107919190613fa8565b6116fe565b6040516107a39190614e56565b60405180910390f35b3480156107b857600080fd5b506107d360048036038101906107ce9190613e3d565b611af0565b005b60006107e082611cf9565b806107f057506107ef82611ddb565b5b9050919050565b606060008054610806906151c2565b80601f0160208091040260200160405190810160405280929190818152602001828054610832906151c2565b801561087f5780601f106108545761010080835404028352916020019161087f565b820191906000526020600020905b81548152906001019060200180831161086257829003601f168201915b5050505050905090565b600061089482611e55565b6108d3576040517f08c379a00000000000000000000000000000000000000000000000000000000081526004016108ca90614d36565b60405180910390fd5b6004600083815260200190815260200160002060009054906101000a900473ffffffffffffffffffffffffffffffffffffffff169050919050565b600061091982610e0e565b90508073ffffffffffffffffffffffffffffffffffffffff168373ffffffffffffffffffffffffffffffffffffffff16141561098a576040517f08c379a000000000000000000000000000000000000000000000000000000000815260040161098190614dd6565b60405180910390fd5b8073ffffffffffffffffffffffffffffffffffffffff166109a9611ec1565b73ffffffffffffffffffffffffffffffffffffffff1614806109d857506109d7816109d2611ec1565b61166a565b5b610a17576040517f08c379a0000000000000000000000000000000000000000000000000000000008152600401610a0e90614c36565b60405180910390fd5b610a218383611ec9565b505050565b610a37610a31611ec1565b82611f82565b610a76576040517f08c379a0000000000000000000000000000000000000000000000000000000008152600401610a6d90614e16565b60405180910390fd5b610a81838383612060565b505050565b600060086000838152602001908152602001600020600101549050919050565b610aaf82610a86565b610ac081610abb611ec1565b6122bc565b610aca8383612359565b505050565b610ad7611ec1565b73ffffffffffffffffffffffffffffffffffffffff16610af561128b565b73ffffffffffffffffffffffffffffffffffffffff1614610b4b576040517f08c379a0000000000000000000000000000000000000000000000000000000008152600401610b4290614d56565b60405180910390fd5b610b757f9f2df0fed2c77648de5860a4cc508cd0818c85b8b8a1ab4ceeef8d981c8956a6826115fa565b50565b610b80611ec1565b73ffffffffffffffffffffffffffffffffffffffff168173ffffffffffffffffffffffffffffffffffffffff1614610bed576040517f08c379a0000000000000000000000000000000000000000000000000000000008152600401610be490614e36565b60405180910390fd5b610bf7828261238d565b5050565b600030905090565b610c2d7f9f2df0fed2c77648de5860a4cc508cd0818c85b8b8a1ab4ceeef8d981c8956a6336112e4565b610c6c576040517f08c379a0000000000000000000000000000000000000000000000000000000008152600401610c6390614db6565b60405180910390fd5b60003390506000600b60008373ffffffffffffffffffffffffffffffffffffffff1673ffffffffffffffffffffffffffffffffffffffff1681526020019081526020016000205490506000600b60008473ffffffffffffffffffffffffffffffffffffffff1673ffffffffffffffffffffffffffffffffffffffff168152602001908152602001600020819055508173ffffffffffffffffffffffffffffffffffffffff166108fc829081150290604051600060405180830381858888f19350505050158015610d40573d6000803e3d6000fd5b505050565b610d60838383604051806020016040528060008152506113fe565b505050565b610d6d611ec1565b73ffffffffffffffffffffffffffffffffffffffff16610d8b61128b565b73ffffffffffffffffffffffffffffffffffffffff1614610de1576040517f08c379a0000000000000000000000000000000000000000000000000000000008152600401610dd890614d56565b60405180910390fd5b610e0b7f9f2df0fed2c77648de5860a4cc508cd0818c85b8b8a1ab4ceeef8d981c8956a682610aa6565b50565b6000806002600084815260200190815260200160002060009054906101000a900473ffffffffffffffffffffffffffffffffffffffff169050600073ffffffffffffffffffffffffffffffffffffffff168173ffffffffffffffffffffffffffffffffffffffff161415610eb7576040517f08c379a0000000000000000000000000000000000000000000000000000000008152600401610eae90614c76565b60405180910390fd5b80915050919050565b60008073ffffffffffffffffffffffffffffffffffffffff168273ffffffffffffffffffffffffffffffffffffffff161415610f31576040517f08c379a0000000000000000000000000000000000000000000000000000000008152600401610f2890614c56565b60405180910390fd5b600360008373ffffffffffffffffffffffffffffffffffffffff1673ffffffffffffffffffffffffffffffffffffffff168152602001908152602001600020549050919050565b610f80611ec1565b73ffffffffffffffffffffffffffffffffffffffff16610f9e61128b565b73ffffffffffffffffffffffffffffffffffffffff1614610ff4576040517f08c379a0000000000000000000000000000000000000000000000000000000008152600401610feb90614d56565b60405180910390fd5b610ffe60006123c1565b565b606061100b82612487565b600c60008373ffffffffffffffffffffffffffffffffffffffff1673ffffffffffffffffffffffffffffffffffffffff168152602001908152602001600020805480602002602001604051908101604052809291908181526020016000905b8282101561128057838290600052602060002090600602016040518060c0016040529081600082015481526020016001820160009054906101000a900473ffffffffffffffffffffffffffffffffffffffff1673ffffffffffffffffffffffffffffffffffffffff1673ffffffffffffffffffffffffffffffffffffffff1681526020016002820160009054906101000a900473ffffffffffffffffffffffffffffffffffffffff1673ffffffffffffffffffffffffffffffffffffffff1673ffffffffffffffffffffffffffffffffffffffff1681526020016003820154815260200160048201805461115d906151c2565b80601f0160208091040260200160405190810160405280929190818152602001828054611189906151c2565b80156111d65780601f106111ab576101008083540402835291602001916111d6565b820191906000526020600020905b8154815290600101906020018083116111b957829003601f168201915b505050505081526020016005820180546111ef906151c2565b80601f016020809104026020016040519081016040528092919081815260200182805461121b906151c2565b80156112685780601f1061123d57610100808354040283529160200191611268565b820191906000526020600020905b81548152906001019060200180831161124b57829003601f168201915b5050505050815250508152602001906001019061106a565b505050509050919050565b6000600760009054906101000a900473ffffffffffffffffffffffffffffffffffffffff16905090565b60006112dc826009600086815260200190815260200160002061252090919063ffffffff16565b905092915050565b60006008600084815260200190815260200160002060000160008373ffffffffffffffffffffffffffffffffffffffff1673ffffffffffffffffffffffffffffffffffffffff16815260200190815260200160002060009054906101000a900460ff16905092915050565b60606001805461135e906151c2565b80601f016020809104026020016040519081016040528092919081815260200182805461138a906151c2565b80156113d75780601f106113ac576101008083540402835291602001916113d7565b820191906000526020600020905b8154815290600101906020018083116113ba57829003601f168201915b5050505050905090565b6000801b81565b6113fa6113f3611ec1565b838361253a565b5050565b61140f611409611ec1565b83611f82565b61144e576040517f08c379a000000000000000000000000000000000000000000000000000000000815260040161144590614e16565b60405180910390fd5b61145a848484846126a7565b50505050565b606061146b82611e55565b6114aa576040517f08c379a00000000000000000000000000000000000000000000000000000000081526004016114a190614d16565b60405180910390fd5b60006006600084815260200190815260200160002080546114ca906151c2565b80601f01602080910402602001604051908101604052809291908181526020018280546114f6906151c2565b80156115435780601f1061151857610100808354040283529160200191611543565b820191906000526020600020905b81548152906001019060200180831161152657829003601f168201915b505050505090506000611554612703565b905060008151141561156a5781925050506115ad565b60008251111561159f57808260405160200161158792919061486f565b604051602081830303815290604052925050506115ad565b6115a88461271a565b925050505b919050565b60006115cf600960008481526020019081526020016000206127c1565b9050919050565b7f9f2df0fed2c77648de5860a4cc508cd0818c85b8b8a1ab4ceeef8d981c8956a681565b61160382610a86565b6116148161160f611ec1565b6122bc565b61161e838361238d565b505050565b6000600b60003373ffffffffffffffffffffffffffffffffffffffff1673ffffffffffffffffffffffffffffffffffffffff16815260200190815260200160002054905090565b6000600560008473ffffffffffffffffffffffffffffffffffffffff1673ffffffffffffffffffffffffffffffffffffffff16815260200190815260200160002060008373ffffffffffffffffffffffffffffffffffffffff1673ffffffffffffffffffffffffffffffffffffffff16815260200190815260200160002060009054906101000a900460ff16905092915050565b60008061170b84846127d6565b90506117377f9f2df0fed2c77648de5860a4cc508cd0818c85b8b8a1ab4ceeef8d981c8956a6826112e4565b611776576040517f08c379a000000000000000000000000000000000000000000000000000000000815260040161176d90614df6565b60405180910390fd5b83602001353410156117bd576040517f08c379a00000000000000000000000000000000000000000000000000000000081526004016117b490614cd6565b60405180910390fd5b6117cb818560000135612808565b61182b84600001358580604001906117e39190614e71565b8080601f016020809104026020016040519081016040528093929190818152602001838380828437600081840152601f19601f820116905080830192505050505050506129d6565b60006040518060c00160405280866000013581526020018773ffffffffffffffffffffffffffffffffffffffff1681526020018373ffffffffffffffffffffffffffffffffffffffff168152602001866020013581526020018680604001906118949190614e71565b8080601f016020809104026020016040519081016040528093929190818152602001838380828437600081840152601f19601f8201169050808301925050505050505081526020018680606001906118ec9190614e71565b8080601f016020809104026020016040519081016040528093929190818152602001838380828437600081840152601f19601f820116905080830192505050505050508152509050600c60008773ffffffffffffffffffffffffffffffffffffffff1673ffffffffffffffffffffffffffffffffffffffff1681526020019081526020016000208190806001815401808255809150506001900390600052602060002090600602016000909190919091506000820151816000015560208201518160010160006101000a81548173ffffffffffffffffffffffffffffffffffffffff021916908373ffffffffffffffffffffffffffffffffffffffff16021790555060408201518160020160006101000a81548173ffffffffffffffffffffffffffffffffffffffff021916908373ffffffffffffffffffffffffffffffffffffffff160217905550606082015181600301556080820151816004019080519060200190611a5b929190613c99565b5060a0820151816005019080519060200190611a78929190613c99565b505050611a8a82878760000135612060565b34600b60008473ffffffffffffffffffffffffffffffffffffffff1673ffffffffffffffffffffffffffffffffffffffff1681526020019081526020016000206000828254611ad99190614fb6565b925050819055508460000135925050509392505050565b611af8611ec1565b73ffffffffffffffffffffffffffffffffffffffff16611b1661128b565b73ffffffffffffffffffffffffffffffffffffffff1614611b6c576040517f08c379a0000000000000000000000000000000000000000000000000000000008152600401611b6390614d56565b60405180910390fd5b600073ffffffffffffffffffffffffffffffffffffffff168173ffffffffffffffffffffffffffffffffffffffff161415611bdc576040517f08c379a0000000000000000000000000000000000000000000000000000000008152600401611bd390614b76565b60405180910390fd5b611be5816123c1565b50565b611bf282826112e4565b611cc55760016008600084815260200190815260200160002060000160008373ffffffffffffffffffffffffffffffffffffffff1673ffffffffffffffffffffffffffffffffffffffff16815260200190815260200160002060006101000a81548160ff021916908315150217905550611c6a611ec1565b73ffffffffffffffffffffffffffffffffffffffff168173ffffffffffffffffffffffffffffffffffffffff16837f2f8788117e7eff1d82e926ec794901d17c78024a50270940304540a733656f0d60405160405180910390a45b5050565b6000611cf1836000018373ffffffffffffffffffffffffffffffffffffffff1660001b612a4a565b905092915050565b60007f80ac58cd000000000000000000000000000000000000000000000000000000007bffffffffffffffffffffffffffffffffffffffffffffffffffffffff1916827bffffffffffffffffffffffffffffffffffffffffffffffffffffffff19161480611dc457507f5b5e139f000000000000000000000000000000000000000000000000000000007bffffffffffffffffffffffffffffffffffffffffffffffffffffffff1916827bffffffffffffffffffffffffffffffffffffffffffffffffffffffff1916145b80611dd45750611dd382612aba565b5b9050919050565b60007f7965db0b000000000000000000000000000000000000000000000000000000007bffffffffffffffffffffffffffffffffffffffffffffffffffffffff1916827bffffffffffffffffffffffffffffffffffffffffffffffffffffffff19161480611e4e5750611e4d82611cf9565b5b9050919050565b60008073ffffffffffffffffffffffffffffffffffffffff166002600084815260200190815260200160002060009054906101000a900473ffffffffffffffffffffffffffffffffffffffff1673ffffffffffffffffffffffffffffffffffffffff1614159050919050565b600033905090565b816004600083815260200190815260200160002060006101000a81548173ffffffffffffffffffffffffffffffffffffffff021916908373ffffffffffffffffffffffffffffffffffffffff160217905550808273ffffffffffffffffffffffffffffffffffffffff16611f3c83610e0e565b73ffffffffffffffffffffffffffffffffffffffff167f8c5be1e5ebec7d5bd14f71427d1e84f3dd0314c0f7b2291e5b200ac8c7c3b92560405160405180910390a45050565b6000611f8d82611e55565b611fcc576040517f08c379a0000000000000000000000000000000000000000000000000000000008152600401611fc390614c16565b60405180910390fd5b6000611fd783610e0e565b90508073ffffffffffffffffffffffffffffffffffffffff168473ffffffffffffffffffffffffffffffffffffffff16148061204657508373ffffffffffffffffffffffffffffffffffffffff1661202e84610889565b73ffffffffffffffffffffffffffffffffffffffff16145b806120575750612056818561166a565b5b91505092915050565b8273ffffffffffffffffffffffffffffffffffffffff1661208082610e0e565b73ffffffffffffffffffffffffffffffffffffffff16146120d6576040517f08c379a00000000000000000000000000000000000000000000000000000000081526004016120cd90614d76565b60405180910390fd5b600073ffffffffffffffffffffffffffffffffffffffff168273ffffffffffffffffffffffffffffffffffffffff161415612146576040517f08c379a000000000000000000000000000000000000000000000000000000000815260040161213d90614bb6565b60405180910390fd5b612151838383612b24565b61215c600082611ec9565b6001600360008573ffffffffffffffffffffffffffffffffffffffff1673ffffffffffffffffffffffffffffffffffffffff16815260200190815260200160002060008282546121ac9190615097565b925050819055506001600360008473ffffffffffffffffffffffffffffffffffffffff1673ffffffffffffffffffffffffffffffffffffffff16815260200190815260200160002060008282546122039190614fb6565b92505081905550816002600083815260200190815260200160002060006101000a81548173ffffffffffffffffffffffffffffffffffffffff021916908373ffffffffffffffffffffffffffffffffffffffff160217905550808273ffffffffffffffffffffffffffffffffffffffff168473ffffffffffffffffffffffffffffffffffffffff167fddf252ad1be2c89b69c2b068fc378daa952ba7f163c4a11628f55a4df523b3ef60405160405180910390a4505050565b6122c682826112e4565b612355576122eb8173ffffffffffffffffffffffffffffffffffffffff166014612b29565b6122f98360001c6020612b29565b60405160200161230a9291906148f0565b6040516020818303038152906040526040517f08c379a000000000000000000000000000000000000000000000000000000000815260040161234c9190614ad4565b60405180910390fd5b5050565b6123638282611be8565b6123888160096000858152602001908152602001600020611cc990919063ffffffff16565b505050565b6123978282612e23565b6123bc8160096000858152602001908152602001600020612f0590919063ffffffff16565b505050565b6000600760009054906101000a900473ffffffffffffffffffffffffffffffffffffffff16905081600760006101000a81548173ffffffffffffffffffffffffffffffffffffffff021916908373ffffffffffffffffffffffffffffffffffffffff1602179055508173ffffffffffffffffffffffffffffffffffffffff168173ffffffffffffffffffffffffffffffffffffffff167f8be0079c531659141344cd1fd0a4f28419497f9722a3daafe3b4186f6b6457e060405160405180910390a35050565b61251d8160405160240161249b919061492a565b6040516020818303038152906040527f2c2ecbc2000000000000000000000000000000000000000000000000000000007bffffffffffffffffffffffffffffffffffffffffffffffffffffffff19166020820180517bffffffffffffffffffffffffffffffffffffffffffffffffffffffff8381831617835250505050612f35565b50565b600061252f8360000183612f5e565b60001c905092915050565b8173ffffffffffffffffffffffffffffffffffffffff168373ffffffffffffffffffffffffffffffffffffffff1614156125a9576040517f08c379a00000000000000000000000000000000000000000000000000000000081526004016125a090614bd6565b60405180910390fd5b80600560008573ffffffffffffffffffffffffffffffffffffffff1673ffffffffffffffffffffffffffffffffffffffff16815260200190815260200160002060008473ffffffffffffffffffffffffffffffffffffffff1673ffffffffffffffffffffffffffffffffffffffff16815260200190815260200160002060006101000a81548160ff0219169083151502179055508173ffffffffffffffffffffffffffffffffffffffff168373ffffffffffffffffffffffffffffffffffffffff167f17307eab39ab6107e8899845ad3d59bd9653f200f220920489ca2b5937696c318360405161269a91906149b3565b60405180910390a3505050565b6126b2848484612060565b6126be84848484612faf565b6126fd576040517f08c379a00000000000000000000000000000000000000000000000000000000081526004016126f490614b56565b60405180910390fd5b50505050565b606060405180602001604052806000815250905090565b606061272582611e55565b612764576040517f08c379a000000000000000000000000000000000000000000000000000000000815260040161275b90614d96565b60405180910390fd5b600061276e612703565b9050600081511161278e57604051806020016040528060008152506127b9565b8061279884613146565b6040516020016127a992919061486f565b6040516020818303038152906040525b915050919050565b60006127cf826000016132f3565b9050919050565b6000806127e284613304565b90506127ff836127f1836133b6565b6133e690919063ffffffff16565b91505092915050565b600073ffffffffffffffffffffffffffffffffffffffff168273ffffffffffffffffffffffffffffffffffffffff161415612878576040517f08c379a000000000000000000000000000000000000000000000000000000000815260040161286f90614cf6565b60405180910390fd5b61288181611e55565b156128c1576040517f08c379a00000000000000000000000000000000000000000000000000000000081526004016128b890614b96565b60405180910390fd5b6128cd60008383612b24565b6001600360008473ffffffffffffffffffffffffffffffffffffffff1673ffffffffffffffffffffffffffffffffffffffff168152602001908152602001600020600082825461291d9190614fb6565b92505081905550816002600083815260200190815260200160002060006101000a81548173ffffffffffffffffffffffffffffffffffffffff021916908373ffffffffffffffffffffffffffffffffffffffff160217905550808273ffffffffffffffffffffffffffffffffffffffff16600073ffffffffffffffffffffffffffffffffffffffff167fddf252ad1be2c89b69c2b068fc378daa952ba7f163c4a11628f55a4df523b3ef60405160405180910390a45050565b6129df82611e55565b612a1e576040517f08c379a0000000000000000000000000000000000000000000000000000000008152600401612a1590614c96565b60405180910390fd5b80600660008481526020019081526020016000209080519060200190612a45929190613c99565b505050565b6000612a56838361340d565b612aaf578260000182908060018154018082558091505060019003906000526020600020016000909190919091505582600001805490508360010160008481526020019081526020016000208190555060019050612ab4565b600090505b92915050565b60007f01ffc9a7000000000000000000000000000000000000000000000000000000007bffffffffffffffffffffffffffffffffffffffffffffffffffffffff1916827bffffffffffffffffffffffffffffffffffffffffffffffffffffffff1916149050919050565b505050565b606060006002836002612b3c919061503d565b612b469190614fb6565b67ffffffffffffffff811115612b85577f4e487b7100000000000000000000000000000000000000000000000000000000600052604160045260246000fd5b6040519080825280601f01601f191660200182016040528015612bb75781602001600182028036833780820191505090505b5090507f300000000000000000000000000000000000000000000000000000000000000081600081518110612c15577f4e487b7100000000000000000000000000000000000000000000000000000000600052603260045260246000fd5b60200101907effffffffffffffffffffffffffffffffffffffffffffffffffffffffffffff1916908160001a9053507f780000000000000000000000000000000000000000000000000000000000000081600181518110612c9f577f4e487b7100000000000000000000000000000000000000000000000000000000600052603260045260246000fd5b60200101907effffffffffffffffffffffffffffffffffffffffffffffffffffffffffffff1916908160001a90535060006001846002612cdf919061503d565b612ce99190614fb6565b90505b6001811115612dd5577f3031323334353637383961626364656600000000000000000000000000000000600f861660108110612d51577f4e487b7100000000000000000000000000000000000000000000000000000000600052603260045260246000fd5b1a60f81b828281518110612d8e577f4e487b7100000000000000000000000000000000000000000000000000000000600052603260045260246000fd5b60200101907effffffffffffffffffffffffffffffffffffffffffffffffffffffffffffff1916908160001a905350600485901c945080612dce90615198565b9050612cec565b5060008414612e19576040517f08c379a0000000000000000000000000000000000000000000000000000000008152600401612e1090614b16565b60405180910390fd5b8091505092915050565b612e2d82826112e4565b15612f015760006008600084815260200190815260200160002060000160008373ffffffffffffffffffffffffffffffffffffffff1673ffffffffffffffffffffffffffffffffffffffff16815260200190815260200160002060006101000a81548160ff021916908315150217905550612ea6611ec1565b73ffffffffffffffffffffffffffffffffffffffff168173ffffffffffffffffffffffffffffffffffffffff16837ff6391f5c32d9c69d2a47ea670b442974b53935d1edc7fd64eb21e047a839171b60405160405180910390a45b5050565b6000612f2d836000018373ffffffffffffffffffffffffffffffffffffffff1660001b613430565b905092915050565b60008151905060006a636f6e736f6c652e6c6f679050602083016000808483855afa5050505050565b6000826000018281548110612f9c577f4e487b7100000000000000000000000000000000000000000000000000000000600052603260045260246000fd5b9060005260206000200154905092915050565b6000612fd08473ffffffffffffffffffffffffffffffffffffffff166135b6565b15613139578373ffffffffffffffffffffffffffffffffffffffff1663150b7a02612ff9611ec1565b8786866040518563ffffffff1660e01b815260040161301b9493929190614945565b602060405180830381600087803b15801561303557600080fd5b505af192505050801561306657506040513d601f19601f82011682018060405250810190613063919061412d565b60015b6130e9573d8060008114613096576040519150601f19603f3d011682016040523d82523d6000602084013e61309b565b606091505b506000815114156130e1576040517f08c379a00000000000000000000000000000000000000000000000000000000081526004016130d890614b56565b60405180910390fd5b805181602001fd5b63150b7a0260e01b7bffffffffffffffffffffffffffffffffffffffffffffffffffffffff1916817bffffffffffffffffffffffffffffffffffffffffffffffffffffffff19161491505061313e565b600190505b949350505050565b6060600082141561318e576040518060400160405280600181526020017f300000000000000000000000000000000000000000000000000000000000000081525090506132ee565b600082905060005b600082146131c05780806131a990615225565b915050600a826131b9919061500c565b9150613196565b60008167ffffffffffffffff811115613202577f4e487b7100000000000000000000000000000000000000000000000000000000600052604160045260246000fd5b6040519080825280601f01601f1916602001820160405280156132345781602001600182028036833780820191505090505b5090505b600085146132e75760018261324d9190615097565b9150600a8561325c9190615278565b60306132689190614fb6565b60f81b8183815181106132a4577f4e487b7100000000000000000000000000000000000000000000000000000000600052603260045260246000fd5b60200101907effffffffffffffffffffffffffffffffffffffffffffffffffffffffffffff1916908160001a905350600a856132e0919061500c565b9450613238565b8093505050505b919050565b600081600001805490509050919050565b60006133af7f2610be69d7e986e75c2b7515aee267e6e34ecf9855631848cd65c06efd75c78b836000013584602001358580604001906133449190614e71565b604051613352929190614856565b604051809103902086806060019061336a9190614e71565b604051613378929190614856565b6040518091039020604051602001613394959493929190614a3c565b604051602081830303815290604052805190602001206135c9565b9050919050565b6000816040516020016133c99190614893565b604051602081830303815290604052805190602001209050919050565b60008060006133f585856135e3565b9150915061340281613666565b819250505092915050565b600080836001016000848152602001908152602001600020541415905092915050565b600080836001016000848152602001908152602001600020549050600081146135aa5760006001826134629190615097565b905060006001866000018054905061347a9190615097565b90508181146135355760008660000182815481106134c1577f4e487b7100000000000000000000000000000000000000000000000000000000600052603260045260246000fd5b906000526020600020015490508087600001848154811061350b577f4e487b7100000000000000000000000000000000000000000000000000000000600052603260045260246000fd5b90600052602060002001819055508387600101600083815260200190815260200160002081905550505b8560000180548061356f577f4e487b7100000000000000000000000000000000000000000000000000000000600052603160045260246000fd5b6001900381819060005260206000200160009055905585600101600086815260200190815260200160002060009055600193505050506135b0565b60009150505b92915050565b600080823b905060008111915050919050565b60006135dc6135d66139b7565b83613ad1565b9050919050565b6000806041835114156136255760008060006020860151925060408601519150606086015160001a905061361987828585613b04565b9450945050505061365f565b60408351141561365657600080602085015191506040850151905061364b868383613c11565b93509350505061365f565b60006002915091505b9250929050565b600060048111156136a0577f4e487b7100000000000000000000000000000000000000000000000000000000600052602160045260246000fd5b8160048111156136d9577f4e487b7100000000000000000000000000000000000000000000000000000000600052602160045260246000fd5b14156136e4576139b4565b6001600481111561371e577f4e487b7100000000000000000000000000000000000000000000000000000000600052602160045260246000fd5b816004811115613757577f4e487b7100000000000000000000000000000000000000000000000000000000600052602160045260246000fd5b1415613798576040517f08c379a000000000000000000000000000000000000000000000000000000000815260040161378f90614af6565b60405180910390fd5b600260048111156137d2577f4e487b7100000000000000000000000000000000000000000000000000000000600052602160045260246000fd5b81600481111561380b577f4e487b7100000000000000000000000000000000000000000000000000000000600052602160045260246000fd5b141561384c576040517f08c379a000000000000000000000000000000000000000000000000000000000815260040161384390614b36565b60405180910390fd5b60036004811115613886577f4e487b7100000000000000000000000000000000000000000000000000000000600052602160045260246000fd5b8160048111156138bf577f4e487b7100000000000000000000000000000000000000000000000000000000600052602160045260246000fd5b1415613900576040517f08c379a00000000000000000000000000000000000000000000000000000000081526004016138f790614bf6565b60405180910390fd5b600480811115613939577f4e487b7100000000000000000000000000000000000000000000000000000000600052602160045260246000fd5b816004811115613972577f4e487b7100000000000000000000000000000000000000000000000000000000600052602160045260246000fd5b14156139b3576040517f08c379a00000000000000000000000000000000000000000000000000000000081526004016139aa90614cb6565b60405180910390fd5b5b50565b60007f000000000000000000000000000000000000000000000000000000000000000073ffffffffffffffffffffffffffffffffffffffff163073ffffffffffffffffffffffffffffffffffffffff16148015613a3357507f000000000000000000000000000000000000000000000000000000000000000046145b15613a60577f00000000000000000000000000000000000000000000000000000000000000009050613ace565b613acb7f00000000000000000000000000000000000000000000000000000000000000007f00000000000000000000000000000000000000000000000000000000000000007f0000000000000000000000000000000000000000000000000000000000000000613c5f565b90505b90565b60008282604051602001613ae69291906148b9565b60405160208183030381529060405280519060200120905092915050565b6000807f7fffffffffffffffffffffffffffffff5d576e7357a4501ddfe92f46681b20a08360001c1115613b3f576000600391509150613c08565b601b8560ff1614158015613b575750601c8560ff1614155b15613b69576000600491509150613c08565b600060018787878760405160008152602001604052604051613b8e9493929190614a8f565b6020604051602081039080840390855afa158015613bb0573d6000803e3d6000fd5b505050602060405103519050600073ffffffffffffffffffffffffffffffffffffffff168173ffffffffffffffffffffffffffffffffffffffff161415613bff57600060019250925050613c08565b80600092509250505b94509492505050565b6000806000807f7fffffffffffffffffffffffffffffffffffffffffffffffffffffffffffffff85169150601b8560ff1c019050613c5187828885613b04565b935093505050935093915050565b60008383834630604051602001613c7a9594939291906149e9565b6040516020818303038152906040528051906020012090509392505050565b828054613ca5906151c2565b90600052602060002090601f016020900481019282613cc75760008555613d0e565b82601f10613ce057805160ff1916838001178555613d0e565b82800160010185558215613d0e579182015b82811115613d0d578251825591602001919060010190613cf2565b5b509050613d1b9190613d1f565b5090565b5b80821115613d38576000816000905550600101613d20565b5090565b6000613d4f613d4a84614eed565b614ec8565b905082815260208101848484011115613d6757600080fd5b613d72848285615156565b509392505050565b600081359050613d8981615b3f565b92915050565b600081359050613d9e81615b56565b92915050565b600081359050613db381615b6d565b92915050565b600081359050613dc881615b84565b92915050565b600081519050613ddd81615b84565b92915050565b600082601f830112613df457600080fd5b8135613e04848260208601613d3c565b91505092915050565b600060808284031215613e1f57600080fd5b81905092915050565b600081359050613e3781615b9b565b92915050565b600060208284031215613e4f57600080fd5b6000613e5d84828501613d7a565b91505092915050565b60008060408385031215613e7957600080fd5b6000613e8785828601613d7a565b9250506020613e9885828601613d7a565b9150509250929050565b600080600060608486031215613eb757600080fd5b6000613ec586828701613d7a565b9350506020613ed686828701613d7a565b9250506040613ee786828701613e28565b9150509250925092565b60008060008060808587031215613f0757600080fd5b6000613f1587828801613d7a565b9450506020613f2687828801613d7a565b9350506040613f3787828801613e28565b925050606085013567ffffffffffffffff811115613f5457600080fd5b613f6087828801613de3565b91505092959194509250565b60008060408385031215613f7f57600080fd5b6000613f8d85828601613d7a565b9250506020613f9e85828601613d8f565b9150509250929050565b600080600060608486031215613fbd57600080fd5b6000613fcb86828701613d7a565b935050602084013567ffffffffffffffff811115613fe857600080fd5b613ff486828701613e0d565b925050604084013567ffffffffffffffff81111561401157600080fd5b61401d86828701613de3565b9150509250925092565b6000806040838503121561403a57600080fd5b600061404885828601613d7a565b925050602061405985828601613e28565b9150509250929050565b60006020828403121561407557600080fd5b600061408384828501613da4565b91505092915050565b6000806040838503121561409f57600080fd5b60006140ad85828601613da4565b92505060206140be85828601613d7a565b9150509250929050565b600080604083850312156140db57600080fd5b60006140e985828601613da4565b92505060206140fa85828601613e28565b9150509250929050565b60006020828403121561411657600080fd5b600061412484828501613db9565b91505092915050565b60006020828403121561413f57600080fd5b600061414d84828501613dce565b91505092915050565b60006020828403121561416857600080fd5b600061417684828501613e28565b91505092915050565b600061418b8383614799565b905092915050565b61419c816150cb565b82525050565b6141ab816150cb565b82525050565b60006141bc82614f2e565b6141c68185614f5c565b9350836020820285016141d885614f1e565b8060005b8581101561421457848403895281516141f5858261417f565b945061420083614f4f565b925060208a019950506001810190506141dc565b50829750879550505050505092915050565b61422f816150dd565b82525050565b61423e816150e9565b82525050565b614255614250826150e9565b61526e565b82525050565b60006142678385614f7e565b9350614274838584615156565b82840190509392505050565b600061428b82614f39565b6142958185614f6d565b93506142a5818560208601615165565b6142ae81615365565b840191505092915050565b60006142c482614f44565b6142ce8185614f89565b93506142de818560208601615165565b6142e781615365565b840191505092915050565b60006142fd82614f44565b6143078185614f9a565b9350614317818560208601615165565b61432081615365565b840191505092915050565b600061433682614f44565b6143408185614fab565b9350614350818560208601615165565b80840191505092915050565b6000614369601883614f9a565b915061437482615376565b602082019050919050565b600061438c602083614f9a565b91506143978261539f565b602082019050919050565b60006143af601f83614f9a565b91506143ba826153c8565b602082019050919050565b60006143d2601c83614fab565b91506143dd826153f1565b601c82019050919050565b60006143f5603283614f9a565b91506144008261541a565b604082019050919050565b6000614418602683614f9a565b915061442382615469565b604082019050919050565b600061443b601c83614f9a565b9150614446826154b8565b602082019050919050565b600061445e600283614fab565b9150614469826154e1565b600282019050919050565b6000614481602483614f9a565b915061448c8261550a565b604082019050919050565b60006144a4601983614f9a565b91506144af82615559565b602082019050919050565b60006144c7602283614f9a565b91506144d282615582565b604082019050919050565b60006144ea602c83614f9a565b91506144f5826155d1565b604082019050919050565b600061450d603883614f9a565b915061451882615620565b604082019050919050565b6000614530602a83614f9a565b915061453b8261566f565b604082019050919050565b6000614553602983614f9a565b915061455e826156be565b604082019050919050565b6000614576602e83614f9a565b91506145818261570d565b604082019050919050565b6000614599602283614f9a565b91506145a48261575c565b604082019050919050565b60006145bc601c83614f9a565b91506145c7826157ab565b602082019050919050565b60006145df602083614f9a565b91506145ea826157d4565b602082019050919050565b6000614602603183614f9a565b915061460d826157fd565b604082019050919050565b6000614625602c83614f9a565b91506146308261584c565b604082019050919050565b6000614648602083614f9a565b91506146538261589b565b602082019050919050565b600061466b602983614f9a565b9150614676826158c4565b604082019050919050565b600061468e602f83614f9a565b915061469982615913565b604082019050919050565b60006146b1602483614f9a565b91506146bc82615962565b604082019050919050565b60006146d4602183614f9a565b91506146df826159b1565b604082019050919050565b60006146f7602183614f9a565b915061470282615a00565b604082019050919050565b600061471a603183614f9a565b915061472582615a4f565b604082019050919050565b600061473d601783614fab565b915061474882615a9e565b601782019050919050565b6000614760601183614fab565b915061476b82615ac7565b601182019050919050565b6000614783602f83614f9a565b915061478e82615af0565b604082019050919050565b600060c0830160008301516147b16000860182614829565b5060208301516147c46020860182614193565b5060408301516147d76040860182614193565b5060608301516147ea6060860182614829565b506080830151848203608086015261480282826142b9565b91505060a083015184820360a086015261481c82826142b9565b9150508091505092915050565b6148328161513f565b82525050565b6148418161513f565b82525050565b61485081615149565b82525050565b600061486382848661425b565b91508190509392505050565b600061487b828561432b565b9150614887828461432b565b91508190509392505050565b600061489e826143c5565b91506148aa8284614244565b60208201915081905092915050565b60006148c482614451565b91506148d08285614244565b6020820191506148e08284614244565b6020820191508190509392505050565b60006148fb82614730565b9150614907828561432b565b915061491282614753565b915061491e828461432b565b91508190509392505050565b600060208201905061493f60008301846141a2565b92915050565b600060808201905061495a60008301876141a2565b61496760208301866141a2565b6149746040830185614838565b81810360608301526149868184614280565b905095945050505050565b600060208201905081810360008301526149ab81846141b1565b905092915050565b60006020820190506149c86000830184614226565b92915050565b60006020820190506149e36000830184614235565b92915050565b600060a0820190506149fe6000830188614235565b614a0b6020830187614235565b614a186040830186614235565b614a256060830185614838565b614a3260808301846141a2565b9695505050505050565b600060a082019050614a516000830188614235565b614a5e6020830187614838565b614a6b6040830186614838565b614a786060830185614235565b614a856080830184614235565b9695505050505050565b6000608082019050614aa46000830187614235565b614ab16020830186614847565b614abe6040830185614235565b614acb6060830184614235565b95945050505050565b60006020820190508181036000830152614aee81846142f2565b905092915050565b60006020820190508181036000830152614b0f8161435c565b9050919050565b60006020820190508181036000830152614b2f8161437f565b9050919050565b60006020820190508181036000830152614b4f816143a2565b9050919050565b60006020820190508181036000830152614b6f816143e8565b9050919050565b60006020820190508181036000830152614b8f8161440b565b9050919050565b60006020820190508181036000830152614baf8161442e565b9050919050565b60006020820190508181036000830152614bcf81614474565b9050919050565b60006020820190508181036000830152614bef81614497565b9050919050565b60006020820190508181036000830152614c0f816144ba565b9050919050565b60006020820190508181036000830152614c2f816144dd565b9050919050565b60006020820190508181036000830152614c4f81614500565b9050919050565b60006020820190508181036000830152614c6f81614523565b9050919050565b60006020820190508181036000830152614c8f81614546565b9050919050565b60006020820190508181036000830152614caf81614569565b9050919050565b60006020820190508181036000830152614ccf8161458c565b9050919050565b60006020820190508181036000830152614cef816145af565b9050919050565b60006020820190508181036000830152614d0f816145d2565b9050919050565b60006020820190508181036000830152614d2f816145f5565b9050919050565b60006020820190508181036000830152614d4f81614618565b9050919050565b60006020820190508181036000830152614d6f8161463b565b9050919050565b60006020820190508181036000830152614d8f8161465e565b9050919050565b60006020820190508181036000830152614daf81614681565b9050919050565b60006020820190508181036000830152614dcf816146a4565b9050919050565b60006020820190508181036000830152614def816146c7565b9050919050565b60006020820190508181036000830152614e0f816146ea565b9050919050565b60006020820190508181036000830152614e2f8161470d565b9050919050565b60006020820190508181036000830152614e4f81614776565b9050919050565b6000602082019050614e6b6000830184614838565b92915050565b60008083356001602003843603038112614e8a57600080fd5b80840192508235915067ffffffffffffffff821115614ea857600080fd5b602083019250600182023603831315614ec057600080fd5b509250929050565b6000614ed2614ee3565b9050614ede82826151f4565b919050565b6000604051905090565b600067ffffffffffffffff821115614f0857614f07615336565b5b614f1182615365565b9050602081019050919050565b6000819050602082019050919050565b600081519050919050565b600081519050919050565b600081519050919050565b6000602082019050919050565b600082825260208201905092915050565b600082825260208201905092915050565b600081905092915050565b600082825260208201905092915050565b600082825260208201905092915050565b600081905092915050565b6000614fc18261513f565b9150614fcc8361513f565b9250827fffffffffffffffffffffffffffffffffffffffffffffffffffffffffffffffff03821115615001576150006152a9565b5b828201905092915050565b60006150178261513f565b91506150228361513f565b925082615032576150316152d8565b5b828204905092915050565b60006150488261513f565b91506150538361513f565b9250817fffffffffffffffffffffffffffffffffffffffffffffffffffffffffffffffff048311821515161561508c5761508b6152a9565b5b828202905092915050565b60006150a28261513f565b91506150ad8361513f565b9250828210156150c0576150bf6152a9565b5b828203905092915050565b60006150d68261511f565b9050919050565b60008115159050919050565b6000819050919050565b60007fffffffff0000000000000000000000000000000000000000000000000000000082169050919050565b600073ffffffffffffffffffffffffffffffffffffffff82169050919050565b6000819050919050565b600060ff82169050919050565b82818337600083830152505050565b60005b83811015615183578082015181840152602081019050615168565b83811115615192576000848401525b50505050565b60006151a38261513f565b915060008214156151b7576151b66152a9565b5b600182039050919050565b600060028204905060018216806151da57607f821691505b602082108114156151ee576151ed615307565b5b50919050565b6151fd82615365565b810181811067ffffffffffffffff8211171561521c5761521b615336565b5b80604052505050565b60006152308261513f565b91507fffffffffffffffffffffffffffffffffffffffffffffffffffffffffffffffff821415615263576152626152a9565b5b600182019050919050565b6000819050919050565b60006152838261513f565b915061528e8361513f565b92508261529e5761529d6152d8565b5b828206905092915050565b7f4e487b7100000000000000000000000000000000000000000000000000000000600052601160045260246000fd5b7f4e487b7100000000000000000000000000000000000000000000000000000000600052601260045260246000fd5b7f4e487b7100000000000000000000000000000000000000000000000000000000600052602260045260246000fd5b7f4e487b7100000000000000000000000000000000000000000000000000000000600052604160045260246000fd5b6000601f19601f8301169050919050565b7f45434453413a20696e76616c6964207369676e61747572650000000000000000600082015250565b7f537472696e67733a20686578206c656e67746820696e73756666696369656e74600082015250565b7f45434453413a20696e76616c6964207369676e6174757265206c656e67746800600082015250565b7f19457468657265756d205369676e6564204d6573736167653a0a333200000000600082015250565b7f4552433732313a207472616e7366657220746f206e6f6e20455243373231526560008201527f63656976657220696d706c656d656e7465720000000000000000000000000000602082015250565b7f4f776e61626c653a206e6577206f776e657220697320746865207a65726f206160008201527f6464726573730000000000000000000000000000000000000000000000000000602082015250565b7f4552433732313a20746f6b656e20616c7265616479206d696e74656400000000600082015250565b7f1901000000000000000000000000000000000000000000000000000000000000600082015250565b7f4552433732313a207472616e7366657220746f20746865207a65726f2061646460008201527f7265737300000000000000000000000000000000000000000000000000000000602082015250565b7f4552433732313a20617070726f766520746f2063616c6c657200000000000000600082015250565b7f45434453413a20696e76616c6964207369676e6174757265202773272076616c60008201527f7565000000000000000000000000000000000000000000000000000000000000602082015250565b7f4552433732313a206f70657261746f7220717565727920666f72206e6f6e657860008201527f697374656e7420746f6b656e0000000000000000000000000000000000000000602082015250565b7f4552433732313a20617070726f76652063616c6c6572206973206e6f74206f7760008201527f6e6572206e6f7220617070726f76656420666f7220616c6c0000000000000000602082015250565b7f4552433732313a2062616c616e636520717565727920666f7220746865207a6560008201527f726f206164647265737300000000000000000000000000000000000000000000602082015250565b7f4552433732313a206f776e657220717565727920666f72206e6f6e657869737460008201527f656e7420746f6b656e0000000000000000000000000000000000000000000000602082015250565b7f45524337323155524953746f726167653a2055524920736574206f66206e6f6e60008201527f6578697374656e7420746f6b656e000000000000000000000000000000000000602082015250565b7f45434453413a20696e76616c6964207369676e6174757265202776272076616c60008201527f7565000000000000000000000000000000000000000000000000000000000000602082015250565b7f496e73756666696369656e742066756e647320746f2072656465656d00000000600082015250565b7f4552433732313a206d696e7420746f20746865207a65726f2061646472657373600082015250565b7f45524337323155524953746f726167653a2055524920717565727920666f722060008201527f6e6f6e6578697374656e7420746f6b656e000000000000000000000000000000602082015250565b7f4552433732313a20617070726f76656420717565727920666f72206e6f6e657860008201527f697374656e7420746f6b656e0000000000000000000000000000000000000000602082015250565b7f4f776e61626c653a2063616c6c6572206973206e6f7420746865206f776e6572600082015250565b7f4552433732313a207472616e73666572206f6620746f6b656e2074686174206960008201527f73206e6f74206f776e0000000000000000000000000000000000000000000000602082015250565b7f4552433732314d657461646174613a2055524920717565727920666f72206e6f60008201527f6e6578697374656e7420746f6b656e0000000000000000000000000000000000602082015250565b7f4f6e6c7920617574686f72697a6564206d696e746572732063616e207769746860008201527f6472617700000000000000000000000000000000000000000000000000000000602082015250565b7f4552433732313a20617070726f76616c20746f2063757272656e74206f776e6560008201527f7200000000000000000000000000000000000000000000000000000000000000602082015250565b7f5369676e617475726520696e76616c6964206f7220756e617574686f72697a6560008201527f6400000000000000000000000000000000000000000000000000000000000000602082015250565b7f4552433732313a207472616e736665722063616c6c6572206973206e6f74206f60008201527f776e6572206e6f7220617070726f766564000000000000000000000000000000602082015250565b7f416363657373436f6e74726f6c3a206163636f756e7420000000000000000000600082015250565b7f206973206d697373696e6720726f6c6520000000000000000000000000000000600082015250565b7f416363657373436f6e74726f6c3a2063616e206f6e6c792072656e6f756e636560008201527f20726f6c657320666f722073656c660000000000000000000000000000000000602082015250565b615b48816150cb565b8114615b5357600080fd5b50565b615b5f816150dd565b8114615b6a57600080fd5b50565b615b76816150e9565b8114615b8157600080fd5b50565b615b8d816150f3565b8114615b9857600080fd5b50565b615ba48161513f565b8114615baf57600080fd5b5056fea2646970667358221220e3cc4d634ea880dcdd425948181e588f9d984febcff7d5e5242492cc6fae2b2064736f6c63430008040033",
  "linkReferences": {},
  "deployedLinkReferences": {}
}