{
  "_format": "hh-sol-artifact-1",
  "contractName": "LazyNFT",
  "sourceName": "contracts/LazyNFT.sol",
  "abi": [
    {
      "inputs": [
        {
          "internalType": "address payable",
          "name": "minter",
          "type": "address"
        }
      ],
      "stateMutability": "nonpayable",
      "type": "constructor"
    },
    {
      "anonymous": false,
      "inputs": [
        {
          "indexed": true,
          "internalType": "address",
          "name": "owner",
          "type": "address"
        },
        {
          "indexed": true,
          "internalType": "address",
          "name": "approved",
          "type": "address"
        },
        {
          "indexed": true,
          "internalType": "uint256",
          "name": "tokenId",
          "type": "uint256"
        }
      ],
      "name": "Approval",
      "type": "event"
    },
    {
      "anonymous": false,
      "inputs": [
        {
          "indexed": true,
          "internalType": "address",
          "name": "owner",
          "type": "address"
        },
        {
          "indexed": true,
          "internalType": "address",
          "name": "operator",
          "type": "address"
        },
        {
          "indexed": false,
          "internalType": "bool",
          "name": "approved",
          "type": "bool"
        }
      ],
      "name": "ApprovalForAll",
      "type": "event"
    },
    {
      "anonymous": false,
      "inputs": [
        {
          "indexed": true,
          "internalType": "bytes32",
          "name": "role",
          "type": "bytes32"
        },
        {
          "indexed": true,
          "internalType": "bytes32",
          "name": "previousAdminRole",
          "type": "bytes32"
        },
        {
          "indexed": true,
          "internalType": "bytes32",
          "name": "newAdminRole",
          "type": "bytes32"
        }
      ],
      "name": "RoleAdminChanged",
      "type": "event"
    },
    {
      "anonymous": false,
      "inputs": [
        {
          "indexed": true,
          "internalType": "bytes32",
          "name": "role",
          "type": "bytes32"
        },
        {
          "indexed": true,
          "internalType": "address",
          "name": "account",
          "type": "address"
        },
        {
          "indexed": true,
          "internalType": "address",
          "name": "sender",
          "type": "address"
        }
      ],
      "name": "RoleGranted",
      "type": "event"
    },
    {
      "anonymous": false,
      "inputs": [
        {
          "indexed": true,
          "internalType": "bytes32",
          "name": "role",
          "type": "bytes32"
        },
        {
          "indexed": true,
          "internalType": "address",
          "name": "account",
          "type": "address"
        },
        {
          "indexed": true,
          "internalType": "address",
          "name": "sender",
          "type": "address"
        }
      ],
      "name": "RoleRevoked",
      "type": "event"
    },
    {
      "anonymous": false,
      "inputs": [
        {
          "indexed": true,
          "internalType": "address",
          "name": "from",
          "type": "address"
        },
        {
          "indexed": true,
          "internalType": "address",
          "name": "to",
          "type": "address"
        },
        {
          "indexed": true,
          "internalType": "uint256",
          "name": "tokenId",
          "type": "uint256"
        }
      ],
      "name": "Transfer",
      "type": "event"
    },
    {
      "inputs": [],
      "name": "DEFAULT_ADMIN_ROLE",
      "outputs": [
        {
          "internalType": "bytes32",
          "name": "",
          "type": "bytes32"
        }
      ],
      "stateMutability": "view",
      "type": "function"
    },
    {
      "inputs": [],
      "name": "MINTER_ROLE",
      "outputs": [
        {
          "internalType": "bytes32",
          "name": "",
          "type": "bytes32"
        }
      ],
      "stateMutability": "view",
      "type": "function"
    },
    {
      "inputs": [
        {
          "internalType": "address",
          "name": "to",
          "type": "address"
        },
        {
          "internalType": "uint256",
          "name": "tokenId",
          "type": "uint256"
        }
      ],
      "name": "approve",
      "outputs": [],
      "stateMutability": "nonpayable",
      "type": "function"
    },
    {
      "inputs": [],
      "name": "availableToWithdraw",
      "outputs": [
        {
          "internalType": "uint256",
          "name": "",
          "type": "uint256"
        }
      ],
      "stateMutability": "view",
      "type": "function"
    },
    {
      "inputs": [
        {
          "internalType": "address",
          "name": "owner",
          "type": "address"
        }
      ],
      "name": "balanceOf",
      "outputs": [
        {
          "internalType": "uint256",
          "name": "",
          "type": "uint256"
        }
      ],
      "stateMutability": "view",
      "type": "function"
    },
    {
      "inputs": [
        {
          "internalType": "address",
          "name": "_reqAddress",
          "type": "address"
        }
      ],
      "name": "fetchNFTsOwned",
      "outputs": [
        {
          "components": [
            {
              "internalType": "uint256",
              "name": "tokenId",
              "type": "uint256"
            },
            {
              "internalType": "address",
              "name": "owner",
              "type": "address"
            },
            {
              "internalType": "address",
              "name": "creator",
              "type": "address"
            },
            {
              "internalType": "uint256",
              "name": "price",
              "type": "uint256"
            },
            {
              "internalType": "string",
              "name": "uri",
              "type": "string"
            },
            {
              "internalType": "string",
              "name": "collection",
              "type": "string"
            }
          ],
          "internalType": "struct LazyNFT.MarketItem[]",
          "name": "",
          "type": "tuple[]"
        }
      ],
      "stateMutability": "view",
      "type": "function"
    },
    {
      "inputs": [],
      "name": "getAddress",
      "outputs": [
        {
          "internalType": "address",
          "name": "",
          "type": "address"
        }
      ],
      "stateMutability": "view",
      "type": "function"
    },
    {
      "inputs": [
        {
          "internalType": "uint256",
          "name": "tokenId",
          "type": "uint256"
        }
      ],
      "name": "getApproved",
      "outputs": [
        {
          "internalType": "address",
          "name": "",
          "type": "address"
        }
      ],
      "stateMutability": "view",
      "type": "function"
    },
    {
      "inputs": [
        {
          "internalType": "bytes32",
          "name": "role",
          "type": "bytes32"
        }
      ],
      "name": "getRoleAdmin",
      "outputs": [
        {
          "internalType": "bytes32",
          "name": "",
          "type": "bytes32"
        }
      ],
      "stateMutability": "view",
      "type": "function"
    },
    {
      "inputs": [
        {
          "internalType": "bytes32",
          "name": "role",
          "type": "bytes32"
        },
        {
          "internalType": "address",
          "name": "account",
          "type": "address"
        }
      ],
      "name": "grantRole",
      "outputs": [],
      "stateMutability": "nonpayable",
      "type": "function"
    },
    {
      "inputs": [
        {
          "internalType": "bytes32",
          "name": "role",
          "type": "bytes32"
        },
        {
          "internalType": "address",
          "name": "account",
          "type": "address"
        }
      ],
      "name": "hasRole",
      "outputs": [
        {
          "internalType": "bool",
          "name": "",
          "type": "bool"
        }
      ],
      "stateMutability": "view",
      "type": "function"
    },
    {
      "inputs": [
        {
          "internalType": "address",
          "name": "owner",
          "type": "address"
        },
        {
          "internalType": "address",
          "name": "operator",
          "type": "address"
        }
      ],
      "name": "isApprovedForAll",
      "outputs": [
        {
          "internalType": "bool",
          "name": "",
          "type": "bool"
        }
      ],
      "stateMutability": "view",
      "type": "function"
    },
    {
      "inputs": [],
      "name": "name",
      "outputs": [
        {
          "internalType": "string",
          "name": "",
          "type": "string"
        }
      ],
      "stateMutability": "view",
      "type": "function"
    },
    {
      "inputs": [
        {
          "internalType": "uint256",
          "name": "tokenId",
          "type": "uint256"
        }
      ],
      "name": "ownerOf",
      "outputs": [
        {
          "internalType": "address",
          "name": "",
          "type": "address"
        }
      ],
      "stateMutability": "view",
      "type": "function"
    },
    {
      "inputs": [
        {
          "internalType": "address",
          "name": "redeemer",
          "type": "address"
        },
        {
          "components": [
            {
              "internalType": "uint256",
              "name": "tokenId",
              "type": "uint256"
            },
            {
              "internalType": "uint256",
              "name": "minPrice",
              "type": "uint256"
            },
            {
              "internalType": "string",
              "name": "uri",
              "type": "string"
            },
            {
              "internalType": "string",
              "name": "collection",
              "type": "string"
            }
          ],
          "internalType": "struct LazyNFT.NFTVoucher",
          "name": "voucher",
          "type": "tuple"
        },
        {
          "components": [
            {
              "internalType": "string",
              "name": "v_url",
              "type": "string"
            }
          ],
          "internalType": "struct LazyNFT.NFTCID",
          "name": "meta",
          "type": "tuple"
        },
        {
          "internalType": "bytes",
          "name": "signature",
          "type": "bytes"
        }
      ],
      "name": "redeem",
      "outputs": [
        {
          "internalType": "uint256",
          "name": "",
          "type": "uint256"
        }
      ],
      "stateMutability": "payable",
      "type": "function"
    },
    {
      "inputs": [
        {
          "internalType": "bytes32",
          "name": "role",
          "type": "bytes32"
        },
        {
          "internalType": "address",
          "name": "account",
          "type": "address"
        }
      ],
      "name": "renounceRole",
      "outputs": [],
      "stateMutability": "nonpayable",
      "type": "function"
    },
    {
      "inputs": [
        {
          "internalType": "bytes32",
          "name": "role",
          "type": "bytes32"
        },
        {
          "internalType": "address",
          "name": "account",
          "type": "address"
        }
      ],
      "name": "revokeRole",
      "outputs": [],
      "stateMutability": "nonpayable",
      "type": "function"
    },
    {
      "inputs": [
        {
          "internalType": "address",
          "name": "from",
          "type": "address"
        },
        {
          "internalType": "address",
          "name": "to",
          "type": "address"
        },
        {
          "internalType": "uint256",
          "name": "tokenId",
          "type": "uint256"
        }
      ],
      "name": "safeTransferFrom",
      "outputs": [],
      "stateMutability": "nonpayable",
      "type": "function"
    },
    {
      "inputs": [
        {
          "internalType": "address",
          "name": "from",
          "type": "address"
        },
        {
          "internalType": "address",
          "name": "to",
          "type": "address"
        },
        {
          "internalType": "uint256",
          "name": "tokenId",
          "type": "uint256"
        },
        {
          "internalType": "bytes",
          "name": "_data",
          "type": "bytes"
        }
      ],
      "name": "safeTransferFrom",
      "outputs": [],
      "stateMutability": "nonpayable",
      "type": "function"
    },
    {
      "inputs": [
        {
          "internalType": "address",
          "name": "operator",
          "type": "address"
        },
        {
          "internalType": "bool",
          "name": "approved",
          "type": "bool"
        }
      ],
      "name": "setApprovalForAll",
      "outputs": [],
      "stateMutability": "nonpayable",
      "type": "function"
    },
    {
      "inputs": [
        {
          "internalType": "bytes4",
          "name": "interfaceId",
          "type": "bytes4"
        }
      ],
      "name": "supportsInterface",
      "outputs": [
        {
          "internalType": "bool",
          "name": "",
          "type": "bool"
        }
      ],
      "stateMutability": "view",
      "type": "function"
    },
    {
      "inputs": [],
      "name": "symbol",
      "outputs": [
        {
          "internalType": "string",
          "name": "",
          "type": "string"
        }
      ],
      "stateMutability": "view",
      "type": "function"
    },
    {
      "inputs": [
        {
          "internalType": "uint256",
          "name": "tokenId",
          "type": "uint256"
        }
      ],
      "name": "tokenURI",
      "outputs": [
        {
          "internalType": "string",
          "name": "",
          "type": "string"
        }
      ],
      "stateMutability": "view",
      "type": "function"
    },
    {
      "inputs": [
        {
          "internalType": "address",
          "name": "from",
          "type": "address"
        },
        {
          "internalType": "address",
          "name": "to",
          "type": "address"
        },
        {
          "internalType": "uint256",
          "name": "tokenId",
          "type": "uint256"
        }
      ],
      "name": "transferFrom",
      "outputs": [],
      "stateMutability": "nonpayable",
      "type": "function"
    },
    {
      "inputs": [],
      "name": "withdraw",
      "outputs": [],
      "stateMutability": "nonpayable",
      "type": "function"
    }
  ],
  "bytecode": "0x6101206040523480156200001257600080fd5b506040516200575938038062005759833981810160405281019062000038919062000478565b6040518060400160405280600f81526020017f4c617a794e46542d566f756368657200000000000000000000000000000000008152506040518060400160405280600181526020017f31000000000000000000000000000000000000000000000000000000000000008152506040518060400160405280600781526020017f4c617a794e4654000000000000000000000000000000000000000000000000008152506040518060400160405280600381526020017f4c415a0000000000000000000000000000000000000000000000000000000000815250816000908051906020019062000128929190620003b1565b50806001908051906020019062000141929190620003b1565b50505060008280519060200120905060008280519060200120905060007f8b73c3c69bb8fe3d512ecc4cf759cc79239f7b179b0ffacaa9a75d522b39400f90508260c081815250508160e081815250504660a08181525050620001ac818484620001fa60201b60201c565b608081815250508061010081815250505050505050620001f37f9f2df0fed2c77648de5860a4cc508cd0818c85b8b8a1ab4ceeef8d981c8956a6826200023660201b60201c565b506200060f565b6000838383463060405160200162000217959493929190620004d7565b6040516020818303038152906040528051906020012090509392505050565b6200024882826200024c60201b60201c565b5050565b6200025e82826200033e60201b60201c565b6200033a5760016007600084815260200190815260200160002060000160008373ffffffffffffffffffffffffffffffffffffffff1673ffffffffffffffffffffffffffffffffffffffff16815260200190815260200160002060006101000a81548160ff021916908315150217905550620002df620003a960201b60201c565b73ffffffffffffffffffffffffffffffffffffffff168173ffffffffffffffffffffffffffffffffffffffff16837f2f8788117e7eff1d82e926ec794901d17c78024a50270940304540a733656f0d60405160405180910390a45b5050565b60006007600084815260200190815260200160002060000160008373ffffffffffffffffffffffffffffffffffffffff1673ffffffffffffffffffffffffffffffffffffffff16815260200190815260200160002060009054906101000a900460ff16905092915050565b600033905090565b828054620003bf9062000590565b90600052602060002090601f016020900481019282620003e357600085556200042f565b82601f10620003fe57805160ff19168380011785556200042f565b828001600101855582156200042f579182015b828111156200042e57825182559160200191906001019062000411565b5b5090506200043e919062000442565b5090565b5b808211156200045d57600081600090555060010162000443565b5090565b6000815190506200047281620005f5565b92915050565b6000602082840312156200048b57600080fd5b60006200049b8482850162000461565b91505092915050565b620004af8162000534565b82525050565b620004c0816200055c565b82525050565b620004d18162000586565b82525050565b600060a082019050620004ee6000830188620004b5565b620004fd6020830187620004b5565b6200050c6040830186620004b5565b6200051b6060830185620004c6565b6200052a6080830184620004a4565b9695505050505050565b6000620005418262000566565b9050919050565b6000620005558262000566565b9050919050565b6000819050919050565b600073ffffffffffffffffffffffffffffffffffffffff82169050919050565b6000819050919050565b60006002820490506001821680620005a957607f821691505b60208210811415620005c057620005bf620005c6565b5b50919050565b7f4e487b7100000000000000000000000000000000000000000000000000000000600052602260045260246000fd5b620006008162000548565b81146200060c57600080fd5b50565b60805160a05160c05160e0516101005161510562000654600039600061309f015260006130e1015260006130c00152600061304c0152600061307401526151056000f3fe6080604052600436106101665760003560e01c806370a08231116100d1578063b88d4fde1161008a578063d547741f11610064578063d547741f14610560578063e322ad2b14610589578063e985e9c5146105b4578063f4c9a4e9146105f157610166565b8063b88d4fde146104cf578063c87b56dd146104f8578063d53913931461053557610166565b806370a08231146103995780637197de7c146103d657806391d148541461041357806395d89b4114610450578063a217fddf1461047b578063a22cb465146104a657610166565b80632f2ff15d116101235780632f2ff15d1461029f57806336568abe146102c857806338cc4831146102f15780633ccfd60b1461031c57806342842e0e146103335780636352211e1461035c57610166565b806301ffc9a71461016b57806306fdde03146101a8578063081812fc146101d3578063095ea7b31461021057806323b872dd14610239578063248a9ca314610262575b600080fd5b34801561017757600080fd5b50610192600480360381019061018d9190613749565b610621565b60405161019f9190613fb2565b60405180910390f35b3480156101b457600080fd5b506101bd610643565b6040516101ca91906140a9565b60405180910390f35b3480156101df57600080fd5b506101fa60048036038101906101f5919061379b565b6106d5565b6040516102079190613f29565b60405180910390f35b34801561021c57600080fd5b50610237600480360381019061023291906136a8565b61075a565b005b34801561024557600080fd5b50610260600480360381019061025b91906134f7565b610872565b005b34801561026e57600080fd5b50610289600480360381019061028491906136e4565b6108d2565b6040516102969190613fcd565b60405180910390f35b3480156102ab57600080fd5b506102c660048036038101906102c1919061370d565b6108f2565b005b3480156102d457600080fd5b506102ef60048036038101906102ea919061370d565b61091b565b005b3480156102fd57600080fd5b5061030661099e565b6040516103139190613f29565b60405180910390f35b34801561032857600080fd5b506103316109a6565b005b34801561033f57600080fd5b5061035a600480360381019061035591906134f7565b610ae8565b005b34801561036857600080fd5b50610383600480360381019061037e919061379b565b610b08565b6040516103909190613f29565b60405180910390f35b3480156103a557600080fd5b506103c060048036038101906103bb9190613492565b610bba565b6040516103cd91906143eb565b60405180910390f35b3480156103e257600080fd5b506103fd60048036038101906103f89190613492565b610c72565b60405161040a9190613f90565b60405180910390f35b34801561041f57600080fd5b5061043a6004803603810190610435919061370d565b610efd565b6040516104479190613fb2565b60405180910390f35b34801561045c57600080fd5b50610465610f68565b60405161047291906140a9565b60405180910390f35b34801561048757600080fd5b50610490610ffa565b60405161049d9190613fcd565b60405180910390f35b3480156104b257600080fd5b506104cd60048036038101906104c891906135c1565b611001565b005b3480156104db57600080fd5b506104f660048036038101906104f19190613546565b611182565b005b34801561050457600080fd5b5061051f600480360381019061051a919061379b565b6111e4565b60405161052c91906140a9565b60405180910390f35b34801561054157600080fd5b5061054a611336565b6040516105579190613fcd565b60405180910390f35b34801561056c57600080fd5b506105876004803603810190610582919061370d565b61135a565b005b34801561059557600080fd5b5061059e611383565b6040516105ab91906143eb565b60405180910390f35b3480156105c057600080fd5b506105db60048036038101906105d691906134bb565b6113ca565b6040516105e89190613fb2565b60405180910390f35b61060b600480360381019061060691906135fd565b61145e565b60405161061891906143eb565b60405180910390f35b600061062c82611851565b8061063c575061063b82611933565b5b9050919050565b60606000805461065290614757565b80601f016020809104026020016040519081016040528092919081815260200182805461067e90614757565b80156106cb5780601f106106a0576101008083540402835291602001916106cb565b820191906000526020600020905b8154815290600101906020018083116106ae57829003601f168201915b5050505050905090565b60006106e0826119ad565b61071f576040517f08c379a0000000000000000000000000000000000000000000000000000000008152600401610716906142eb565b60405180910390fd5b6004600083815260200190815260200160002060009054906101000a900473ffffffffffffffffffffffffffffffffffffffff169050919050565b600061076582610b08565b90508073ffffffffffffffffffffffffffffffffffffffff168373ffffffffffffffffffffffffffffffffffffffff1614156107d6576040517f08c379a00000000000000000000000000000000000000000000000000000000081526004016107cd9061436b565b60405180910390fd5b8073ffffffffffffffffffffffffffffffffffffffff166107f5611a19565b73ffffffffffffffffffffffffffffffffffffffff16148061082457506108238161081e611a19565b6113ca565b5b610863576040517f08c379a000000000000000000000000000000000000000000000000000000000815260040161085a906141eb565b60405180910390fd5b61086d8383611a21565b505050565b61088361087d611a19565b82611ada565b6108c2576040517f08c379a00000000000000000000000000000000000000000000000000000000081526004016108b9906143ab565b60405180910390fd5b6108cd838383611bb8565b505050565b600060076000838152602001908152602001600020600101549050919050565b6108fb826108d2565b61090c81610907611a19565b611e14565b6109168383611eb1565b505050565b610923611a19565b73ffffffffffffffffffffffffffffffffffffffff168173ffffffffffffffffffffffffffffffffffffffff1614610990576040517f08c379a0000000000000000000000000000000000000000000000000000000008152600401610987906143cb565b60405180910390fd5b61099a8282611f92565b5050565b600030905090565b6109d07f9f2df0fed2c77648de5860a4cc508cd0818c85b8b8a1ab4ceeef8d981c8956a633610efd565b610a0f576040517f08c379a0000000000000000000000000000000000000000000000000000000008152600401610a069061434b565b60405180910390fd5b60003390506000600a60008373ffffffffffffffffffffffffffffffffffffffff1673ffffffffffffffffffffffffffffffffffffffff1681526020019081526020016000205490506000600a60008473ffffffffffffffffffffffffffffffffffffffff1673ffffffffffffffffffffffffffffffffffffffff168152602001908152602001600020819055508173ffffffffffffffffffffffffffffffffffffffff166108fc829081150290604051600060405180830381858888f19350505050158015610ae3573d6000803e3d6000fd5b505050565b610b0383838360405180602001604052806000815250611182565b505050565b6000806002600084815260200190815260200160002060009054906101000a900473ffffffffffffffffffffffffffffffffffffffff169050600073ffffffffffffffffffffffffffffffffffffffff168173ffffffffffffffffffffffffffffffffffffffff161415610bb1576040517f08c379a0000000000000000000000000000000000000000000000000000000008152600401610ba89061422b565b60405180910390fd5b80915050919050565b60008073ffffffffffffffffffffffffffffffffffffffff168273ffffffffffffffffffffffffffffffffffffffff161415610c2b576040517f08c379a0000000000000000000000000000000000000000000000000000000008152600401610c229061420b565b60405180910390fd5b600360008373ffffffffffffffffffffffffffffffffffffffff1673ffffffffffffffffffffffffffffffffffffffff168152602001908152602001600020549050919050565b6060610c7d82612074565b600b60008373ffffffffffffffffffffffffffffffffffffffff1673ffffffffffffffffffffffffffffffffffffffff168152602001908152602001600020805480602002602001604051908101604052809291908181526020016000905b82821015610ef257838290600052602060002090600602016040518060c0016040529081600082015481526020016001820160009054906101000a900473ffffffffffffffffffffffffffffffffffffffff1673ffffffffffffffffffffffffffffffffffffffff1673ffffffffffffffffffffffffffffffffffffffff1681526020016002820160009054906101000a900473ffffffffffffffffffffffffffffffffffffffff1673ffffffffffffffffffffffffffffffffffffffff1673ffffffffffffffffffffffffffffffffffffffff16815260200160038201548152602001600482018054610dcf90614757565b80601f0160208091040260200160405190810160405280929190818152602001828054610dfb90614757565b8015610e485780601f10610e1d57610100808354040283529160200191610e48565b820191906000526020600020905b815481529060010190602001808311610e2b57829003601f168201915b50505050508152602001600582018054610e6190614757565b80601f0160208091040260200160405190810160405280929190818152602001828054610e8d90614757565b8015610eda5780601f10610eaf57610100808354040283529160200191610eda565b820191906000526020600020905b815481529060010190602001808311610ebd57829003601f168201915b50505050508152505081526020019060010190610cdc565b505050509050919050565b60006007600084815260200190815260200160002060000160008373ffffffffffffffffffffffffffffffffffffffff1673ffffffffffffffffffffffffffffffffffffffff16815260200190815260200160002060009054906101000a900460ff16905092915050565b606060018054610f7790614757565b80601f0160208091040260200160405190810160405280929190818152602001828054610fa390614757565b8015610ff05780601f10610fc557610100808354040283529160200191610ff0565b820191906000526020600020905b815481529060010190602001808311610fd357829003601f168201915b5050505050905090565b6000801b81565b611009611a19565b73ffffffffffffffffffffffffffffffffffffffff168273ffffffffffffffffffffffffffffffffffffffff161415611077576040517f08c379a000000000000000000000000000000000000000000000000000000000815260040161106e9061418b565b60405180910390fd5b8060056000611084611a19565b73ffffffffffffffffffffffffffffffffffffffff1673ffffffffffffffffffffffffffffffffffffffff16815260200190815260200160002060008473ffffffffffffffffffffffffffffffffffffffff1673ffffffffffffffffffffffffffffffffffffffff16815260200190815260200160002060006101000a81548160ff0219169083151502179055508173ffffffffffffffffffffffffffffffffffffffff16611131611a19565b73ffffffffffffffffffffffffffffffffffffffff167f17307eab39ab6107e8899845ad3d59bd9653f200f220920489ca2b5937696c31836040516111769190613fb2565b60405180910390a35050565b61119361118d611a19565b83611ada565b6111d2576040517f08c379a00000000000000000000000000000000000000000000000000000000081526004016111c9906143ab565b60405180910390fd5b6111de8484848461210d565b50505050565b60606111ef826119ad565b61122e576040517f08c379a0000000000000000000000000000000000000000000000000000000008152600401611225906142cb565b60405180910390fd5b600060066000848152602001908152602001600020805461124e90614757565b80601f016020809104026020016040519081016040528092919081815260200182805461127a90614757565b80156112c75780601f1061129c576101008083540402835291602001916112c7565b820191906000526020600020905b8154815290600101906020018083116112aa57829003601f168201915b5050505050905060006112d8612169565b90506000815114156112ee578192505050611331565b60008251111561132357808260405160200161130b929190613e6e565b60405160208183030381529060405292505050611331565b61132c84612180565b925050505b919050565b7f9f2df0fed2c77648de5860a4cc508cd0818c85b8b8a1ab4ceeef8d981c8956a681565b611363826108d2565b6113748161136f611a19565b611e14565b61137e8383611f92565b505050565b6000600a60003373ffffffffffffffffffffffffffffffffffffffff1673ffffffffffffffffffffffffffffffffffffffff16815260200190815260200160002054905090565b6000600560008473ffffffffffffffffffffffffffffffffffffffff1673ffffffffffffffffffffffffffffffffffffffff16815260200190815260200160002060008373ffffffffffffffffffffffffffffffffffffffff1673ffffffffffffffffffffffffffffffffffffffff16815260200190815260200160002060009054906101000a900460ff16905092915050565b60008061146b8484612227565b90506114977f9f2df0fed2c77648de5860a4cc508cd0818c85b8b8a1ab4ceeef8d981c8956a682610efd565b6114d6576040517f08c379a00000000000000000000000000000000000000000000000000000000081526004016114cd9061438b565b60405180910390fd5b846020013534101561151d576040517f08c379a00000000000000000000000000000000000000000000000000000000081526004016115149061428b565b60405180910390fd5b61152b818660000135612259565b61158b85600001358680604001906115439190614406565b8080601f016020809104026020016040519081016040528093929190818152602001838380828437600081840152601f19601f82011690508083019250505050505050612427565b60006040518060c00160405280876000013581526020018873ffffffffffffffffffffffffffffffffffffffff1681526020018373ffffffffffffffffffffffffffffffffffffffff168152602001876020013581526020018780604001906115f49190614406565b8080601f016020809104026020016040519081016040528093929190818152602001838380828437600081840152601f19601f82011690508083019250505050505050815260200187806060019061164c9190614406565b8080601f016020809104026020016040519081016040528093929190818152602001838380828437600081840152601f19601f820116905080830192505050505050508152509050600b60008873ffffffffffffffffffffffffffffffffffffffff1673ffffffffffffffffffffffffffffffffffffffff1681526020019081526020016000208190806001815401808255809150506001900390600052602060002090600602016000909190919091506000820151816000015560208201518160010160006101000a81548173ffffffffffffffffffffffffffffffffffffffff021916908373ffffffffffffffffffffffffffffffffffffffff16021790555060408201518160020160006101000a81548173ffffffffffffffffffffffffffffffffffffffff021916908373ffffffffffffffffffffffffffffffffffffffff1602179055506060820151816003015560808201518160040190805190602001906117bb9291906132d3565b5060a08201518160050190805190602001906117d89291906132d3565b5050506117ea82888860000135611bb8565b34600a60008473ffffffffffffffffffffffffffffffffffffffff1673ffffffffffffffffffffffffffffffffffffffff1681526020019081526020016000206000828254611839919061454b565b92505081905550856000013592505050949350505050565b60007f80ac58cd000000000000000000000000000000000000000000000000000000007bffffffffffffffffffffffffffffffffffffffffffffffffffffffff1916827bffffffffffffffffffffffffffffffffffffffffffffffffffffffff1916148061191c57507f5b5e139f000000000000000000000000000000000000000000000000000000007bffffffffffffffffffffffffffffffffffffffffffffffffffffffff1916827bffffffffffffffffffffffffffffffffffffffffffffffffffffffff1916145b8061192c575061192b8261249b565b5b9050919050565b60007f7965db0b000000000000000000000000000000000000000000000000000000007bffffffffffffffffffffffffffffffffffffffffffffffffffffffff1916827bffffffffffffffffffffffffffffffffffffffffffffffffffffffff191614806119a657506119a582611851565b5b9050919050565b60008073ffffffffffffffffffffffffffffffffffffffff166002600084815260200190815260200160002060009054906101000a900473ffffffffffffffffffffffffffffffffffffffff1673ffffffffffffffffffffffffffffffffffffffff1614159050919050565b600033905090565b816004600083815260200190815260200160002060006101000a81548173ffffffffffffffffffffffffffffffffffffffff021916908373ffffffffffffffffffffffffffffffffffffffff160217905550808273ffffffffffffffffffffffffffffffffffffffff16611a9483610b08565b73ffffffffffffffffffffffffffffffffffffffff167f8c5be1e5ebec7d5bd14f71427d1e84f3dd0314c0f7b2291e5b200ac8c7c3b92560405160405180910390a45050565b6000611ae5826119ad565b611b24576040517f08c379a0000000000000000000000000000000000000000000000000000000008152600401611b1b906141cb565b60405180910390fd5b6000611b2f83610b08565b90508073ffffffffffffffffffffffffffffffffffffffff168473ffffffffffffffffffffffffffffffffffffffff161480611b9e57508373ffffffffffffffffffffffffffffffffffffffff16611b86846106d5565b73ffffffffffffffffffffffffffffffffffffffff16145b80611baf5750611bae81856113ca565b5b91505092915050565b8273ffffffffffffffffffffffffffffffffffffffff16611bd882610b08565b73ffffffffffffffffffffffffffffffffffffffff1614611c2e576040517f08c379a0000000000000000000000000000000000000000000000000000000008152600401611c259061430b565b60405180910390fd5b600073ffffffffffffffffffffffffffffffffffffffff168273ffffffffffffffffffffffffffffffffffffffff161415611c9e576040517f08c379a0000000000000000000000000000000000000000000000000000000008152600401611c959061416b565b60405180910390fd5b611ca9838383612505565b611cb4600082611a21565b6001600360008573ffffffffffffffffffffffffffffffffffffffff1673ffffffffffffffffffffffffffffffffffffffff1681526020019081526020016000206000828254611d04919061462c565b925050819055506001600360008473ffffffffffffffffffffffffffffffffffffffff1673ffffffffffffffffffffffffffffffffffffffff1681526020019081526020016000206000828254611d5b919061454b565b92505081905550816002600083815260200190815260200160002060006101000a81548173ffffffffffffffffffffffffffffffffffffffff021916908373ffffffffffffffffffffffffffffffffffffffff160217905550808273ffffffffffffffffffffffffffffffffffffffff168473ffffffffffffffffffffffffffffffffffffffff167fddf252ad1be2c89b69c2b068fc378daa952ba7f163c4a11628f55a4df523b3ef60405160405180910390a4505050565b611e1e8282610efd565b611ead57611e438173ffffffffffffffffffffffffffffffffffffffff16601461250a565b611e518360001c602061250a565b604051602001611e62929190613eef565b6040516020818303038152906040526040517f08c379a0000000000000000000000000000000000000000000000000000000008152600401611ea491906140a9565b60405180910390fd5b5050565b611ebb8282610efd565b611f8e5760016007600084815260200190815260200160002060000160008373ffffffffffffffffffffffffffffffffffffffff1673ffffffffffffffffffffffffffffffffffffffff16815260200190815260200160002060006101000a81548160ff021916908315150217905550611f33611a19565b73ffffffffffffffffffffffffffffffffffffffff168173ffffffffffffffffffffffffffffffffffffffff16837f2f8788117e7eff1d82e926ec794901d17c78024a50270940304540a733656f0d60405160405180910390a45b5050565b611f9c8282610efd565b156120705760006007600084815260200190815260200160002060000160008373ffffffffffffffffffffffffffffffffffffffff1673ffffffffffffffffffffffffffffffffffffffff16815260200190815260200160002060006101000a81548160ff021916908315150217905550612015611a19565b73ffffffffffffffffffffffffffffffffffffffff168173ffffffffffffffffffffffffffffffffffffffff16837ff6391f5c32d9c69d2a47ea670b442974b53935d1edc7fd64eb21e047a839171b60405160405180910390a45b5050565b61210a816040516024016120889190613f29565b6040516020818303038152906040527f2c2ecbc2000000000000000000000000000000000000000000000000000000007bffffffffffffffffffffffffffffffffffffffffffffffffffffffff19166020820180517bffffffffffffffffffffffffffffffffffffffffffffffffffffffff8381831617835250505050612804565b50565b612118848484611bb8565b6121248484848461282d565b612163576040517f08c379a000000000000000000000000000000000000000000000000000000000815260040161215a9061412b565b60405180910390fd5b50505050565b606060405180602001604052806000815250905090565b606061218b826119ad565b6121ca576040517f08c379a00000000000000000000000000000000000000000000000000000000081526004016121c19061432b565b60405180910390fd5b60006121d4612169565b905060008151116121f4576040518060200160405280600081525061221f565b806121fe846129c4565b60405160200161220f929190613e6e565b6040516020818303038152906040525b915050919050565b60008061223384612b71565b90506122508361224283612bf0565b612c2090919063ffffffff16565b91505092915050565b600073ffffffffffffffffffffffffffffffffffffffff168273ffffffffffffffffffffffffffffffffffffffff1614156122c9576040517f08c379a00000000000000000000000000000000000000000000000000000000081526004016122c0906142ab565b60405180910390fd5b6122d2816119ad565b15612312576040517f08c379a00000000000000000000000000000000000000000000000000000000081526004016123099061414b565b60405180910390fd5b61231e60008383612505565b6001600360008473ffffffffffffffffffffffffffffffffffffffff1673ffffffffffffffffffffffffffffffffffffffff168152602001908152602001600020600082825461236e919061454b565b92505081905550816002600083815260200190815260200160002060006101000a81548173ffffffffffffffffffffffffffffffffffffffff021916908373ffffffffffffffffffffffffffffffffffffffff160217905550808273ffffffffffffffffffffffffffffffffffffffff16600073ffffffffffffffffffffffffffffffffffffffff167fddf252ad1be2c89b69c2b068fc378daa952ba7f163c4a11628f55a4df523b3ef60405160405180910390a45050565b612430826119ad565b61246f576040517f08c379a00000000000000000000000000000000000000000000000000000000081526004016124669061424b565b60405180910390fd5b806006600084815260200190815260200160002090805190602001906124969291906132d3565b505050565b60007f01ffc9a7000000000000000000000000000000000000000000000000000000007bffffffffffffffffffffffffffffffffffffffffffffffffffffffff1916827bffffffffffffffffffffffffffffffffffffffffffffffffffffffff1916149050919050565b505050565b60606000600283600261251d91906145d2565b612527919061454b565b67ffffffffffffffff811115612566577f4e487b7100000000000000000000000000000000000000000000000000000000600052604160045260246000fd5b6040519080825280601f01601f1916602001820160405280156125985781602001600182028036833780820191505090505b5090507f3000000000000000000000000000000000000000000000000000000000000000816000815181106125f6577f4e487b7100000000000000000000000000000000000000000000000000000000600052603260045260246000fd5b60200101907effffffffffffffffffffffffffffffffffffffffffffffffffffffffffffff1916908160001a9053507f780000000000000000000000000000000000000000000000000000000000000081600181518110612680577f4e487b7100000000000000000000000000000000000000000000000000000000600052603260045260246000fd5b60200101907effffffffffffffffffffffffffffffffffffffffffffffffffffffffffffff1916908160001a905350600060018460026126c091906145d2565b6126ca919061454b565b90505b60018111156127b6577f3031323334353637383961626364656600000000000000000000000000000000600f861660108110612732577f4e487b7100000000000000000000000000000000000000000000000000000000600052603260045260246000fd5b1a60f81b82828151811061276f577f4e487b7100000000000000000000000000000000000000000000000000000000600052603260045260246000fd5b60200101907effffffffffffffffffffffffffffffffffffffffffffffffffffffffffffff1916908160001a905350600485901c9450806127af9061472d565b90506126cd565b50600084146127fa576040517f08c379a00000000000000000000000000000000000000000000000000000000081526004016127f1906140eb565b60405180910390fd5b8091505092915050565b60008151905060006a636f6e736f6c652e6c6f679050602083016000808483855afa5050505050565b600061284e8473ffffffffffffffffffffffffffffffffffffffff16612c47565b156129b7578373ffffffffffffffffffffffffffffffffffffffff1663150b7a02612877611a19565b8786866040518563ffffffff1660e01b81526004016128999493929190613f44565b602060405180830381600087803b1580156128b357600080fd5b505af19250505080156128e457506040513d601f19601f820116820180604052508101906128e19190613772565b60015b612967573d8060008114612914576040519150601f19603f3d011682016040523d82523d6000602084013e612919565b606091505b5060008151141561295f576040517f08c379a00000000000000000000000000000000000000000000000000000000081526004016129569061412b565b60405180910390fd5b805181602001fd5b63150b7a0260e01b7bffffffffffffffffffffffffffffffffffffffffffffffffffffffff1916817bffffffffffffffffffffffffffffffffffffffffffffffffffffffff1916149150506129bc565b600190505b949350505050565b60606000821415612a0c576040518060400160405280600181526020017f30000000000000000000000000000000000000000000000000000000000000008152509050612b6c565b600082905060005b60008214612a3e578080612a27906147ba565b915050600a82612a3791906145a1565b9150612a14565b60008167ffffffffffffffff811115612a80577f4e487b7100000000000000000000000000000000000000000000000000000000600052604160045260246000fd5b6040519080825280601f01601f191660200182016040528015612ab25781602001600182028036833780820191505090505b5090505b60008514612b6557600182612acb919061462c565b9150600a85612ada919061480d565b6030612ae6919061454b565b60f81b818381518110612b22577f4e487b7100000000000000000000000000000000000000000000000000000000600052603260045260246000fd5b60200101907effffffffffffffffffffffffffffffffffffffffffffffffffffffffffffff1916908160001a905350600a85612b5e91906145a1565b9450612ab6565b8093505050505b919050565b6000612be97f1b51c0b447daca9b3baf5c10eb3177543bbe5d6accebaf0ab8f0728569aae13a838060000190612ba79190614406565b604051612bb5929190613e55565b6040518091039020604051602001612bce929190613fe8565b60405160208183030381529060405280519060200120612c5a565b9050919050565b600081604051602001612c039190613e92565b604051602081830303815290604052805190602001209050919050565b6000806000612c2f8585612c74565b91509150612c3c81612cf7565b819250505092915050565b600080823b905060008111915050919050565b6000612c6d612c67613048565b8361310b565b9050919050565b600080604183511415612cb65760008060006020860151925060408601519150606086015160001a9050612caa8782858561313e565b94509450505050612cf0565b604083511415612ce7576000806020850151915060408501519050612cdc86838361324b565b935093505050612cf0565b60006002915091505b9250929050565b60006004811115612d31577f4e487b7100000000000000000000000000000000000000000000000000000000600052602160045260246000fd5b816004811115612d6a577f4e487b7100000000000000000000000000000000000000000000000000000000600052602160045260246000fd5b1415612d7557613045565b60016004811115612daf577f4e487b7100000000000000000000000000000000000000000000000000000000600052602160045260246000fd5b816004811115612de8577f4e487b7100000000000000000000000000000000000000000000000000000000600052602160045260246000fd5b1415612e29576040517f08c379a0000000000000000000000000000000000000000000000000000000008152600401612e20906140cb565b60405180910390fd5b60026004811115612e63577f4e487b7100000000000000000000000000000000000000000000000000000000600052602160045260246000fd5b816004811115612e9c577f4e487b7100000000000000000000000000000000000000000000000000000000600052602160045260246000fd5b1415612edd576040517f08c379a0000000000000000000000000000000000000000000000000000000008152600401612ed49061410b565b60405180910390fd5b60036004811115612f17577f4e487b7100000000000000000000000000000000000000000000000000000000600052602160045260246000fd5b816004811115612f50577f4e487b7100000000000000000000000000000000000000000000000000000000600052602160045260246000fd5b1415612f91576040517f08c379a0000000000000000000000000000000000000000000000000000000008152600401612f88906141ab565b60405180910390fd5b600480811115612fca577f4e487b7100000000000000000000000000000000000000000000000000000000600052602160045260246000fd5b816004811115613003577f4e487b7100000000000000000000000000000000000000000000000000000000600052602160045260246000fd5b1415613044576040517f08c379a000000000000000000000000000000000000000000000000000000000815260040161303b9061426b565b60405180910390fd5b5b50565b60007f000000000000000000000000000000000000000000000000000000000000000046141561309a577f00000000000000000000000000000000000000000000000000000000000000009050613108565b6131057f00000000000000000000000000000000000000000000000000000000000000007f00000000000000000000000000000000000000000000000000000000000000007f0000000000000000000000000000000000000000000000000000000000000000613299565b90505b90565b60008282604051602001613120929190613eb8565b60405160208183030381529060405280519060200120905092915050565b6000807f7fffffffffffffffffffffffffffffff5d576e7357a4501ddfe92f46681b20a08360001c1115613179576000600391509150613242565b601b8560ff16141580156131915750601c8560ff1614155b156131a3576000600491509150613242565b6000600187878787604051600081526020016040526040516131c89493929190614064565b6020604051602081039080840390855afa1580156131ea573d6000803e3d6000fd5b505050602060405103519050600073ffffffffffffffffffffffffffffffffffffffff168173ffffffffffffffffffffffffffffffffffffffff16141561323957600060019250925050613242565b80600092509250505b94509492505050565b6000806000807f7fffffffffffffffffffffffffffffffffffffffffffffffffffffffffffffff85169150601b8560ff1c01905061328b8782888561313e565b935093505050935093915050565b600083838346306040516020016132b4959493929190614011565b6040516020818303038152906040528051906020012090509392505050565b8280546132df90614757565b90600052602060002090601f0160209004810192826133015760008555613348565b82601f1061331a57805160ff1916838001178555613348565b82800160010185558215613348579182015b8281111561334757825182559160200191906001019061332c565b5b5090506133559190613359565b5090565b5b8082111561337257600081600090555060010161335a565b5090565b600061338961338484614482565b61445d565b9050828152602081018484840111156133a157600080fd5b6133ac8482856146eb565b509392505050565b6000813590506133c38161505c565b92915050565b6000813590506133d881615073565b92915050565b6000813590506133ed8161508a565b92915050565b600081359050613402816150a1565b92915050565b600081519050613417816150a1565b92915050565b600082601f83011261342e57600080fd5b813561343e848260208601613376565b91505092915050565b60006020828403121561345957600080fd5b81905092915050565b60006080828403121561347457600080fd5b81905092915050565b60008135905061348c816150b8565b92915050565b6000602082840312156134a457600080fd5b60006134b2848285016133b4565b91505092915050565b600080604083850312156134ce57600080fd5b60006134dc858286016133b4565b92505060206134ed858286016133b4565b9150509250929050565b60008060006060848603121561350c57600080fd5b600061351a868287016133b4565b935050602061352b868287016133b4565b925050604061353c8682870161347d565b9150509250925092565b6000806000806080858703121561355c57600080fd5b600061356a878288016133b4565b945050602061357b878288016133b4565b935050604061358c8782880161347d565b925050606085013567ffffffffffffffff8111156135a957600080fd5b6135b58782880161341d565b91505092959194509250565b600080604083850312156135d457600080fd5b60006135e2858286016133b4565b92505060206135f3858286016133c9565b9150509250929050565b6000806000806080858703121561361357600080fd5b6000613621878288016133b4565b945050602085013567ffffffffffffffff81111561363e57600080fd5b61364a87828801613462565b935050604085013567ffffffffffffffff81111561366757600080fd5b61367387828801613447565b925050606085013567ffffffffffffffff81111561369057600080fd5b61369c8782880161341d565b91505092959194509250565b600080604083850312156136bb57600080fd5b60006136c9858286016133b4565b92505060206136da8582860161347d565b9150509250929050565b6000602082840312156136f657600080fd5b6000613704848285016133de565b91505092915050565b6000806040838503121561372057600080fd5b600061372e858286016133de565b925050602061373f858286016133b4565b9150509250929050565b60006020828403121561375b57600080fd5b6000613769848285016133f3565b91505092915050565b60006020828403121561378457600080fd5b600061379284828501613408565b91505092915050565b6000602082840312156137ad57600080fd5b60006137bb8482850161347d565b91505092915050565b60006137d08383613d98565b905092915050565b6137e181614660565b82525050565b6137f081614660565b82525050565b6000613801826144c3565b61380b81856144f1565b93508360208202850161381d856144b3565b8060005b85811015613859578484038952815161383a85826137c4565b9450613845836144e4565b925060208a01995050600181019050613821565b50829750879550505050505092915050565b61387481614672565b82525050565b6138838161467e565b82525050565b61389a6138958261467e565b614803565b82525050565b60006138ac8385614513565b93506138b98385846146eb565b82840190509392505050565b60006138d0826144ce565b6138da8185614502565b93506138ea8185602086016146fa565b6138f3816148fa565b840191505092915050565b6000613909826144d9565b613913818561451e565b93506139238185602086016146fa565b61392c816148fa565b840191505092915050565b6000613942826144d9565b61394c818561452f565b935061395c8185602086016146fa565b613965816148fa565b840191505092915050565b600061397b826144d9565b6139858185614540565b93506139958185602086016146fa565b80840191505092915050565b60006139ae60188361452f565b91506139b98261490b565b602082019050919050565b60006139d160208361452f565b91506139dc82614934565b602082019050919050565b60006139f4601f8361452f565b91506139ff8261495d565b602082019050919050565b6000613a17601c83614540565b9150613a2282614986565b601c82019050919050565b6000613a3a60328361452f565b9150613a45826149af565b604082019050919050565b6000613a5d601c8361452f565b9150613a68826149fe565b602082019050919050565b6000613a80600283614540565b9150613a8b82614a27565b600282019050919050565b6000613aa360248361452f565b9150613aae82614a50565b604082019050919050565b6000613ac660198361452f565b9150613ad182614a9f565b602082019050919050565b6000613ae960228361452f565b9150613af482614ac8565b604082019050919050565b6000613b0c602c8361452f565b9150613b1782614b17565b604082019050919050565b6000613b2f60388361452f565b9150613b3a82614b66565b604082019050919050565b6000613b52602a8361452f565b9150613b5d82614bb5565b604082019050919050565b6000613b7560298361452f565b9150613b8082614c04565b604082019050919050565b6000613b98602e8361452f565b9150613ba382614c53565b604082019050919050565b6000613bbb60228361452f565b9150613bc682614ca2565b604082019050919050565b6000613bde601c8361452f565b9150613be982614cf1565b602082019050919050565b6000613c0160208361452f565b9150613c0c82614d1a565b602082019050919050565b6000613c2460318361452f565b9150613c2f82614d43565b604082019050919050565b6000613c47602c8361452f565b9150613c5282614d92565b604082019050919050565b6000613c6a60298361452f565b9150613c7582614de1565b604082019050919050565b6000613c8d602f8361452f565b9150613c9882614e30565b604082019050919050565b6000613cb060248361452f565b9150613cbb82614e7f565b604082019050919050565b6000613cd360218361452f565b9150613cde82614ece565b604082019050919050565b6000613cf660218361452f565b9150613d0182614f1d565b604082019050919050565b6000613d1960318361452f565b9150613d2482614f6c565b604082019050919050565b6000613d3c601783614540565b9150613d4782614fbb565b601782019050919050565b6000613d5f601183614540565b9150613d6a82614fe4565b601182019050919050565b6000613d82602f8361452f565b9150613d8d8261500d565b604082019050919050565b600060c083016000830151613db06000860182613e28565b506020830151613dc360208601826137d8565b506040830151613dd660408601826137d8565b506060830151613de96060860182613e28565b5060808301518482036080860152613e0182826138fe565b91505060a083015184820360a0860152613e1b82826138fe565b9150508091505092915050565b613e31816146d4565b82525050565b613e40816146d4565b82525050565b613e4f816146de565b82525050565b6000613e628284866138a0565b91508190509392505050565b6000613e7a8285613970565b9150613e868284613970565b91508190509392505050565b6000613e9d82613a0a565b9150613ea98284613889565b60208201915081905092915050565b6000613ec382613a73565b9150613ecf8285613889565b602082019150613edf8284613889565b6020820191508190509392505050565b6000613efa82613d2f565b9150613f068285613970565b9150613f1182613d52565b9150613f1d8284613970565b91508190509392505050565b6000602082019050613f3e60008301846137e7565b92915050565b6000608082019050613f5960008301876137e7565b613f6660208301866137e7565b613f736040830185613e37565b8181036060830152613f8581846138c5565b905095945050505050565b60006020820190508181036000830152613faa81846137f6565b905092915050565b6000602082019050613fc7600083018461386b565b92915050565b6000602082019050613fe2600083018461387a565b92915050565b6000604082019050613ffd600083018561387a565b61400a602083018461387a565b9392505050565b600060a082019050614026600083018861387a565b614033602083018761387a565b614040604083018661387a565b61404d6060830185613e37565b61405a60808301846137e7565b9695505050505050565b6000608082019050614079600083018761387a565b6140866020830186613e46565b614093604083018561387a565b6140a0606083018461387a565b95945050505050565b600060208201905081810360008301526140c38184613937565b905092915050565b600060208201905081810360008301526140e4816139a1565b9050919050565b60006020820190508181036000830152614104816139c4565b9050919050565b60006020820190508181036000830152614124816139e7565b9050919050565b6000602082019050818103600083015261414481613a2d565b9050919050565b6000602082019050818103600083015261416481613a50565b9050919050565b6000602082019050818103600083015261418481613a96565b9050919050565b600060208201905081810360008301526141a481613ab9565b9050919050565b600060208201905081810360008301526141c481613adc565b9050919050565b600060208201905081810360008301526141e481613aff565b9050919050565b6000602082019050818103600083015261420481613b22565b9050919050565b6000602082019050818103600083015261422481613b45565b9050919050565b6000602082019050818103600083015261424481613b68565b9050919050565b6000602082019050818103600083015261426481613b8b565b9050919050565b6000602082019050818103600083015261428481613bae565b9050919050565b600060208201905081810360008301526142a481613bd1565b9050919050565b600060208201905081810360008301526142c481613bf4565b9050919050565b600060208201905081810360008301526142e481613c17565b9050919050565b6000602082019050818103600083015261430481613c3a565b9050919050565b6000602082019050818103600083015261432481613c5d565b9050919050565b6000602082019050818103600083015261434481613c80565b9050919050565b6000602082019050818103600083015261436481613ca3565b9050919050565b6000602082019050818103600083015261438481613cc6565b9050919050565b600060208201905081810360008301526143a481613ce9565b9050919050565b600060208201905081810360008301526143c481613d0c565b9050919050565b600060208201905081810360008301526143e481613d75565b9050919050565b60006020820190506144006000830184613e37565b92915050565b6000808335600160200384360303811261441f57600080fd5b80840192508235915067ffffffffffffffff82111561443d57600080fd5b60208301925060018202360383131561445557600080fd5b509250929050565b6000614467614478565b90506144738282614789565b919050565b6000604051905090565b600067ffffffffffffffff82111561449d5761449c6148cb565b5b6144a6826148fa565b9050602081019050919050565b6000819050602082019050919050565b600081519050919050565b600081519050919050565b600081519050919050565b6000602082019050919050565b600082825260208201905092915050565b600082825260208201905092915050565b600081905092915050565b600082825260208201905092915050565b600082825260208201905092915050565b600081905092915050565b6000614556826146d4565b9150614561836146d4565b9250827fffffffffffffffffffffffffffffffffffffffffffffffffffffffffffffffff038211156145965761459561483e565b5b828201905092915050565b60006145ac826146d4565b91506145b7836146d4565b9250826145c7576145c661486d565b5b828204905092915050565b60006145dd826146d4565b91506145e8836146d4565b9250817fffffffffffffffffffffffffffffffffffffffffffffffffffffffffffffffff04831182151516156146215761462061483e565b5b828202905092915050565b6000614637826146d4565b9150614642836146d4565b9250828210156146555761465461483e565b5b828203905092915050565b600061466b826146b4565b9050919050565b60008115159050919050565b6000819050919050565b60007fffffffff0000000000000000000000000000000000000000000000000000000082169050919050565b600073ffffffffffffffffffffffffffffffffffffffff82169050919050565b6000819050919050565b600060ff82169050919050565b82818337600083830152505050565b60005b838110156147185780820151818401526020810190506146fd565b83811115614727576000848401525b50505050565b6000614738826146d4565b9150600082141561474c5761474b61483e565b5b600182039050919050565b6000600282049050600182168061476f57607f821691505b602082108114156147835761478261489c565b5b50919050565b614792826148fa565b810181811067ffffffffffffffff821117156147b1576147b06148cb565b5b80604052505050565b60006147c5826146d4565b91507fffffffffffffffffffffffffffffffffffffffffffffffffffffffffffffffff8214156147f8576147f761483e565b5b600182019050919050565b6000819050919050565b6000614818826146d4565b9150614823836146d4565b9250826148335761483261486d565b5b828206905092915050565b7f4e487b7100000000000000000000000000000000000000000000000000000000600052601160045260246000fd5b7f4e487b7100000000000000000000000000000000000000000000000000000000600052601260045260246000fd5b7f4e487b7100000000000000000000000000000000000000000000000000000000600052602260045260246000fd5b7f4e487b7100000000000000000000000000000000000000000000000000000000600052604160045260246000fd5b6000601f19601f8301169050919050565b7f45434453413a20696e76616c6964207369676e61747572650000000000000000600082015250565b7f537472696e67733a20686578206c656e67746820696e73756666696369656e74600082015250565b7f45434453413a20696e76616c6964207369676e6174757265206c656e67746800600082015250565b7f19457468657265756d205369676e6564204d6573736167653a0a333200000000600082015250565b7f4552433732313a207472616e7366657220746f206e6f6e20455243373231526560008201527f63656976657220696d706c656d656e7465720000000000000000000000000000602082015250565b7f4552433732313a20746f6b656e20616c7265616479206d696e74656400000000600082015250565b7f1901000000000000000000000000000000000000000000000000000000000000600082015250565b7f4552433732313a207472616e7366657220746f20746865207a65726f2061646460008201527f7265737300000000000000000000000000000000000000000000000000000000602082015250565b7f4552433732313a20617070726f766520746f2063616c6c657200000000000000600082015250565b7f45434453413a20696e76616c6964207369676e6174757265202773272076616c60008201527f7565000000000000000000000000000000000000000000000000000000000000602082015250565b7f4552433732313a206f70657261746f7220717565727920666f72206e6f6e657860008201527f697374656e7420746f6b656e0000000000000000000000000000000000000000602082015250565b7f4552433732313a20617070726f76652063616c6c6572206973206e6f74206f7760008201527f6e6572206e6f7220617070726f76656420666f7220616c6c0000000000000000602082015250565b7f4552433732313a2062616c616e636520717565727920666f7220746865207a6560008201527f726f206164647265737300000000000000000000000000000000000000000000602082015250565b7f4552433732313a206f776e657220717565727920666f72206e6f6e657869737460008201527f656e7420746f6b656e0000000000000000000000000000000000000000000000602082015250565b7f45524337323155524953746f726167653a2055524920736574206f66206e6f6e60008201527f6578697374656e7420746f6b656e000000000000000000000000000000000000602082015250565b7f45434453413a20696e76616c6964207369676e6174757265202776272076616c60008201527f7565000000000000000000000000000000000000000000000000000000000000602082015250565b7f496e73756666696369656e742066756e647320746f2072656465656d00000000600082015250565b7f4552433732313a206d696e7420746f20746865207a65726f2061646472657373600082015250565b7f45524337323155524953746f726167653a2055524920717565727920666f722060008201527f6e6f6e6578697374656e7420746f6b656e000000000000000000000000000000602082015250565b7f4552433732313a20617070726f76656420717565727920666f72206e6f6e657860008201527f697374656e7420746f6b656e0000000000000000000000000000000000000000602082015250565b7f4552433732313a207472616e73666572206f6620746f6b656e2074686174206960008201527f73206e6f74206f776e0000000000000000000000000000000000000000000000602082015250565b7f4552433732314d657461646174613a2055524920717565727920666f72206e6f60008201527f6e6578697374656e7420746f6b656e0000000000000000000000000000000000602082015250565b7f4f6e6c7920617574686f72697a6564206d696e746572732063616e207769746860008201527f6472617700000000000000000000000000000000000000000000000000000000602082015250565b7f4552433732313a20617070726f76616c20746f2063757272656e74206f776e6560008201527f7200000000000000000000000000000000000000000000000000000000000000602082015250565b7f5369676e617475726520696e76616c6964206f7220756e617574686f72697a6560008201527f6400000000000000000000000000000000000000000000000000000000000000602082015250565b7f4552433732313a207472616e736665722063616c6c6572206973206e6f74206f60008201527f776e6572206e6f7220617070726f766564000000000000000000000000000000602082015250565b7f416363657373436f6e74726f6c3a206163636f756e7420000000000000000000600082015250565b7f206973206d697373696e6720726f6c6520000000000000000000000000000000600082015250565b7f416363657373436f6e74726f6c3a2063616e206f6e6c792072656e6f756e636560008201527f20726f6c657320666f722073656c660000000000000000000000000000000000602082015250565b61506581614660565b811461507057600080fd5b50565b61507c81614672565b811461508757600080fd5b50565b6150938161467e565b811461509e57600080fd5b50565b6150aa81614688565b81146150b557600080fd5b50565b6150c1816146d4565b81146150cc57600080fd5b5056fea2646970667358221220f0ce09bd1e73aecaaef33b8e59b1cc5725444df271cc05a904a5f3745e5d148164736f6c63430008040033",
  "linkReferences": {},
  "deployedLinkReferences": {}
}