{
  "_format": "hh-sol-artifact-1",
  "contractName": "LazyNFT",
  "sourceName": "contracts/LazyNFT.sol",
  "abi": [
    {
      "inputs": [
        {
          "internalType": "address payable",
          "name": "minter",
          "type": "address"
        }
      ],
      "stateMutability": "nonpayable",
      "type": "constructor"
    },
    {
      "anonymous": false,
      "inputs": [
        {
          "indexed": true,
          "internalType": "address",
          "name": "owner",
          "type": "address"
        },
        {
          "indexed": true,
          "internalType": "address",
          "name": "approved",
          "type": "address"
        },
        {
          "indexed": true,
          "internalType": "uint256",
          "name": "tokenId",
          "type": "uint256"
        }
      ],
      "name": "Approval",
      "type": "event"
    },
    {
      "anonymous": false,
      "inputs": [
        {
          "indexed": true,
          "internalType": "address",
          "name": "owner",
          "type": "address"
        },
        {
          "indexed": true,
          "internalType": "address",
          "name": "operator",
          "type": "address"
        },
        {
          "indexed": false,
          "internalType": "bool",
          "name": "approved",
          "type": "bool"
        }
      ],
      "name": "ApprovalForAll",
      "type": "event"
    },
    {
      "anonymous": false,
      "inputs": [
        {
          "indexed": true,
          "internalType": "bytes32",
          "name": "role",
          "type": "bytes32"
        },
        {
          "indexed": true,
          "internalType": "bytes32",
          "name": "previousAdminRole",
          "type": "bytes32"
        },
        {
          "indexed": true,
          "internalType": "bytes32",
          "name": "newAdminRole",
          "type": "bytes32"
        }
      ],
      "name": "RoleAdminChanged",
      "type": "event"
    },
    {
      "anonymous": false,
      "inputs": [
        {
          "indexed": true,
          "internalType": "bytes32",
          "name": "role",
          "type": "bytes32"
        },
        {
          "indexed": true,
          "internalType": "address",
          "name": "account",
          "type": "address"
        },
        {
          "indexed": true,
          "internalType": "address",
          "name": "sender",
          "type": "address"
        }
      ],
      "name": "RoleGranted",
      "type": "event"
    },
    {
      "anonymous": false,
      "inputs": [
        {
          "indexed": true,
          "internalType": "bytes32",
          "name": "role",
          "type": "bytes32"
        },
        {
          "indexed": true,
          "internalType": "address",
          "name": "account",
          "type": "address"
        },
        {
          "indexed": true,
          "internalType": "address",
          "name": "sender",
          "type": "address"
        }
      ],
      "name": "RoleRevoked",
      "type": "event"
    },
    {
      "anonymous": false,
      "inputs": [
        {
          "indexed": true,
          "internalType": "address",
          "name": "from",
          "type": "address"
        },
        {
          "indexed": true,
          "internalType": "address",
          "name": "to",
          "type": "address"
        },
        {
          "indexed": true,
          "internalType": "uint256",
          "name": "tokenId",
          "type": "uint256"
        }
      ],
      "name": "Transfer",
      "type": "event"
    },
    {
      "inputs": [],
      "name": "DEFAULT_ADMIN_ROLE",
      "outputs": [
        {
          "internalType": "bytes32",
          "name": "",
          "type": "bytes32"
        }
      ],
      "stateMutability": "view",
      "type": "function"
    },
    {
      "inputs": [],
      "name": "MINTER_ROLE",
      "outputs": [
        {
          "internalType": "bytes32",
          "name": "",
          "type": "bytes32"
        }
      ],
      "stateMutability": "view",
      "type": "function"
    },
    {
      "inputs": [
        {
          "internalType": "address",
          "name": "to",
          "type": "address"
        },
        {
          "internalType": "uint256",
          "name": "tokenId",
          "type": "uint256"
        }
      ],
      "name": "approve",
      "outputs": [],
      "stateMutability": "nonpayable",
      "type": "function"
    },
    {
      "inputs": [],
      "name": "availableToWithdraw",
      "outputs": [
        {
          "internalType": "uint256",
          "name": "",
          "type": "uint256"
        }
      ],
      "stateMutability": "view",
      "type": "function"
    },
    {
      "inputs": [
        {
          "internalType": "address",
          "name": "owner",
          "type": "address"
        }
      ],
      "name": "balanceOf",
      "outputs": [
        {
          "internalType": "uint256",
          "name": "",
          "type": "uint256"
        }
      ],
      "stateMutability": "view",
      "type": "function"
    },
    {
      "inputs": [
        {
          "internalType": "address",
          "name": "_reqAddress",
          "type": "address"
        }
      ],
      "name": "fetchNFTsOwned",
      "outputs": [
        {
          "components": [
            {
              "internalType": "uint256",
              "name": "tokenId",
              "type": "uint256"
            },
            {
              "internalType": "address",
              "name": "owner",
              "type": "address"
            },
            {
              "internalType": "address",
              "name": "creator",
              "type": "address"
            },
            {
              "internalType": "uint256",
              "name": "price",
              "type": "uint256"
            },
            {
              "internalType": "string",
              "name": "uri",
              "type": "string"
            },
            {
              "internalType": "string",
              "name": "collection",
              "type": "string"
            }
          ],
          "internalType": "struct LazyNFT.MarketItem[]",
          "name": "",
          "type": "tuple[]"
        }
      ],
      "stateMutability": "view",
      "type": "function"
    },
    {
      "inputs": [],
      "name": "getAddress",
      "outputs": [
        {
          "internalType": "address",
          "name": "",
          "type": "address"
        }
      ],
      "stateMutability": "view",
      "type": "function"
    },
    {
      "inputs": [
        {
          "internalType": "uint256",
          "name": "tokenId",
          "type": "uint256"
        }
      ],
      "name": "getApproved",
      "outputs": [
        {
          "internalType": "address",
          "name": "",
          "type": "address"
        }
      ],
      "stateMutability": "view",
      "type": "function"
    },
    {
      "inputs": [
        {
          "internalType": "bytes32",
          "name": "role",
          "type": "bytes32"
        }
      ],
      "name": "getRoleAdmin",
      "outputs": [
        {
          "internalType": "bytes32",
          "name": "",
          "type": "bytes32"
        }
      ],
      "stateMutability": "view",
      "type": "function"
    },
    {
      "inputs": [
        {
          "internalType": "bytes32",
          "name": "role",
          "type": "bytes32"
        },
        {
          "internalType": "address",
          "name": "account",
          "type": "address"
        }
      ],
      "name": "grantRole",
      "outputs": [],
      "stateMutability": "nonpayable",
      "type": "function"
    },
    {
      "inputs": [
        {
          "internalType": "bytes32",
          "name": "role",
          "type": "bytes32"
        },
        {
          "internalType": "address",
          "name": "account",
          "type": "address"
        }
      ],
      "name": "hasRole",
      "outputs": [
        {
          "internalType": "bool",
          "name": "",
          "type": "bool"
        }
      ],
      "stateMutability": "view",
      "type": "function"
    },
    {
      "inputs": [
        {
          "internalType": "address",
          "name": "owner",
          "type": "address"
        },
        {
          "internalType": "address",
          "name": "operator",
          "type": "address"
        }
      ],
      "name": "isApprovedForAll",
      "outputs": [
        {
          "internalType": "bool",
          "name": "",
          "type": "bool"
        }
      ],
      "stateMutability": "view",
      "type": "function"
    },
    {
      "inputs": [],
      "name": "name",
      "outputs": [
        {
          "internalType": "string",
          "name": "",
          "type": "string"
        }
      ],
      "stateMutability": "view",
      "type": "function"
    },
    {
      "inputs": [
        {
          "internalType": "uint256",
          "name": "tokenId",
          "type": "uint256"
        }
      ],
      "name": "ownerOf",
      "outputs": [
        {
          "internalType": "address",
          "name": "",
          "type": "address"
        }
      ],
      "stateMutability": "view",
      "type": "function"
    },
    {
      "inputs": [
        {
          "internalType": "address",
          "name": "redeemer",
          "type": "address"
        },
        {
          "components": [
            {
              "internalType": "uint256",
              "name": "tokenId",
              "type": "uint256"
            },
            {
              "internalType": "uint256",
              "name": "minPrice",
              "type": "uint256"
            },
            {
              "internalType": "string",
              "name": "uri",
              "type": "string"
            },
            {
              "internalType": "string",
              "name": "collection",
              "type": "string"
            }
          ],
          "internalType": "struct LazyNFT.NFTVoucher",
          "name": "voucher",
          "type": "tuple"
        },
        {
          "internalType": "bytes",
          "name": "signature",
          "type": "bytes"
        }
      ],
      "name": "redeem",
      "outputs": [
        {
          "internalType": "uint256",
          "name": "",
          "type": "uint256"
        }
      ],
      "stateMutability": "payable",
      "type": "function"
    },
    {
      "inputs": [
        {
          "internalType": "bytes32",
          "name": "role",
          "type": "bytes32"
        },
        {
          "internalType": "address",
          "name": "account",
          "type": "address"
        }
      ],
      "name": "renounceRole",
      "outputs": [],
      "stateMutability": "nonpayable",
      "type": "function"
    },
    {
      "inputs": [
        {
          "internalType": "bytes32",
          "name": "role",
          "type": "bytes32"
        },
        {
          "internalType": "address",
          "name": "account",
          "type": "address"
        }
      ],
      "name": "revokeRole",
      "outputs": [],
      "stateMutability": "nonpayable",
      "type": "function"
    },
    {
      "inputs": [
        {
          "internalType": "address",
          "name": "from",
          "type": "address"
        },
        {
          "internalType": "address",
          "name": "to",
          "type": "address"
        },
        {
          "internalType": "uint256",
          "name": "tokenId",
          "type": "uint256"
        }
      ],
      "name": "safeTransferFrom",
      "outputs": [],
      "stateMutability": "nonpayable",
      "type": "function"
    },
    {
      "inputs": [
        {
          "internalType": "address",
          "name": "from",
          "type": "address"
        },
        {
          "internalType": "address",
          "name": "to",
          "type": "address"
        },
        {
          "internalType": "uint256",
          "name": "tokenId",
          "type": "uint256"
        },
        {
          "internalType": "bytes",
          "name": "_data",
          "type": "bytes"
        }
      ],
      "name": "safeTransferFrom",
      "outputs": [],
      "stateMutability": "nonpayable",
      "type": "function"
    },
    {
      "inputs": [
        {
          "internalType": "address",
          "name": "operator",
          "type": "address"
        },
        {
          "internalType": "bool",
          "name": "approved",
          "type": "bool"
        }
      ],
      "name": "setApprovalForAll",
      "outputs": [],
      "stateMutability": "nonpayable",
      "type": "function"
    },
    {
      "inputs": [
        {
          "internalType": "bytes4",
          "name": "interfaceId",
          "type": "bytes4"
        }
      ],
      "name": "supportsInterface",
      "outputs": [
        {
          "internalType": "bool",
          "name": "",
          "type": "bool"
        }
      ],
      "stateMutability": "view",
      "type": "function"
    },
    {
      "inputs": [],
      "name": "symbol",
      "outputs": [
        {
          "internalType": "string",
          "name": "",
          "type": "string"
        }
      ],
      "stateMutability": "view",
      "type": "function"
    },
    {
      "inputs": [
        {
          "internalType": "uint256",
          "name": "tokenId",
          "type": "uint256"
        }
      ],
      "name": "tokenURI",
      "outputs": [
        {
          "internalType": "string",
          "name": "",
          "type": "string"
        }
      ],
      "stateMutability": "view",
      "type": "function"
    },
    {
      "inputs": [
        {
          "internalType": "address",
          "name": "from",
          "type": "address"
        },
        {
          "internalType": "address",
          "name": "to",
          "type": "address"
        },
        {
          "internalType": "uint256",
          "name": "tokenId",
          "type": "uint256"
        }
      ],
      "name": "transferFrom",
      "outputs": [],
      "stateMutability": "nonpayable",
      "type": "function"
    },
    {
      "inputs": [],
      "name": "withdraw",
      "outputs": [],
      "stateMutability": "nonpayable",
      "type": "function"
    }
  ],
  "bytecode": "0x6101206040523480156200001257600080fd5b50604051620056a3380380620056a3833981810160405281019062000038919062000478565b6040518060400160405280600f81526020017f4c617a794e46542d566f756368657200000000000000000000000000000000008152506040518060400160405280600181526020017f31000000000000000000000000000000000000000000000000000000000000008152506040518060400160405280600781526020017f4c617a794e4654000000000000000000000000000000000000000000000000008152506040518060400160405280600381526020017f4c415a0000000000000000000000000000000000000000000000000000000000815250816000908051906020019062000128929190620003b1565b50806001908051906020019062000141929190620003b1565b50505060008280519060200120905060008280519060200120905060007f8b73c3c69bb8fe3d512ecc4cf759cc79239f7b179b0ffacaa9a75d522b39400f90508260c081815250508160e081815250504660a08181525050620001ac818484620001fa60201b60201c565b608081815250508061010081815250505050505050620001f37f9f2df0fed2c77648de5860a4cc508cd0818c85b8b8a1ab4ceeef8d981c8956a6826200023660201b60201c565b506200060f565b6000838383463060405160200162000217959493929190620004d7565b6040516020818303038152906040528051906020012090509392505050565b6200024882826200024c60201b60201c565b5050565b6200025e82826200033e60201b60201c565b6200033a5760016007600084815260200190815260200160002060000160008373ffffffffffffffffffffffffffffffffffffffff1673ffffffffffffffffffffffffffffffffffffffff16815260200190815260200160002060006101000a81548160ff021916908315150217905550620002df620003a960201b60201c565b73ffffffffffffffffffffffffffffffffffffffff168173ffffffffffffffffffffffffffffffffffffffff16837f2f8788117e7eff1d82e926ec794901d17c78024a50270940304540a733656f0d60405160405180910390a45b5050565b60006007600084815260200190815260200160002060000160008373ffffffffffffffffffffffffffffffffffffffff1673ffffffffffffffffffffffffffffffffffffffff16815260200190815260200160002060009054906101000a900460ff16905092915050565b600033905090565b828054620003bf9062000590565b90600052602060002090601f016020900481019282620003e357600085556200042f565b82601f10620003fe57805160ff19168380011785556200042f565b828001600101855582156200042f579182015b828111156200042e57825182559160200191906001019062000411565b5b5090506200043e919062000442565b5090565b5b808211156200045d57600081600090555060010162000443565b5090565b6000815190506200047281620005f5565b92915050565b6000602082840312156200048b57600080fd5b60006200049b8482850162000461565b91505092915050565b620004af8162000534565b82525050565b620004c0816200055c565b82525050565b620004d18162000586565b82525050565b600060a082019050620004ee6000830188620004b5565b620004fd6020830187620004b5565b6200050c6040830186620004b5565b6200051b6060830185620004c6565b6200052a6080830184620004a4565b9695505050505050565b6000620005418262000566565b9050919050565b6000620005558262000566565b9050919050565b6000819050919050565b600073ffffffffffffffffffffffffffffffffffffffff82169050919050565b6000819050919050565b60006002820490506001821680620005a957607f821691505b60208210811415620005c057620005bf620005c6565b5b50919050565b7f4e487b7100000000000000000000000000000000000000000000000000000000600052602260045260246000fd5b620006008162000548565b81146200060c57600080fd5b50565b60805160a05160c05160e0516101005161504f620006546000396000613006015260006130480152600061302701526000612fb301526000612fdb015261504f6000f3fe6080604052600436106101665760003560e01c806370a08231116100d1578063b88d4fde1161008a578063d547741f11610064578063d547741f14610560578063e322ad2b14610589578063e985e9c5146105b4578063f045de2e146105f157610166565b8063b88d4fde146104cf578063c87b56dd146104f8578063d53913931461053557610166565b806370a08231146103995780637197de7c146103d657806391d148541461041357806395d89b4114610450578063a217fddf1461047b578063a22cb465146104a657610166565b80632f2ff15d116101235780632f2ff15d1461029f57806336568abe146102c857806338cc4831146102f15780633ccfd60b1461031c57806342842e0e146103335780636352211e1461035c57610166565b806301ffc9a71461016b57806306fdde03146101a8578063081812fc146101d3578063095ea7b31461021057806323b872dd14610239578063248a9ca314610262575b600080fd5b34801561017757600080fd5b50610192600480360381019061018d9190613669565b610621565b60405161019f9190613ed2565b60405180910390f35b3480156101b457600080fd5b506101bd610643565b6040516101ca9190613ff3565b60405180910390f35b3480156101df57600080fd5b506101fa60048036038101906101f591906136bb565b6106d5565b6040516102079190613e49565b60405180910390f35b34801561021c57600080fd5b50610237600480360381019061023291906135c8565b61075a565b005b34801561024557600080fd5b50610260600480360381019061025b9190613443565b610872565b005b34801561026e57600080fd5b5061028960048036038101906102849190613604565b6108d2565b6040516102969190613eed565b60405180910390f35b3480156102ab57600080fd5b506102c660048036038101906102c1919061362d565b6108f2565b005b3480156102d457600080fd5b506102ef60048036038101906102ea919061362d565b61091b565b005b3480156102fd57600080fd5b5061030661099e565b6040516103139190613e49565b60405180910390f35b34801561032857600080fd5b506103316109a6565b005b34801561033f57600080fd5b5061035a60048036038101906103559190613443565b610ae8565b005b34801561036857600080fd5b50610383600480360381019061037e91906136bb565b610b08565b6040516103909190613e49565b60405180910390f35b3480156103a557600080fd5b506103c060048036038101906103bb91906133de565b610bba565b6040516103cd9190614335565b60405180910390f35b3480156103e257600080fd5b506103fd60048036038101906103f891906133de565b610c72565b60405161040a9190613eb0565b60405180910390f35b34801561041f57600080fd5b5061043a6004803603810190610435919061362d565b610ef4565b6040516104479190613ed2565b60405180910390f35b34801561045c57600080fd5b50610465610f5f565b6040516104729190613ff3565b60405180910390f35b34801561048757600080fd5b50610490610ff1565b60405161049d9190613eed565b60405180910390f35b3480156104b257600080fd5b506104cd60048036038101906104c8919061350d565b610ff8565b005b3480156104db57600080fd5b506104f660048036038101906104f19190613492565b611179565b005b34801561050457600080fd5b5061051f600480360381019061051a91906136bb565b6111db565b60405161052c9190613ff3565b60405180910390f35b34801561054157600080fd5b5061054a61132d565b6040516105579190613eed565b60405180910390f35b34801561056c57600080fd5b506105876004803603810190610582919061362d565b611351565b005b34801561059557600080fd5b5061059e61137a565b6040516105ab9190614335565b60405180910390f35b3480156105c057600080fd5b506105db60048036038101906105d69190613407565b6113c1565b6040516105e89190613ed2565b60405180910390f35b61060b60048036038101906106069190613549565b611455565b6040516106189190614335565b60405180910390f35b600061062c82611847565b8061063c575061063b82611929565b5b9050919050565b606060008054610652906146a1565b80601f016020809104026020016040519081016040528092919081815260200182805461067e906146a1565b80156106cb5780601f106106a0576101008083540402835291602001916106cb565b820191906000526020600020905b8154815290600101906020018083116106ae57829003601f168201915b5050505050905090565b60006106e0826119a3565b61071f576040517f08c379a000000000000000000000000000000000000000000000000000000000815260040161071690614235565b60405180910390fd5b6004600083815260200190815260200160002060009054906101000a900473ffffffffffffffffffffffffffffffffffffffff169050919050565b600061076582610b08565b90508073ffffffffffffffffffffffffffffffffffffffff168373ffffffffffffffffffffffffffffffffffffffff1614156107d6576040517f08c379a00000000000000000000000000000000000000000000000000000000081526004016107cd906142b5565b60405180910390fd5b8073ffffffffffffffffffffffffffffffffffffffff166107f5611a0f565b73ffffffffffffffffffffffffffffffffffffffff16148061082457506108238161081e611a0f565b6113c1565b5b610863576040517f08c379a000000000000000000000000000000000000000000000000000000000815260040161085a90614135565b60405180910390fd5b61086d8383611a17565b505050565b61088361087d611a0f565b82611ad0565b6108c2576040517f08c379a00000000000000000000000000000000000000000000000000000000081526004016108b9906142f5565b60405180910390fd5b6108cd838383611bae565b505050565b600060076000838152602001908152602001600020600101549050919050565b6108fb826108d2565b61090c81610907611a0f565b611e0a565b6109168383611ea7565b505050565b610923611a0f565b73ffffffffffffffffffffffffffffffffffffffff168173ffffffffffffffffffffffffffffffffffffffff1614610990576040517f08c379a000000000000000000000000000000000000000000000000000000000815260040161098790614315565b60405180910390fd5b61099a8282611f88565b5050565b600030905090565b6109d07f9f2df0fed2c77648de5860a4cc508cd0818c85b8b8a1ab4ceeef8d981c8956a633610ef4565b610a0f576040517f08c379a0000000000000000000000000000000000000000000000000000000008152600401610a0690614295565b60405180910390fd5b60003390506000600a60008373ffffffffffffffffffffffffffffffffffffffff1673ffffffffffffffffffffffffffffffffffffffff1681526020019081526020016000205490506000600a60008473ffffffffffffffffffffffffffffffffffffffff1673ffffffffffffffffffffffffffffffffffffffff168152602001908152602001600020819055508173ffffffffffffffffffffffffffffffffffffffff166108fc829081150290604051600060405180830381858888f19350505050158015610ae3573d6000803e3d6000fd5b505050565b610b0383838360405180602001604052806000815250611179565b505050565b6000806002600084815260200190815260200160002060009054906101000a900473ffffffffffffffffffffffffffffffffffffffff169050600073ffffffffffffffffffffffffffffffffffffffff168173ffffffffffffffffffffffffffffffffffffffff161415610bb1576040517f08c379a0000000000000000000000000000000000000000000000000000000008152600401610ba890614175565b60405180910390fd5b80915050919050565b60008073ffffffffffffffffffffffffffffffffffffffff168273ffffffffffffffffffffffffffffffffffffffff161415610c2b576040517f08c379a0000000000000000000000000000000000000000000000000000000008152600401610c2290614155565b60405180910390fd5b600360008373ffffffffffffffffffffffffffffffffffffffff1673ffffffffffffffffffffffffffffffffffffffff168152602001908152602001600020549050919050565b6060600b60008373ffffffffffffffffffffffffffffffffffffffff1673ffffffffffffffffffffffffffffffffffffffff168152602001908152602001600020805480602002602001604051908101604052809291908181526020016000905b82821015610ee957838290600052602060002090600602016040518060c0016040529081600082015481526020016001820160009054906101000a900473ffffffffffffffffffffffffffffffffffffffff1673ffffffffffffffffffffffffffffffffffffffff1673ffffffffffffffffffffffffffffffffffffffff1681526020016002820160009054906101000a900473ffffffffffffffffffffffffffffffffffffffff1673ffffffffffffffffffffffffffffffffffffffff1673ffffffffffffffffffffffffffffffffffffffff16815260200160038201548152602001600482018054610dc6906146a1565b80601f0160208091040260200160405190810160405280929190818152602001828054610df2906146a1565b8015610e3f5780601f10610e1457610100808354040283529160200191610e3f565b820191906000526020600020905b815481529060010190602001808311610e2257829003601f168201915b50505050508152602001600582018054610e58906146a1565b80601f0160208091040260200160405190810160405280929190818152602001828054610e84906146a1565b8015610ed15780601f10610ea657610100808354040283529160200191610ed1565b820191906000526020600020905b815481529060010190602001808311610eb457829003601f168201915b50505050508152505081526020019060010190610cd3565b505050509050919050565b60006007600084815260200190815260200160002060000160008373ffffffffffffffffffffffffffffffffffffffff1673ffffffffffffffffffffffffffffffffffffffff16815260200190815260200160002060009054906101000a900460ff16905092915050565b606060018054610f6e906146a1565b80601f0160208091040260200160405190810160405280929190818152602001828054610f9a906146a1565b8015610fe75780601f10610fbc57610100808354040283529160200191610fe7565b820191906000526020600020905b815481529060010190602001808311610fca57829003601f168201915b5050505050905090565b6000801b81565b611000611a0f565b73ffffffffffffffffffffffffffffffffffffffff168273ffffffffffffffffffffffffffffffffffffffff16141561106e576040517f08c379a0000000000000000000000000000000000000000000000000000000008152600401611065906140d5565b60405180910390fd5b806005600061107b611a0f565b73ffffffffffffffffffffffffffffffffffffffff1673ffffffffffffffffffffffffffffffffffffffff16815260200190815260200160002060008473ffffffffffffffffffffffffffffffffffffffff1673ffffffffffffffffffffffffffffffffffffffff16815260200190815260200160002060006101000a81548160ff0219169083151502179055508173ffffffffffffffffffffffffffffffffffffffff16611128611a0f565b73ffffffffffffffffffffffffffffffffffffffff167f17307eab39ab6107e8899845ad3d59bd9653f200f220920489ca2b5937696c318360405161116d9190613ed2565b60405180910390a35050565b61118a611184611a0f565b83611ad0565b6111c9576040517f08c379a00000000000000000000000000000000000000000000000000000000081526004016111c0906142f5565b60405180910390fd5b6111d58484848461206a565b50505050565b60606111e6826119a3565b611225576040517f08c379a000000000000000000000000000000000000000000000000000000000815260040161121c90614215565b60405180910390fd5b6000600660008481526020019081526020016000208054611245906146a1565b80601f0160208091040260200160405190810160405280929190818152602001828054611271906146a1565b80156112be5780601f10611293576101008083540402835291602001916112be565b820191906000526020600020905b8154815290600101906020018083116112a157829003601f168201915b5050505050905060006112cf6120c6565b90506000815114156112e5578192505050611328565b60008251111561131a578082604051602001611302929190613d8e565b60405160208183030381529060405292505050611328565b611323846120dd565b925050505b919050565b7f9f2df0fed2c77648de5860a4cc508cd0818c85b8b8a1ab4ceeef8d981c8956a681565b61135a826108d2565b61136b81611366611a0f565b611e0a565b6113758383611f88565b505050565b6000600a60003373ffffffffffffffffffffffffffffffffffffffff1673ffffffffffffffffffffffffffffffffffffffff16815260200190815260200160002054905090565b6000600560008473ffffffffffffffffffffffffffffffffffffffff1673ffffffffffffffffffffffffffffffffffffffff16815260200190815260200160002060008373ffffffffffffffffffffffffffffffffffffffff1673ffffffffffffffffffffffffffffffffffffffff16815260200190815260200160002060009054906101000a900460ff16905092915050565b6000806114628484612184565b905061148e7f9f2df0fed2c77648de5860a4cc508cd0818c85b8b8a1ab4ceeef8d981c8956a682610ef4565b6114cd576040517f08c379a00000000000000000000000000000000000000000000000000000000081526004016114c4906142d5565b60405180910390fd5b8360200135341015611514576040517f08c379a000000000000000000000000000000000000000000000000000000000815260040161150b906141d5565b60405180910390fd5b6115228185600001356121b6565b611582846000013585806040019061153a9190614350565b8080601f016020809104026020016040519081016040528093929190818152602001838380828437600081840152601f19601f82011690508083019250505050505050612384565b60006040518060c00160405280866000013581526020018773ffffffffffffffffffffffffffffffffffffffff1681526020018373ffffffffffffffffffffffffffffffffffffffff168152602001866020013581526020018680604001906115eb9190614350565b8080601f016020809104026020016040519081016040528093929190818152602001838380828437600081840152601f19601f8201169050808301925050505050505081526020018680606001906116439190614350565b8080601f016020809104026020016040519081016040528093929190818152602001838380828437600081840152601f19601f820116905080830192505050505050508152509050600b60008773ffffffffffffffffffffffffffffffffffffffff1673ffffffffffffffffffffffffffffffffffffffff1681526020019081526020016000208190806001815401808255809150506001900390600052602060002090600602016000909190919091506000820151816000015560208201518160010160006101000a81548173ffffffffffffffffffffffffffffffffffffffff021916908373ffffffffffffffffffffffffffffffffffffffff16021790555060408201518160020160006101000a81548173ffffffffffffffffffffffffffffffffffffffff021916908373ffffffffffffffffffffffffffffffffffffffff1602179055506060820151816003015560808201518160040190805190602001906117b292919061323a565b5060a08201518160050190805190602001906117cf92919061323a565b5050506117e182878760000135611bae565b34600a60008473ffffffffffffffffffffffffffffffffffffffff1673ffffffffffffffffffffffffffffffffffffffff16815260200190815260200160002060008282546118309190614495565b925050819055508460000135925050509392505050565b60007f80ac58cd000000000000000000000000000000000000000000000000000000007bffffffffffffffffffffffffffffffffffffffffffffffffffffffff1916827bffffffffffffffffffffffffffffffffffffffffffffffffffffffff1916148061191257507f5b5e139f000000000000000000000000000000000000000000000000000000007bffffffffffffffffffffffffffffffffffffffffffffffffffffffff1916827bffffffffffffffffffffffffffffffffffffffffffffffffffffffff1916145b806119225750611921826123f8565b5b9050919050565b60007f7965db0b000000000000000000000000000000000000000000000000000000007bffffffffffffffffffffffffffffffffffffffffffffffffffffffff1916827bffffffffffffffffffffffffffffffffffffffffffffffffffffffff1916148061199c575061199b82611847565b5b9050919050565b60008073ffffffffffffffffffffffffffffffffffffffff166002600084815260200190815260200160002060009054906101000a900473ffffffffffffffffffffffffffffffffffffffff1673ffffffffffffffffffffffffffffffffffffffff1614159050919050565b600033905090565b816004600083815260200190815260200160002060006101000a81548173ffffffffffffffffffffffffffffffffffffffff021916908373ffffffffffffffffffffffffffffffffffffffff160217905550808273ffffffffffffffffffffffffffffffffffffffff16611a8a83610b08565b73ffffffffffffffffffffffffffffffffffffffff167f8c5be1e5ebec7d5bd14f71427d1e84f3dd0314c0f7b2291e5b200ac8c7c3b92560405160405180910390a45050565b6000611adb826119a3565b611b1a576040517f08c379a0000000000000000000000000000000000000000000000000000000008152600401611b1190614115565b60405180910390fd5b6000611b2583610b08565b90508073ffffffffffffffffffffffffffffffffffffffff168473ffffffffffffffffffffffffffffffffffffffff161480611b9457508373ffffffffffffffffffffffffffffffffffffffff16611b7c846106d5565b73ffffffffffffffffffffffffffffffffffffffff16145b80611ba55750611ba481856113c1565b5b91505092915050565b8273ffffffffffffffffffffffffffffffffffffffff16611bce82610b08565b73ffffffffffffffffffffffffffffffffffffffff1614611c24576040517f08c379a0000000000000000000000000000000000000000000000000000000008152600401611c1b90614255565b60405180910390fd5b600073ffffffffffffffffffffffffffffffffffffffff168273ffffffffffffffffffffffffffffffffffffffff161415611c94576040517f08c379a0000000000000000000000000000000000000000000000000000000008152600401611c8b906140b5565b60405180910390fd5b611c9f838383612462565b611caa600082611a17565b6001600360008573ffffffffffffffffffffffffffffffffffffffff1673ffffffffffffffffffffffffffffffffffffffff1681526020019081526020016000206000828254611cfa9190614576565b925050819055506001600360008473ffffffffffffffffffffffffffffffffffffffff1673ffffffffffffffffffffffffffffffffffffffff1681526020019081526020016000206000828254611d519190614495565b92505081905550816002600083815260200190815260200160002060006101000a81548173ffffffffffffffffffffffffffffffffffffffff021916908373ffffffffffffffffffffffffffffffffffffffff160217905550808273ffffffffffffffffffffffffffffffffffffffff168473ffffffffffffffffffffffffffffffffffffffff167fddf252ad1be2c89b69c2b068fc378daa952ba7f163c4a11628f55a4df523b3ef60405160405180910390a4505050565b611e148282610ef4565b611ea357611e398173ffffffffffffffffffffffffffffffffffffffff166014612467565b611e478360001c6020612467565b604051602001611e58929190613e0f565b6040516020818303038152906040526040517f08c379a0000000000000000000000000000000000000000000000000000000008152600401611e9a9190613ff3565b60405180910390fd5b5050565b611eb18282610ef4565b611f845760016007600084815260200190815260200160002060000160008373ffffffffffffffffffffffffffffffffffffffff1673ffffffffffffffffffffffffffffffffffffffff16815260200190815260200160002060006101000a81548160ff021916908315150217905550611f29611a0f565b73ffffffffffffffffffffffffffffffffffffffff168173ffffffffffffffffffffffffffffffffffffffff16837f2f8788117e7eff1d82e926ec794901d17c78024a50270940304540a733656f0d60405160405180910390a45b5050565b611f928282610ef4565b156120665760006007600084815260200190815260200160002060000160008373ffffffffffffffffffffffffffffffffffffffff1673ffffffffffffffffffffffffffffffffffffffff16815260200190815260200160002060006101000a81548160ff02191690831515021790555061200b611a0f565b73ffffffffffffffffffffffffffffffffffffffff168173ffffffffffffffffffffffffffffffffffffffff16837ff6391f5c32d9c69d2a47ea670b442974b53935d1edc7fd64eb21e047a839171b60405160405180910390a45b5050565b612075848484611bae565b61208184848484612761565b6120c0576040517f08c379a00000000000000000000000000000000000000000000000000000000081526004016120b790614075565b60405180910390fd5b50505050565b606060405180602001604052806000815250905090565b60606120e8826119a3565b612127576040517f08c379a000000000000000000000000000000000000000000000000000000000815260040161211e90614275565b60405180910390fd5b60006121316120c6565b90506000815111612151576040518060200160405280600081525061217c565b8061215b846128f8565b60405160200161216c929190613d8e565b6040516020818303038152906040525b915050919050565b60008061219084612aa5565b90506121ad8361219f83612b57565b612b8790919063ffffffff16565b91505092915050565b600073ffffffffffffffffffffffffffffffffffffffff168273ffffffffffffffffffffffffffffffffffffffff161415612226576040517f08c379a000000000000000000000000000000000000000000000000000000000815260040161221d906141f5565b60405180910390fd5b61222f816119a3565b1561226f576040517f08c379a000000000000000000000000000000000000000000000000000000000815260040161226690614095565b60405180910390fd5b61227b60008383612462565b6001600360008473ffffffffffffffffffffffffffffffffffffffff1673ffffffffffffffffffffffffffffffffffffffff16815260200190815260200160002060008282546122cb9190614495565b92505081905550816002600083815260200190815260200160002060006101000a81548173ffffffffffffffffffffffffffffffffffffffff021916908373ffffffffffffffffffffffffffffffffffffffff160217905550808273ffffffffffffffffffffffffffffffffffffffff16600073ffffffffffffffffffffffffffffffffffffffff167fddf252ad1be2c89b69c2b068fc378daa952ba7f163c4a11628f55a4df523b3ef60405160405180910390a45050565b61238d826119a3565b6123cc576040517f08c379a00000000000000000000000000000000000000000000000000000000081526004016123c390614195565b60405180910390fd5b806006600084815260200190815260200160002090805190602001906123f392919061323a565b505050565b60007f01ffc9a7000000000000000000000000000000000000000000000000000000007bffffffffffffffffffffffffffffffffffffffffffffffffffffffff1916827bffffffffffffffffffffffffffffffffffffffffffffffffffffffff1916149050919050565b505050565b60606000600283600261247a919061451c565b6124849190614495565b67ffffffffffffffff8111156124c3577f4e487b7100000000000000000000000000000000000000000000000000000000600052604160045260246000fd5b6040519080825280601f01601f1916602001820160405280156124f55781602001600182028036833780820191505090505b5090507f300000000000000000000000000000000000000000000000000000000000000081600081518110612553577f4e487b7100000000000000000000000000000000000000000000000000000000600052603260045260246000fd5b60200101907effffffffffffffffffffffffffffffffffffffffffffffffffffffffffffff1916908160001a9053507f7800000000000000000000000000000000000000000000000000000000000000816001815181106125dd577f4e487b7100000000000000000000000000000000000000000000000000000000600052603260045260246000fd5b60200101907effffffffffffffffffffffffffffffffffffffffffffffffffffffffffffff1916908160001a9053506000600184600261261d919061451c565b6126279190614495565b90505b6001811115612713577f3031323334353637383961626364656600000000000000000000000000000000600f86166010811061268f577f4e487b7100000000000000000000000000000000000000000000000000000000600052603260045260246000fd5b1a60f81b8282815181106126cc577f4e487b7100000000000000000000000000000000000000000000000000000000600052603260045260246000fd5b60200101907effffffffffffffffffffffffffffffffffffffffffffffffffffffffffffff1916908160001a905350600485901c94508061270c90614677565b905061262a565b5060008414612757576040517f08c379a000000000000000000000000000000000000000000000000000000000815260040161274e90614035565b60405180910390fd5b8091505092915050565b60006127828473ffffffffffffffffffffffffffffffffffffffff16612bae565b156128eb578373ffffffffffffffffffffffffffffffffffffffff1663150b7a026127ab611a0f565b8786866040518563ffffffff1660e01b81526004016127cd9493929190613e64565b602060405180830381600087803b1580156127e757600080fd5b505af192505050801561281857506040513d601f19601f820116820180604052508101906128159190613692565b60015b61289b573d8060008114612848576040519150601f19603f3d011682016040523d82523d6000602084013e61284d565b606091505b50600081511415612893576040517f08c379a000000000000000000000000000000000000000000000000000000000815260040161288a90614075565b60405180910390fd5b805181602001fd5b63150b7a0260e01b7bffffffffffffffffffffffffffffffffffffffffffffffffffffffff1916817bffffffffffffffffffffffffffffffffffffffffffffffffffffffff1916149150506128f0565b600190505b949350505050565b60606000821415612940576040518060400160405280600181526020017f30000000000000000000000000000000000000000000000000000000000000008152509050612aa0565b600082905060005b6000821461297257808061295b90614704565b915050600a8261296b91906144eb565b9150612948565b60008167ffffffffffffffff8111156129b4577f4e487b7100000000000000000000000000000000000000000000000000000000600052604160045260246000fd5b6040519080825280601f01601f1916602001820160405280156129e65781602001600182028036833780820191505090505b5090505b60008514612a99576001826129ff9190614576565b9150600a85612a0e9190614757565b6030612a1a9190614495565b60f81b818381518110612a56577f4e487b7100000000000000000000000000000000000000000000000000000000600052603260045260246000fd5b60200101907effffffffffffffffffffffffffffffffffffffffffffffffffffffffffffff1916908160001a905350600a85612a9291906144eb565b94506129ea565b8093505050505b919050565b6000612b507f2610be69d7e986e75c2b7515aee267e6e34ecf9855631848cd65c06efd75c78b83600001358460200135858060400190612ae59190614350565b604051612af3929190613d75565b6040518091039020868060600190612b0b9190614350565b604051612b19929190613d75565b6040518091039020604051602001612b35959493929190613f5b565b60405160208183030381529060405280519060200120612bc1565b9050919050565b600081604051602001612b6a9190613db2565b604051602081830303815290604052805190602001209050919050565b6000806000612b968585612bdb565b91509150612ba381612c5e565b819250505092915050565b600080823b905060008111915050919050565b6000612bd4612bce612faf565b83613072565b9050919050565b600080604183511415612c1d5760008060006020860151925060408601519150606086015160001a9050612c11878285856130a5565b94509450505050612c57565b604083511415612c4e576000806020850151915060408501519050612c438683836131b2565b935093505050612c57565b60006002915091505b9250929050565b60006004811115612c98577f4e487b7100000000000000000000000000000000000000000000000000000000600052602160045260246000fd5b816004811115612cd1577f4e487b7100000000000000000000000000000000000000000000000000000000600052602160045260246000fd5b1415612cdc57612fac565b60016004811115612d16577f4e487b7100000000000000000000000000000000000000000000000000000000600052602160045260246000fd5b816004811115612d4f577f4e487b7100000000000000000000000000000000000000000000000000000000600052602160045260246000fd5b1415612d90576040517f08c379a0000000000000000000000000000000000000000000000000000000008152600401612d8790614015565b60405180910390fd5b60026004811115612dca577f4e487b7100000000000000000000000000000000000000000000000000000000600052602160045260246000fd5b816004811115612e03577f4e487b7100000000000000000000000000000000000000000000000000000000600052602160045260246000fd5b1415612e44576040517f08c379a0000000000000000000000000000000000000000000000000000000008152600401612e3b90614055565b60405180910390fd5b60036004811115612e7e577f4e487b7100000000000000000000000000000000000000000000000000000000600052602160045260246000fd5b816004811115612eb7577f4e487b7100000000000000000000000000000000000000000000000000000000600052602160045260246000fd5b1415612ef8576040517f08c379a0000000000000000000000000000000000000000000000000000000008152600401612eef906140f5565b60405180910390fd5b600480811115612f31577f4e487b7100000000000000000000000000000000000000000000000000000000600052602160045260246000fd5b816004811115612f6a577f4e487b7100000000000000000000000000000000000000000000000000000000600052602160045260246000fd5b1415612fab576040517f08c379a0000000000000000000000000000000000000000000000000000000008152600401612fa2906141b5565b60405180910390fd5b5b50565b60007f0000000000000000000000000000000000000000000000000000000000000000461415613001577f0000000000000000000000000000000000000000000000000000000000000000905061306f565b61306c7f00000000000000000000000000000000000000000000000000000000000000007f00000000000000000000000000000000000000000000000000000000000000007f0000000000000000000000000000000000000000000000000000000000000000613200565b90505b90565b60008282604051602001613087929190613dd8565b60405160208183030381529060405280519060200120905092915050565b6000807f7fffffffffffffffffffffffffffffff5d576e7357a4501ddfe92f46681b20a08360001c11156130e05760006003915091506131a9565b601b8560ff16141580156130f85750601c8560ff1614155b1561310a5760006004915091506131a9565b60006001878787876040516000815260200160405260405161312f9493929190613fae565b6020604051602081039080840390855afa158015613151573d6000803e3d6000fd5b505050602060405103519050600073ffffffffffffffffffffffffffffffffffffffff168173ffffffffffffffffffffffffffffffffffffffff1614156131a0576000600192509250506131a9565b80600092509250505b94509492505050565b6000806000807f7fffffffffffffffffffffffffffffffffffffffffffffffffffffffffffffff85169150601b8560ff1c0190506131f2878288856130a5565b935093505050935093915050565b6000838383463060405160200161321b959493929190613f08565b6040516020818303038152906040528051906020012090509392505050565b828054613246906146a1565b90600052602060002090601f01602090048101928261326857600085556132af565b82601f1061328157805160ff19168380011785556132af565b828001600101855582156132af579182015b828111156132ae578251825591602001919060010190613293565b5b5090506132bc91906132c0565b5090565b5b808211156132d95760008160009055506001016132c1565b5090565b60006132f06132eb846143cc565b6143a7565b90508281526020810184848401111561330857600080fd5b613313848285614635565b509392505050565b60008135905061332a81614fa6565b92915050565b60008135905061333f81614fbd565b92915050565b60008135905061335481614fd4565b92915050565b60008135905061336981614feb565b92915050565b60008151905061337e81614feb565b92915050565b600082601f83011261339557600080fd5b81356133a58482602086016132dd565b91505092915050565b6000608082840312156133c057600080fd5b81905092915050565b6000813590506133d881615002565b92915050565b6000602082840312156133f057600080fd5b60006133fe8482850161331b565b91505092915050565b6000806040838503121561341a57600080fd5b60006134288582860161331b565b92505060206134398582860161331b565b9150509250929050565b60008060006060848603121561345857600080fd5b60006134668682870161331b565b93505060206134778682870161331b565b9250506040613488868287016133c9565b9150509250925092565b600080600080608085870312156134a857600080fd5b60006134b68782880161331b565b94505060206134c78782880161331b565b93505060406134d8878288016133c9565b925050606085013567ffffffffffffffff8111156134f557600080fd5b61350187828801613384565b91505092959194509250565b6000806040838503121561352057600080fd5b600061352e8582860161331b565b925050602061353f85828601613330565b9150509250929050565b60008060006060848603121561355e57600080fd5b600061356c8682870161331b565b935050602084013567ffffffffffffffff81111561358957600080fd5b613595868287016133ae565b925050604084013567ffffffffffffffff8111156135b257600080fd5b6135be86828701613384565b9150509250925092565b600080604083850312156135db57600080fd5b60006135e98582860161331b565b92505060206135fa858286016133c9565b9150509250929050565b60006020828403121561361657600080fd5b600061362484828501613345565b91505092915050565b6000806040838503121561364057600080fd5b600061364e85828601613345565b925050602061365f8582860161331b565b9150509250929050565b60006020828403121561367b57600080fd5b60006136898482850161335a565b91505092915050565b6000602082840312156136a457600080fd5b60006136b28482850161336f565b91505092915050565b6000602082840312156136cd57600080fd5b60006136db848285016133c9565b91505092915050565b60006136f08383613cb8565b905092915050565b613701816145aa565b82525050565b613710816145aa565b82525050565b60006137218261440d565b61372b818561443b565b93508360208202850161373d856143fd565b8060005b85811015613779578484038952815161375a85826136e4565b94506137658361442e565b925060208a01995050600181019050613741565b50829750879550505050505092915050565b613794816145bc565b82525050565b6137a3816145c8565b82525050565b6137ba6137b5826145c8565b61474d565b82525050565b60006137cc838561445d565b93506137d9838584614635565b82840190509392505050565b60006137f082614418565b6137fa818561444c565b935061380a818560208601614644565b61381381614844565b840191505092915050565b600061382982614423565b6138338185614468565b9350613843818560208601614644565b61384c81614844565b840191505092915050565b600061386282614423565b61386c8185614479565b935061387c818560208601614644565b61388581614844565b840191505092915050565b600061389b82614423565b6138a5818561448a565b93506138b5818560208601614644565b80840191505092915050565b60006138ce601883614479565b91506138d982614855565b602082019050919050565b60006138f1602083614479565b91506138fc8261487e565b602082019050919050565b6000613914601f83614479565b915061391f826148a7565b602082019050919050565b6000613937601c8361448a565b9150613942826148d0565b601c82019050919050565b600061395a603283614479565b9150613965826148f9565b604082019050919050565b600061397d601c83614479565b915061398882614948565b602082019050919050565b60006139a060028361448a565b91506139ab82614971565b600282019050919050565b60006139c3602483614479565b91506139ce8261499a565b604082019050919050565b60006139e6601983614479565b91506139f1826149e9565b602082019050919050565b6000613a09602283614479565b9150613a1482614a12565b604082019050919050565b6000613a2c602c83614479565b9150613a3782614a61565b604082019050919050565b6000613a4f603883614479565b9150613a5a82614ab0565b604082019050919050565b6000613a72602a83614479565b9150613a7d82614aff565b604082019050919050565b6000613a95602983614479565b9150613aa082614b4e565b604082019050919050565b6000613ab8602e83614479565b9150613ac382614b9d565b604082019050919050565b6000613adb602283614479565b9150613ae682614bec565b604082019050919050565b6000613afe601c83614479565b9150613b0982614c3b565b602082019050919050565b6000613b21602083614479565b9150613b2c82614c64565b602082019050919050565b6000613b44603183614479565b9150613b4f82614c8d565b604082019050919050565b6000613b67602c83614479565b9150613b7282614cdc565b604082019050919050565b6000613b8a602983614479565b9150613b9582614d2b565b604082019050919050565b6000613bad602f83614479565b9150613bb882614d7a565b604082019050919050565b6000613bd0602483614479565b9150613bdb82614dc9565b604082019050919050565b6000613bf3602183614479565b9150613bfe82614e18565b604082019050919050565b6000613c16602183614479565b9150613c2182614e67565b604082019050919050565b6000613c39603183614479565b9150613c4482614eb6565b604082019050919050565b6000613c5c60178361448a565b9150613c6782614f05565b601782019050919050565b6000613c7f60118361448a565b9150613c8a82614f2e565b601182019050919050565b6000613ca2602f83614479565b9150613cad82614f57565b604082019050919050565b600060c083016000830151613cd06000860182613d48565b506020830151613ce360208601826136f8565b506040830151613cf660408601826136f8565b506060830151613d096060860182613d48565b5060808301518482036080860152613d21828261381e565b91505060a083015184820360a0860152613d3b828261381e565b9150508091505092915050565b613d518161461e565b82525050565b613d608161461e565b82525050565b613d6f81614628565b82525050565b6000613d828284866137c0565b91508190509392505050565b6000613d9a8285613890565b9150613da68284613890565b91508190509392505050565b6000613dbd8261392a565b9150613dc982846137a9565b60208201915081905092915050565b6000613de382613993565b9150613def82856137a9565b602082019150613dff82846137a9565b6020820191508190509392505050565b6000613e1a82613c4f565b9150613e268285613890565b9150613e3182613c72565b9150613e3d8284613890565b91508190509392505050565b6000602082019050613e5e6000830184613707565b92915050565b6000608082019050613e796000830187613707565b613e866020830186613707565b613e936040830185613d57565b8181036060830152613ea581846137e5565b905095945050505050565b60006020820190508181036000830152613eca8184613716565b905092915050565b6000602082019050613ee7600083018461378b565b92915050565b6000602082019050613f02600083018461379a565b92915050565b600060a082019050613f1d600083018861379a565b613f2a602083018761379a565b613f37604083018661379a565b613f446060830185613d57565b613f516080830184613707565b9695505050505050565b600060a082019050613f70600083018861379a565b613f7d6020830187613d57565b613f8a6040830186613d57565b613f97606083018561379a565b613fa4608083018461379a565b9695505050505050565b6000608082019050613fc3600083018761379a565b613fd06020830186613d66565b613fdd604083018561379a565b613fea606083018461379a565b95945050505050565b6000602082019050818103600083015261400d8184613857565b905092915050565b6000602082019050818103600083015261402e816138c1565b9050919050565b6000602082019050818103600083015261404e816138e4565b9050919050565b6000602082019050818103600083015261406e81613907565b9050919050565b6000602082019050818103600083015261408e8161394d565b9050919050565b600060208201905081810360008301526140ae81613970565b9050919050565b600060208201905081810360008301526140ce816139b6565b9050919050565b600060208201905081810360008301526140ee816139d9565b9050919050565b6000602082019050818103600083015261410e816139fc565b9050919050565b6000602082019050818103600083015261412e81613a1f565b9050919050565b6000602082019050818103600083015261414e81613a42565b9050919050565b6000602082019050818103600083015261416e81613a65565b9050919050565b6000602082019050818103600083015261418e81613a88565b9050919050565b600060208201905081810360008301526141ae81613aab565b9050919050565b600060208201905081810360008301526141ce81613ace565b9050919050565b600060208201905081810360008301526141ee81613af1565b9050919050565b6000602082019050818103600083015261420e81613b14565b9050919050565b6000602082019050818103600083015261422e81613b37565b9050919050565b6000602082019050818103600083015261424e81613b5a565b9050919050565b6000602082019050818103600083015261426e81613b7d565b9050919050565b6000602082019050818103600083015261428e81613ba0565b9050919050565b600060208201905081810360008301526142ae81613bc3565b9050919050565b600060208201905081810360008301526142ce81613be6565b9050919050565b600060208201905081810360008301526142ee81613c09565b9050919050565b6000602082019050818103600083015261430e81613c2c565b9050919050565b6000602082019050818103600083015261432e81613c95565b9050919050565b600060208201905061434a6000830184613d57565b92915050565b6000808335600160200384360303811261436957600080fd5b80840192508235915067ffffffffffffffff82111561438757600080fd5b60208301925060018202360383131561439f57600080fd5b509250929050565b60006143b16143c2565b90506143bd82826146d3565b919050565b6000604051905090565b600067ffffffffffffffff8211156143e7576143e6614815565b5b6143f082614844565b9050602081019050919050565b6000819050602082019050919050565b600081519050919050565b600081519050919050565b600081519050919050565b6000602082019050919050565b600082825260208201905092915050565b600082825260208201905092915050565b600081905092915050565b600082825260208201905092915050565b600082825260208201905092915050565b600081905092915050565b60006144a08261461e565b91506144ab8361461e565b9250827fffffffffffffffffffffffffffffffffffffffffffffffffffffffffffffffff038211156144e0576144df614788565b5b828201905092915050565b60006144f68261461e565b91506145018361461e565b925082614511576145106147b7565b5b828204905092915050565b60006145278261461e565b91506145328361461e565b9250817fffffffffffffffffffffffffffffffffffffffffffffffffffffffffffffffff048311821515161561456b5761456a614788565b5b828202905092915050565b60006145818261461e565b915061458c8361461e565b92508282101561459f5761459e614788565b5b828203905092915050565b60006145b5826145fe565b9050919050565b60008115159050919050565b6000819050919050565b60007fffffffff0000000000000000000000000000000000000000000000000000000082169050919050565b600073ffffffffffffffffffffffffffffffffffffffff82169050919050565b6000819050919050565b600060ff82169050919050565b82818337600083830152505050565b60005b83811015614662578082015181840152602081019050614647565b83811115614671576000848401525b50505050565b60006146828261461e565b9150600082141561469657614695614788565b5b600182039050919050565b600060028204905060018216806146b957607f821691505b602082108114156146cd576146cc6147e6565b5b50919050565b6146dc82614844565b810181811067ffffffffffffffff821117156146fb576146fa614815565b5b80604052505050565b600061470f8261461e565b91507fffffffffffffffffffffffffffffffffffffffffffffffffffffffffffffffff82141561474257614741614788565b5b600182019050919050565b6000819050919050565b60006147628261461e565b915061476d8361461e565b92508261477d5761477c6147b7565b5b828206905092915050565b7f4e487b7100000000000000000000000000000000000000000000000000000000600052601160045260246000fd5b7f4e487b7100000000000000000000000000000000000000000000000000000000600052601260045260246000fd5b7f4e487b7100000000000000000000000000000000000000000000000000000000600052602260045260246000fd5b7f4e487b7100000000000000000000000000000000000000000000000000000000600052604160045260246000fd5b6000601f19601f8301169050919050565b7f45434453413a20696e76616c6964207369676e61747572650000000000000000600082015250565b7f537472696e67733a20686578206c656e67746820696e73756666696369656e74600082015250565b7f45434453413a20696e76616c6964207369676e6174757265206c656e67746800600082015250565b7f19457468657265756d205369676e6564204d6573736167653a0a333200000000600082015250565b7f4552433732313a207472616e7366657220746f206e6f6e20455243373231526560008201527f63656976657220696d706c656d656e7465720000000000000000000000000000602082015250565b7f4552433732313a20746f6b656e20616c7265616479206d696e74656400000000600082015250565b7f1901000000000000000000000000000000000000000000000000000000000000600082015250565b7f4552433732313a207472616e7366657220746f20746865207a65726f2061646460008201527f7265737300000000000000000000000000000000000000000000000000000000602082015250565b7f4552433732313a20617070726f766520746f2063616c6c657200000000000000600082015250565b7f45434453413a20696e76616c6964207369676e6174757265202773272076616c60008201527f7565000000000000000000000000000000000000000000000000000000000000602082015250565b7f4552433732313a206f70657261746f7220717565727920666f72206e6f6e657860008201527f697374656e7420746f6b656e0000000000000000000000000000000000000000602082015250565b7f4552433732313a20617070726f76652063616c6c6572206973206e6f74206f7760008201527f6e6572206e6f7220617070726f76656420666f7220616c6c0000000000000000602082015250565b7f4552433732313a2062616c616e636520717565727920666f7220746865207a6560008201527f726f206164647265737300000000000000000000000000000000000000000000602082015250565b7f4552433732313a206f776e657220717565727920666f72206e6f6e657869737460008201527f656e7420746f6b656e0000000000000000000000000000000000000000000000602082015250565b7f45524337323155524953746f726167653a2055524920736574206f66206e6f6e60008201527f6578697374656e7420746f6b656e000000000000000000000000000000000000602082015250565b7f45434453413a20696e76616c6964207369676e6174757265202776272076616c60008201527f7565000000000000000000000000000000000000000000000000000000000000602082015250565b7f496e73756666696369656e742066756e647320746f2072656465656d00000000600082015250565b7f4552433732313a206d696e7420746f20746865207a65726f2061646472657373600082015250565b7f45524337323155524953746f726167653a2055524920717565727920666f722060008201527f6e6f6e6578697374656e7420746f6b656e000000000000000000000000000000602082015250565b7f4552433732313a20617070726f76656420717565727920666f72206e6f6e657860008201527f697374656e7420746f6b656e0000000000000000000000000000000000000000602082015250565b7f4552433732313a207472616e73666572206f6620746f6b656e2074686174206960008201527f73206e6f74206f776e0000000000000000000000000000000000000000000000602082015250565b7f4552433732314d657461646174613a2055524920717565727920666f72206e6f60008201527f6e6578697374656e7420746f6b656e0000000000000000000000000000000000602082015250565b7f4f6e6c7920617574686f72697a6564206d696e746572732063616e207769746860008201527f6472617700000000000000000000000000000000000000000000000000000000602082015250565b7f4552433732313a20617070726f76616c20746f2063757272656e74206f776e6560008201527f7200000000000000000000000000000000000000000000000000000000000000602082015250565b7f5369676e617475726520696e76616c6964206f7220756e617574686f72697a6560008201527f6400000000000000000000000000000000000000000000000000000000000000602082015250565b7f4552433732313a207472616e736665722063616c6c6572206973206e6f74206f60008201527f776e6572206e6f7220617070726f766564000000000000000000000000000000602082015250565b7f416363657373436f6e74726f6c3a206163636f756e7420000000000000000000600082015250565b7f206973206d697373696e6720726f6c6520000000000000000000000000000000600082015250565b7f416363657373436f6e74726f6c3a2063616e206f6e6c792072656e6f756e636560008201527f20726f6c657320666f722073656c660000000000000000000000000000000000602082015250565b614faf816145aa565b8114614fba57600080fd5b50565b614fc6816145bc565b8114614fd157600080fd5b50565b614fdd816145c8565b8114614fe857600080fd5b50565b614ff4816145d2565b8114614fff57600080fd5b50565b61500b8161461e565b811461501657600080fd5b5056fea2646970667358221220b4f2f34b21b08f6663ea84c53de6ef244efa8d2e6f58d636c6bfe205de7b640d64736f6c63430008040033",
  "linkReferences": {},
  "deployedLinkReferences": {}
}