{
  "_format": "hh-sol-artifact-1",
  "contractName": "LazyNFT",
  "sourceName": "contracts/LazyNFT.sol",
  "abi": [
    {
      "inputs": [],
      "stateMutability": "nonpayable",
      "type": "constructor"
    },
    {
      "anonymous": false,
      "inputs": [
        {
          "indexed": true,
          "internalType": "address",
          "name": "owner",
          "type": "address"
        },
        {
          "indexed": true,
          "internalType": "address",
          "name": "approved",
          "type": "address"
        },
        {
          "indexed": true,
          "internalType": "uint256",
          "name": "tokenId",
          "type": "uint256"
        }
      ],
      "name": "Approval",
      "type": "event"
    },
    {
      "anonymous": false,
      "inputs": [
        {
          "indexed": true,
          "internalType": "address",
          "name": "owner",
          "type": "address"
        },
        {
          "indexed": true,
          "internalType": "address",
          "name": "operator",
          "type": "address"
        },
        {
          "indexed": false,
          "internalType": "bool",
          "name": "approved",
          "type": "bool"
        }
      ],
      "name": "ApprovalForAll",
      "type": "event"
    },
    {
      "anonymous": false,
      "inputs": [
        {
          "indexed": true,
          "internalType": "address",
          "name": "previousOwner",
          "type": "address"
        },
        {
          "indexed": true,
          "internalType": "address",
          "name": "newOwner",
          "type": "address"
        }
      ],
      "name": "OwnershipTransferred",
      "type": "event"
    },
    {
      "anonymous": false,
      "inputs": [
        {
          "indexed": true,
          "internalType": "bytes32",
          "name": "role",
          "type": "bytes32"
        },
        {
          "indexed": true,
          "internalType": "bytes32",
          "name": "previousAdminRole",
          "type": "bytes32"
        },
        {
          "indexed": true,
          "internalType": "bytes32",
          "name": "newAdminRole",
          "type": "bytes32"
        }
      ],
      "name": "RoleAdminChanged",
      "type": "event"
    },
    {
      "anonymous": false,
      "inputs": [
        {
          "indexed": true,
          "internalType": "bytes32",
          "name": "role",
          "type": "bytes32"
        },
        {
          "indexed": true,
          "internalType": "address",
          "name": "account",
          "type": "address"
        },
        {
          "indexed": true,
          "internalType": "address",
          "name": "sender",
          "type": "address"
        }
      ],
      "name": "RoleGranted",
      "type": "event"
    },
    {
      "anonymous": false,
      "inputs": [
        {
          "indexed": true,
          "internalType": "bytes32",
          "name": "role",
          "type": "bytes32"
        },
        {
          "indexed": true,
          "internalType": "address",
          "name": "account",
          "type": "address"
        },
        {
          "indexed": true,
          "internalType": "address",
          "name": "sender",
          "type": "address"
        }
      ],
      "name": "RoleRevoked",
      "type": "event"
    },
    {
      "anonymous": false,
      "inputs": [
        {
          "indexed": true,
          "internalType": "address",
          "name": "from",
          "type": "address"
        },
        {
          "indexed": true,
          "internalType": "address",
          "name": "to",
          "type": "address"
        },
        {
          "indexed": true,
          "internalType": "uint256",
          "name": "tokenId",
          "type": "uint256"
        }
      ],
      "name": "Transfer",
      "type": "event"
    },
    {
      "inputs": [],
      "name": "DEFAULT_ADMIN_ROLE",
      "outputs": [
        {
          "internalType": "bytes32",
          "name": "",
          "type": "bytes32"
        }
      ],
      "stateMutability": "view",
      "type": "function"
    },
    {
      "inputs": [],
      "name": "MINTER_ROLE",
      "outputs": [
        {
          "internalType": "bytes32",
          "name": "",
          "type": "bytes32"
        }
      ],
      "stateMutability": "view",
      "type": "function"
    },
    {
      "inputs": [
        {
          "internalType": "address",
          "name": "to",
          "type": "address"
        },
        {
          "internalType": "uint256",
          "name": "tokenId",
          "type": "uint256"
        }
      ],
      "name": "approve",
      "outputs": [],
      "stateMutability": "nonpayable",
      "type": "function"
    },
    {
      "inputs": [],
      "name": "availableToWithdraw",
      "outputs": [
        {
          "internalType": "uint256",
          "name": "",
          "type": "uint256"
        }
      ],
      "stateMutability": "view",
      "type": "function"
    },
    {
      "inputs": [
        {
          "internalType": "address",
          "name": "owner",
          "type": "address"
        }
      ],
      "name": "balanceOf",
      "outputs": [
        {
          "internalType": "uint256",
          "name": "",
          "type": "uint256"
        }
      ],
      "stateMutability": "view",
      "type": "function"
    },
    {
      "inputs": [
        {
          "internalType": "address",
          "name": "_reqAddress",
          "type": "address"
        }
      ],
      "name": "fetchNFTsOwned",
      "outputs": [
        {
          "components": [
            {
              "internalType": "uint256",
              "name": "tokenId",
              "type": "uint256"
            },
            {
              "internalType": "address",
              "name": "owner",
              "type": "address"
            },
            {
              "internalType": "address",
              "name": "creator",
              "type": "address"
            },
            {
              "internalType": "uint256",
              "name": "price",
              "type": "uint256"
            },
            {
              "internalType": "string",
              "name": "uri",
              "type": "string"
            },
            {
              "internalType": "string",
              "name": "collection",
              "type": "string"
            },
            {
              "internalType": "uint256",
              "name": "tier",
              "type": "uint256"
            }
          ],
          "internalType": "struct LazyNFT.MarketItem[]",
          "name": "",
          "type": "tuple[]"
        }
      ],
      "stateMutability": "view",
      "type": "function"
    },
    {
      "inputs": [],
      "name": "getAddress",
      "outputs": [
        {
          "internalType": "address",
          "name": "",
          "type": "address"
        }
      ],
      "stateMutability": "view",
      "type": "function"
    },
    {
      "inputs": [
        {
          "internalType": "uint256",
          "name": "tokenId",
          "type": "uint256"
        }
      ],
      "name": "getApproved",
      "outputs": [
        {
          "internalType": "address",
          "name": "",
          "type": "address"
        }
      ],
      "stateMutability": "view",
      "type": "function"
    },
    {
      "inputs": [
        {
          "internalType": "bytes32",
          "name": "role",
          "type": "bytes32"
        }
      ],
      "name": "getRoleAdmin",
      "outputs": [
        {
          "internalType": "bytes32",
          "name": "",
          "type": "bytes32"
        }
      ],
      "stateMutability": "view",
      "type": "function"
    },
    {
      "inputs": [
        {
          "internalType": "bytes32",
          "name": "role",
          "type": "bytes32"
        },
        {
          "internalType": "uint256",
          "name": "index",
          "type": "uint256"
        }
      ],
      "name": "getRoleMember",
      "outputs": [
        {
          "internalType": "address",
          "name": "",
          "type": "address"
        }
      ],
      "stateMutability": "view",
      "type": "function"
    },
    {
      "inputs": [
        {
          "internalType": "bytes32",
          "name": "role",
          "type": "bytes32"
        }
      ],
      "name": "getRoleMemberCount",
      "outputs": [
        {
          "internalType": "uint256",
          "name": "",
          "type": "uint256"
        }
      ],
      "stateMutability": "view",
      "type": "function"
    },
    {
      "inputs": [
        {
          "internalType": "bytes32",
          "name": "role",
          "type": "bytes32"
        },
        {
          "internalType": "address",
          "name": "account",
          "type": "address"
        }
      ],
      "name": "grantRole",
      "outputs": [],
      "stateMutability": "nonpayable",
      "type": "function"
    },
    {
      "inputs": [
        {
          "internalType": "bytes32",
          "name": "role",
          "type": "bytes32"
        },
        {
          "internalType": "address",
          "name": "account",
          "type": "address"
        }
      ],
      "name": "hasRole",
      "outputs": [
        {
          "internalType": "bool",
          "name": "",
          "type": "bool"
        }
      ],
      "stateMutability": "view",
      "type": "function"
    },
    {
      "inputs": [
        {
          "internalType": "address",
          "name": "owner",
          "type": "address"
        },
        {
          "internalType": "address",
          "name": "operator",
          "type": "address"
        }
      ],
      "name": "isApprovedForAll",
      "outputs": [
        {
          "internalType": "bool",
          "name": "",
          "type": "bool"
        }
      ],
      "stateMutability": "view",
      "type": "function"
    },
    {
      "inputs": [],
      "name": "name",
      "outputs": [
        {
          "internalType": "string",
          "name": "",
          "type": "string"
        }
      ],
      "stateMutability": "view",
      "type": "function"
    },
    {
      "inputs": [],
      "name": "owner",
      "outputs": [
        {
          "internalType": "address",
          "name": "",
          "type": "address"
        }
      ],
      "stateMutability": "view",
      "type": "function"
    },
    {
      "inputs": [
        {
          "internalType": "uint256",
          "name": "tokenId",
          "type": "uint256"
        }
      ],
      "name": "ownerOf",
      "outputs": [
        {
          "internalType": "address",
          "name": "",
          "type": "address"
        }
      ],
      "stateMutability": "view",
      "type": "function"
    },
    {
      "inputs": [
        {
          "internalType": "address",
          "name": "redeemer",
          "type": "address"
        },
        {
          "components": [
            {
              "internalType": "uint256",
              "name": "tokenId",
              "type": "uint256"
            },
            {
              "internalType": "uint256",
              "name": "minPrice",
              "type": "uint256"
            },
            {
              "internalType": "string",
              "name": "uri",
              "type": "string"
            },
            {
              "internalType": "string",
              "name": "collection",
              "type": "string"
            },
            {
              "internalType": "uint256",
              "name": "tier",
              "type": "uint256"
            }
          ],
          "internalType": "struct LazyNFT.NFTVoucher",
          "name": "voucher",
          "type": "tuple"
        },
        {
          "components": [
            {
              "internalType": "string",
              "name": "v_url",
              "type": "string"
            }
          ],
          "internalType": "struct LazyNFT.NFTCID",
          "name": "meta",
          "type": "tuple"
        },
        {
          "internalType": "bytes",
          "name": "signature",
          "type": "bytes"
        }
      ],
      "name": "redeem",
      "outputs": [
        {
          "internalType": "uint256",
          "name": "",
          "type": "uint256"
        }
      ],
      "stateMutability": "payable",
      "type": "function"
    },
    {
      "inputs": [
        {
          "internalType": "address",
          "name": "_addr",
          "type": "address"
        }
      ],
      "name": "removeMinter",
      "outputs": [],
      "stateMutability": "nonpayable",
      "type": "function"
    },
    {
      "inputs": [],
      "name": "renounceOwnership",
      "outputs": [],
      "stateMutability": "nonpayable",
      "type": "function"
    },
    {
      "inputs": [
        {
          "internalType": "bytes32",
          "name": "role",
          "type": "bytes32"
        },
        {
          "internalType": "address",
          "name": "account",
          "type": "address"
        }
      ],
      "name": "renounceRole",
      "outputs": [],
      "stateMutability": "nonpayable",
      "type": "function"
    },
    {
      "inputs": [
        {
          "internalType": "bytes32",
          "name": "role",
          "type": "bytes32"
        },
        {
          "internalType": "address",
          "name": "account",
          "type": "address"
        }
      ],
      "name": "revokeRole",
      "outputs": [],
      "stateMutability": "nonpayable",
      "type": "function"
    },
    {
      "inputs": [
        {
          "internalType": "address",
          "name": "from",
          "type": "address"
        },
        {
          "internalType": "address",
          "name": "to",
          "type": "address"
        },
        {
          "internalType": "uint256",
          "name": "tokenId",
          "type": "uint256"
        }
      ],
      "name": "safeTransferFrom",
      "outputs": [],
      "stateMutability": "nonpayable",
      "type": "function"
    },
    {
      "inputs": [
        {
          "internalType": "address",
          "name": "from",
          "type": "address"
        },
        {
          "internalType": "address",
          "name": "to",
          "type": "address"
        },
        {
          "internalType": "uint256",
          "name": "tokenId",
          "type": "uint256"
        },
        {
          "internalType": "bytes",
          "name": "_data",
          "type": "bytes"
        }
      ],
      "name": "safeTransferFrom",
      "outputs": [],
      "stateMutability": "nonpayable",
      "type": "function"
    },
    {
      "inputs": [
        {
          "internalType": "address",
          "name": "operator",
          "type": "address"
        },
        {
          "internalType": "bool",
          "name": "approved",
          "type": "bool"
        }
      ],
      "name": "setApprovalForAll",
      "outputs": [],
      "stateMutability": "nonpayable",
      "type": "function"
    },
    {
      "inputs": [
        {
          "internalType": "address",
          "name": "_addr",
          "type": "address"
        }
      ],
      "name": "setNewMinter",
      "outputs": [],
      "stateMutability": "nonpayable",
      "type": "function"
    },
    {
      "inputs": [
        {
          "internalType": "bytes4",
          "name": "interfaceId",
          "type": "bytes4"
        }
      ],
      "name": "supportsInterface",
      "outputs": [
        {
          "internalType": "bool",
          "name": "",
          "type": "bool"
        }
      ],
      "stateMutability": "view",
      "type": "function"
    },
    {
      "inputs": [],
      "name": "symbol",
      "outputs": [
        {
          "internalType": "string",
          "name": "",
          "type": "string"
        }
      ],
      "stateMutability": "view",
      "type": "function"
    },
    {
      "inputs": [
        {
          "internalType": "uint256",
          "name": "tokenId",
          "type": "uint256"
        }
      ],
      "name": "tokenURI",
      "outputs": [
        {
          "internalType": "string",
          "name": "",
          "type": "string"
        }
      ],
      "stateMutability": "view",
      "type": "function"
    },
    {
      "inputs": [
        {
          "internalType": "address",
          "name": "from",
          "type": "address"
        },
        {
          "internalType": "address",
          "name": "to",
          "type": "address"
        },
        {
          "internalType": "uint256",
          "name": "tokenId",
          "type": "uint256"
        }
      ],
      "name": "transferFrom",
      "outputs": [],
      "stateMutability": "nonpayable",
      "type": "function"
    },
    {
      "inputs": [
        {
          "internalType": "address",
          "name": "newOwner",
          "type": "address"
        }
      ],
      "name": "transferOwnership",
      "outputs": [],
      "stateMutability": "nonpayable",
      "type": "function"
    },
    {
      "inputs": [],
      "name": "withdraw",
      "outputs": [],
      "stateMutability": "nonpayable",
      "type": "function"
    }
  ],
  "bytecode": "0x6101406040523480156200001257600080fd5b506040518060400160405280600f81526020017f4c617a794e46542d566f756368657200000000000000000000000000000000008152506040518060400160405280600181526020017f31000000000000000000000000000000000000000000000000000000000000008152506040518060400160405280600781526020017f4c617a794e4654000000000000000000000000000000000000000000000000008152506040518060400160405280600381526020017f4c415a0000000000000000000000000000000000000000000000000000000000815250816000908051906020019062000103929190620005db565b5080600190805190602001906200011c929190620005db565b50505060008280519060200120905060008280519060200120905060007f8b73c3c69bb8fe3d512ecc4cf759cc79239f7b179b0ffacaa9a75d522b39400f90508260e081815250508161010081815250504660a08181525050620001888184846200024160201b60201c565b608081815250503073ffffffffffffffffffffffffffffffffffffffff1660c08173ffffffffffffffffffffffffffffffffffffffff1660601b815250508061012081815250505050505050620001f4620001e86200027d60201b60201c565b6200028560201b60201c565b620002267f9f2df0fed2c77648de5860a4cc508cd0818c85b8b8a1ab4ceeef8d981c8956a6336200034b60201b60201c565b6200023b6000801b336200034b60201b60201c565b620007c8565b600083838346306040516020016200025e959493929190620006be565b6040516020818303038152906040528051906020012090509392505050565b600033905090565b6000600760009054906101000a900473ffffffffffffffffffffffffffffffffffffffff16905081600760006101000a81548173ffffffffffffffffffffffffffffffffffffffff021916908373ffffffffffffffffffffffffffffffffffffffff1602179055508173ffffffffffffffffffffffffffffffffffffffff168173ffffffffffffffffffffffffffffffffffffffff167f8be0079c531659141344cd1fd0a4f28419497f9722a3daafe3b4186f6b6457e060405160405180910390a35050565b6200035d82826200036160201b60201c565b5050565b620003788282620003a960201b62001c461760201c565b620003a481600960008581526020019081526020016000206200049b60201b62001d271790919060201c565b505050565b620003bb8282620004d360201b60201c565b620004975760016008600084815260200190815260200160002060000160008373ffffffffffffffffffffffffffffffffffffffff1673ffffffffffffffffffffffffffffffffffffffff16815260200190815260200160002060006101000a81548160ff0219169083151502179055506200043c6200027d60201b60201c565b73ffffffffffffffffffffffffffffffffffffffff168173ffffffffffffffffffffffffffffffffffffffff16837f2f8788117e7eff1d82e926ec794901d17c78024a50270940304540a733656f0d60405160405180910390a45b5050565b6000620004cb836000018373ffffffffffffffffffffffffffffffffffffffff1660001b6200053e60201b60201c565b905092915050565b60006008600084815260200190815260200160002060000160008373ffffffffffffffffffffffffffffffffffffffff1673ffffffffffffffffffffffffffffffffffffffff16815260200190815260200160002060009054906101000a900460ff16905092915050565b6000620005528383620005b860201b60201c565b620005ad578260000182908060018154018082558091505060019003906000526020600020016000909190919091505582600001805490508360010160008481526020019081526020016000208190555060019050620005b2565b600090505b92915050565b600080836001016000848152602001908152602001600020541415905092915050565b828054620005e99062000763565b90600052602060002090601f0160209004810192826200060d576000855562000659565b82601f106200062857805160ff191683800117855562000659565b8280016001018555821562000659579182015b82811115620006585782518255916020019190600101906200063b565b5b5090506200066891906200066c565b5090565b5b80821115620006875760008160009055506001016200066d565b5090565b62000696816200071b565b82525050565b620006a7816200072f565b82525050565b620006b88162000759565b82525050565b600060a082019050620006d560008301886200069c565b620006e460208301876200069c565b620006f360408301866200069c565b620007026060830185620006ad565b6200071160808301846200068b565b9695505050505050565b6000620007288262000739565b9050919050565b6000819050919050565b600073ffffffffffffffffffffffffffffffffffffffff82169050919050565b6000819050919050565b600060028204905060018216806200077c57607f821691505b6020821081141562000793576200079262000799565b5b50919050565b7f4e487b7100000000000000000000000000000000000000000000000000000000600052602260045260246000fd5b60805160a05160c05160601c60e0516101005161012051615d0f6200081b6000396000613b2c01526000613b6e01526000613b4d01526000613a8201526000613ad801526000613b010152615d0f6000f3fe6080604052600436106101e35760003560e01c80637197de7c11610102578063b88d4fde11610095578063d547741f11610064578063d547741f1461071b578063e322ad2b14610744578063e985e9c51461076f578063f2fde38b146107ac576101e3565b8063b88d4fde1461064d578063c87b56dd14610676578063ca15c873146106b3578063d5391393146106f0576101e3565b806391d14854116100d157806391d148541461059157806395d89b41146105ce578063a217fddf146105f9578063a22cb46514610624576101e3565b80637197de7c146104bc57806380abce9a146104f95780638da5cb5b146105295780639010d07c14610554576101e3565b806336568abe1161017a57806348af6b151161014957806348af6b15146104025780636352211e1461042b57806370a0823114610468578063715018a6146104a5576101e3565b806336568abe1461036e57806338cc4831146103975780633ccfd60b146103c257806342842e0e146103d9576101e3565b806323b872dd116101b657806323b872dd146102b6578063248a9ca3146102df5780632f2ff15d1461031c5780633092afd514610345576101e3565b806301ffc9a7146101e857806306fdde0314610225578063081812fc14610250578063095ea7b31461028d575b600080fd5b3480156101f457600080fd5b5061020f600480360381019061020a9190614212565b6107d5565b60405161021c9190614ad4565b60405180910390f35b34801561023157600080fd5b5061023a6107f7565b6040516102479190614bcb565b60405180910390f35b34801561025c57600080fd5b5061027760048036038101906102729190614264565b610889565b6040516102849190614a4b565b60405180910390f35b34801561029957600080fd5b506102b460048036038101906102af9190614135565b61090e565b005b3480156102c257600080fd5b506102dd60048036038101906102d89190613f84565b610a26565b005b3480156102eb57600080fd5b5061030660048036038101906103019190614171565b610a86565b6040516103139190614aef565b60405180910390f35b34801561032857600080fd5b50610343600480360381019061033e919061419a565b610aa6565b005b34801561035157600080fd5b5061036c60048036038101906103679190613f1f565b610acf565b005b34801561037a57600080fd5b506103956004803603810190610390919061419a565b610b78565b005b3480156103a357600080fd5b506103ac610bfb565b6040516103b99190614a4b565b60405180910390f35b3480156103ce57600080fd5b506103d7610c03565b005b3480156103e557600080fd5b5061040060048036038101906103fb9190613f84565b610d45565b005b34801561040e57600080fd5b5061042960048036038101906104249190613f1f565b610d65565b005b34801561043757600080fd5b50610452600480360381019061044d9190614264565b610e0e565b60405161045f9190614a4b565b60405180910390f35b34801561047457600080fd5b5061048f600480360381019061048a9190613f1f565b610ec0565b60405161049c9190614f7d565b60405180910390f35b3480156104b157600080fd5b506104ba610f78565b005b3480156104c857600080fd5b506104e360048036038101906104de9190613f1f565b611000565b6040516104f09190614ab2565b60405180910390f35b610513600480360381019061050e919061408a565b611295565b6040516105209190614f7d565b60405180910390f35b34801561053557600080fd5b5061053e6116db565b60405161054b9190614a4b565b60405180910390f35b34801561056057600080fd5b5061057b600480360381019061057691906141d6565b611705565b6040516105889190614a4b565b60405180910390f35b34801561059d57600080fd5b506105b860048036038101906105b3919061419a565b611734565b6040516105c59190614ad4565b60405180910390f35b3480156105da57600080fd5b506105e361179f565b6040516105f09190614bcb565b60405180910390f35b34801561060557600080fd5b5061060e611831565b60405161061b9190614aef565b60405180910390f35b34801561063057600080fd5b5061064b6004803603810190610646919061404e565b611838565b005b34801561065957600080fd5b50610674600480360381019061066f9190613fd3565b61184e565b005b34801561068257600080fd5b5061069d60048036038101906106989190614264565b6118b0565b6040516106aa9190614bcb565b60405180910390f35b3480156106bf57600080fd5b506106da60048036038101906106d59190614171565b611a02565b6040516106e79190614f7d565b60405180910390f35b3480156106fc57600080fd5b50610705611a26565b6040516107129190614aef565b60405180910390f35b34801561072757600080fd5b50610742600480360381019061073d919061419a565b611a4a565b005b34801561075057600080fd5b50610759611a73565b6040516107669190614f7d565b60405180910390f35b34801561077b57600080fd5b5061079660048036038101906107919190613f48565b611aba565b6040516107a39190614ad4565b60405180910390f35b3480156107b857600080fd5b506107d360048036038101906107ce9190613f1f565b611b4e565b005b60006107e082611d57565b806107f057506107ef82611e39565b5b9050919050565b606060008054610806906152e9565b80601f0160208091040260200160405190810160405280929190818152602001828054610832906152e9565b801561087f5780601f106108545761010080835404028352916020019161087f565b820191906000526020600020905b81548152906001019060200180831161086257829003601f168201915b5050505050905090565b600061089482611eb3565b6108d3576040517f08c379a00000000000000000000000000000000000000000000000000000000081526004016108ca90614e5d565b60405180910390fd5b6004600083815260200190815260200160002060009054906101000a900473ffffffffffffffffffffffffffffffffffffffff169050919050565b600061091982610e0e565b90508073ffffffffffffffffffffffffffffffffffffffff168373ffffffffffffffffffffffffffffffffffffffff16141561098a576040517f08c379a000000000000000000000000000000000000000000000000000000000815260040161098190614efd565b60405180910390fd5b8073ffffffffffffffffffffffffffffffffffffffff166109a9611f1f565b73ffffffffffffffffffffffffffffffffffffffff1614806109d857506109d7816109d2611f1f565b611aba565b5b610a17576040517f08c379a0000000000000000000000000000000000000000000000000000000008152600401610a0e90614d5d565b60405180910390fd5b610a218383611f27565b505050565b610a37610a31611f1f565b82611fe0565b610a76576040517f08c379a0000000000000000000000000000000000000000000000000000000008152600401610a6d90614f3d565b60405180910390fd5b610a818383836120be565b505050565b600060086000838152602001908152602001600020600101549050919050565b610aaf82610a86565b610ac081610abb611f1f565b61231a565b610aca83836123b7565b505050565b610ad7611f1f565b73ffffffffffffffffffffffffffffffffffffffff16610af56116db565b73ffffffffffffffffffffffffffffffffffffffff1614610b4b576040517f08c379a0000000000000000000000000000000000000000000000000000000008152600401610b4290614e7d565b60405180910390fd5b610b757f9f2df0fed2c77648de5860a4cc508cd0818c85b8b8a1ab4ceeef8d981c8956a682611a4a565b50565b610b80611f1f565b73ffffffffffffffffffffffffffffffffffffffff168173ffffffffffffffffffffffffffffffffffffffff1614610bed576040517f08c379a0000000000000000000000000000000000000000000000000000000008152600401610be490614f5d565b60405180910390fd5b610bf782826123eb565b5050565b600030905090565b610c2d7f9f2df0fed2c77648de5860a4cc508cd0818c85b8b8a1ab4ceeef8d981c8956a633611734565b610c6c576040517f08c379a0000000000000000000000000000000000000000000000000000000008152600401610c6390614edd565b60405180910390fd5b60003390506000600b60008373ffffffffffffffffffffffffffffffffffffffff1673ffffffffffffffffffffffffffffffffffffffff1681526020019081526020016000205490506000600b60008473ffffffffffffffffffffffffffffffffffffffff1673ffffffffffffffffffffffffffffffffffffffff168152602001908152602001600020819055508173ffffffffffffffffffffffffffffffffffffffff166108fc829081150290604051600060405180830381858888f19350505050158015610d40573d6000803e3d6000fd5b505050565b610d608383836040518060200160405280600081525061184e565b505050565b610d6d611f1f565b73ffffffffffffffffffffffffffffffffffffffff16610d8b6116db565b73ffffffffffffffffffffffffffffffffffffffff1614610de1576040517f08c379a0000000000000000000000000000000000000000000000000000000008152600401610dd890614e7d565b60405180910390fd5b610e0b7f9f2df0fed2c77648de5860a4cc508cd0818c85b8b8a1ab4ceeef8d981c8956a682610aa6565b50565b6000806002600084815260200190815260200160002060009054906101000a900473ffffffffffffffffffffffffffffffffffffffff169050600073ffffffffffffffffffffffffffffffffffffffff168173ffffffffffffffffffffffffffffffffffffffff161415610eb7576040517f08c379a0000000000000000000000000000000000000000000000000000000008152600401610eae90614d9d565b60405180910390fd5b80915050919050565b60008073ffffffffffffffffffffffffffffffffffffffff168273ffffffffffffffffffffffffffffffffffffffff161415610f31576040517f08c379a0000000000000000000000000000000000000000000000000000000008152600401610f2890614d7d565b60405180910390fd5b600360008373ffffffffffffffffffffffffffffffffffffffff1673ffffffffffffffffffffffffffffffffffffffff168152602001908152602001600020549050919050565b610f80611f1f565b73ffffffffffffffffffffffffffffffffffffffff16610f9e6116db565b73ffffffffffffffffffffffffffffffffffffffff1614610ff4576040517f08c379a0000000000000000000000000000000000000000000000000000000008152600401610feb90614e7d565b60405180910390fd5b610ffe600061241f565b565b606061100b826124e5565b600c60008373ffffffffffffffffffffffffffffffffffffffff1673ffffffffffffffffffffffffffffffffffffffff168152602001908152602001600020805480602002602001604051908101604052809291908181526020016000905b8282101561128a57838290600052602060002090600702016040518060e0016040529081600082015481526020016001820160009054906101000a900473ffffffffffffffffffffffffffffffffffffffff1673ffffffffffffffffffffffffffffffffffffffff1673ffffffffffffffffffffffffffffffffffffffff1681526020016002820160009054906101000a900473ffffffffffffffffffffffffffffffffffffffff1673ffffffffffffffffffffffffffffffffffffffff1673ffffffffffffffffffffffffffffffffffffffff1681526020016003820154815260200160048201805461115d906152e9565b80601f0160208091040260200160405190810160405280929190818152602001828054611189906152e9565b80156111d65780601f106111ab576101008083540402835291602001916111d6565b820191906000526020600020905b8154815290600101906020018083116111b957829003601f168201915b505050505081526020016005820180546111ef906152e9565b80601f016020809104026020016040519081016040528092919081815260200182805461121b906152e9565b80156112685780601f1061123d57610100808354040283529160200191611268565b820191906000526020600020905b81548152906001019060200180831161124b57829003601f168201915b505050505081526020016006820154815250508152602001906001019061106a565b505050509050919050565b6000806112a2848461257e565b90506112e36040518060400160405280600f81526020017f546865207369676e65722069733a200000000000000000000000000000000000815250826125b0565b61130d7f9f2df0fed2c77648de5860a4cc508cd0818c85b8b8a1ab4ceeef8d981c8956a682611734565b61134c576040517f08c379a000000000000000000000000000000000000000000000000000000000815260040161134390614f1d565b60405180910390fd5b8460200135341015611393576040517f08c379a000000000000000000000000000000000000000000000000000000000815260040161138a90614dfd565b60405180910390fd5b6113a181866000013561264c565b61140185600001358680604001906113b99190614f98565b8080601f016020809104026020016040519081016040528093929190818152602001838380828437600081840152601f19601f8201169050808301925050505050505061281a565b60006040518060e00160405280876000013581526020018873ffffffffffffffffffffffffffffffffffffffff1681526020018373ffffffffffffffffffffffffffffffffffffffff1681526020018760200135815260200187806040019061146a9190614f98565b8080601f016020809104026020016040519081016040528093929190818152602001838380828437600081840152601f19601f8201169050808301925050505050505081526020018780606001906114c29190614f98565b8080601f016020809104026020016040519081016040528093929190818152602001838380828437600081840152601f19601f82011690508083019250505050505050815260200187608001358152509050600c60008873ffffffffffffffffffffffffffffffffffffffff1673ffffffffffffffffffffffffffffffffffffffff1681526020019081526020016000208190806001815401808255809150506001900390600052602060002090600702016000909190919091506000820151816000015560208201518160010160006101000a81548173ffffffffffffffffffffffffffffffffffffffff021916908373ffffffffffffffffffffffffffffffffffffffff16021790555060408201518160020160006101000a81548173ffffffffffffffffffffffffffffffffffffffff021916908373ffffffffffffffffffffffffffffffffffffffff16021790555060608201518160030155608082015181600401908051906020019061163b929190613d60565b5060a0820151816005019080519060200190611658929190613d60565b5060c082015181600601555050611674828888600001356120be565b34600b60008473ffffffffffffffffffffffffffffffffffffffff1673ffffffffffffffffffffffffffffffffffffffff16815260200190815260200160002060008282546116c391906150dd565b92505081905550856000013592505050949350505050565b6000600760009054906101000a900473ffffffffffffffffffffffffffffffffffffffff16905090565b600061172c826009600086815260200190815260200160002061288e90919063ffffffff16565b905092915050565b60006008600084815260200190815260200160002060000160008373ffffffffffffffffffffffffffffffffffffffff1673ffffffffffffffffffffffffffffffffffffffff16815260200190815260200160002060009054906101000a900460ff16905092915050565b6060600180546117ae906152e9565b80601f01602080910402602001604051908101604052809291908181526020018280546117da906152e9565b80156118275780601f106117fc57610100808354040283529160200191611827565b820191906000526020600020905b81548152906001019060200180831161180a57829003601f168201915b5050505050905090565b6000801b81565b61184a611843611f1f565b83836128a8565b5050565b61185f611859611f1f565b83611fe0565b61189e576040517f08c379a000000000000000000000000000000000000000000000000000000000815260040161189590614f3d565b60405180910390fd5b6118aa84848484612a15565b50505050565b60606118bb82611eb3565b6118fa576040517f08c379a00000000000000000000000000000000000000000000000000000000081526004016118f190614e3d565b60405180910390fd5b600060066000848152602001908152602001600020805461191a906152e9565b80601f0160208091040260200160405190810160405280929190818152602001828054611946906152e9565b80156119935780601f1061196857610100808354040283529160200191611993565b820191906000526020600020905b81548152906001019060200180831161197657829003601f168201915b5050505050905060006119a4612a71565b90506000815114156119ba5781925050506119fd565b6000825111156119ef5780826040516020016119d7929190614990565b604051602081830303815290604052925050506119fd565b6119f884612a88565b925050505b919050565b6000611a1f60096000848152602001908152602001600020612b2f565b9050919050565b7f9f2df0fed2c77648de5860a4cc508cd0818c85b8b8a1ab4ceeef8d981c8956a681565b611a5382610a86565b611a6481611a5f611f1f565b61231a565b611a6e83836123eb565b505050565b6000600b60003373ffffffffffffffffffffffffffffffffffffffff1673ffffffffffffffffffffffffffffffffffffffff16815260200190815260200160002054905090565b6000600560008473ffffffffffffffffffffffffffffffffffffffff1673ffffffffffffffffffffffffffffffffffffffff16815260200190815260200160002060008373ffffffffffffffffffffffffffffffffffffffff1673ffffffffffffffffffffffffffffffffffffffff16815260200190815260200160002060009054906101000a900460ff16905092915050565b611b56611f1f565b73ffffffffffffffffffffffffffffffffffffffff16611b746116db565b73ffffffffffffffffffffffffffffffffffffffff1614611bca576040517f08c379a0000000000000000000000000000000000000000000000000000000008152600401611bc190614e7d565b60405180910390fd5b600073ffffffffffffffffffffffffffffffffffffffff168173ffffffffffffffffffffffffffffffffffffffff161415611c3a576040517f08c379a0000000000000000000000000000000000000000000000000000000008152600401611c3190614c9d565b60405180910390fd5b611c438161241f565b50565b611c508282611734565b611d235760016008600084815260200190815260200160002060000160008373ffffffffffffffffffffffffffffffffffffffff1673ffffffffffffffffffffffffffffffffffffffff16815260200190815260200160002060006101000a81548160ff021916908315150217905550611cc8611f1f565b73ffffffffffffffffffffffffffffffffffffffff168173ffffffffffffffffffffffffffffffffffffffff16837f2f8788117e7eff1d82e926ec794901d17c78024a50270940304540a733656f0d60405160405180910390a45b5050565b6000611d4f836000018373ffffffffffffffffffffffffffffffffffffffff1660001b612b44565b905092915050565b60007f80ac58cd000000000000000000000000000000000000000000000000000000007bffffffffffffffffffffffffffffffffffffffffffffffffffffffff1916827bffffffffffffffffffffffffffffffffffffffffffffffffffffffff19161480611e2257507f5b5e139f000000000000000000000000000000000000000000000000000000007bffffffffffffffffffffffffffffffffffffffffffffffffffffffff1916827bffffffffffffffffffffffffffffffffffffffffffffffffffffffff1916145b80611e325750611e3182612bb4565b5b9050919050565b60007f7965db0b000000000000000000000000000000000000000000000000000000007bffffffffffffffffffffffffffffffffffffffffffffffffffffffff1916827bffffffffffffffffffffffffffffffffffffffffffffffffffffffff19161480611eac5750611eab82611d57565b5b9050919050565b60008073ffffffffffffffffffffffffffffffffffffffff166002600084815260200190815260200160002060009054906101000a900473ffffffffffffffffffffffffffffffffffffffff1673ffffffffffffffffffffffffffffffffffffffff1614159050919050565b600033905090565b816004600083815260200190815260200160002060006101000a81548173ffffffffffffffffffffffffffffffffffffffff021916908373ffffffffffffffffffffffffffffffffffffffff160217905550808273ffffffffffffffffffffffffffffffffffffffff16611f9a83610e0e565b73ffffffffffffffffffffffffffffffffffffffff167f8c5be1e5ebec7d5bd14f71427d1e84f3dd0314c0f7b2291e5b200ac8c7c3b92560405160405180910390a45050565b6000611feb82611eb3565b61202a576040517f08c379a000000000000000000000000000000000000000000000000000000000815260040161202190614d3d565b60405180910390fd5b600061203583610e0e565b90508073ffffffffffffffffffffffffffffffffffffffff168473ffffffffffffffffffffffffffffffffffffffff1614806120a457508373ffffffffffffffffffffffffffffffffffffffff1661208c84610889565b73ffffffffffffffffffffffffffffffffffffffff16145b806120b557506120b48185611aba565b5b91505092915050565b8273ffffffffffffffffffffffffffffffffffffffff166120de82610e0e565b73ffffffffffffffffffffffffffffffffffffffff1614612134576040517f08c379a000000000000000000000000000000000000000000000000000000000815260040161212b90614e9d565b60405180910390fd5b600073ffffffffffffffffffffffffffffffffffffffff168273ffffffffffffffffffffffffffffffffffffffff1614156121a4576040517f08c379a000000000000000000000000000000000000000000000000000000000815260040161219b90614cdd565b60405180910390fd5b6121af838383612c1e565b6121ba600082611f27565b6001600360008573ffffffffffffffffffffffffffffffffffffffff1673ffffffffffffffffffffffffffffffffffffffff168152602001908152602001600020600082825461220a91906151be565b925050819055506001600360008473ffffffffffffffffffffffffffffffffffffffff1673ffffffffffffffffffffffffffffffffffffffff168152602001908152602001600020600082825461226191906150dd565b92505081905550816002600083815260200190815260200160002060006101000a81548173ffffffffffffffffffffffffffffffffffffffff021916908373ffffffffffffffffffffffffffffffffffffffff160217905550808273ffffffffffffffffffffffffffffffffffffffff168473ffffffffffffffffffffffffffffffffffffffff167fddf252ad1be2c89b69c2b068fc378daa952ba7f163c4a11628f55a4df523b3ef60405160405180910390a4505050565b6123248282611734565b6123b3576123498173ffffffffffffffffffffffffffffffffffffffff166014612c23565b6123578360001c6020612c23565b604051602001612368929190614a11565b6040516020818303038152906040526040517f08c379a00000000000000000000000000000000000000000000000000000000081526004016123aa9190614bcb565b60405180910390fd5b5050565b6123c18282611c46565b6123e68160096000858152602001908152602001600020611d2790919063ffffffff16565b505050565b6123f58282612f1d565b61241a8160096000858152602001908152602001600020612fff90919063ffffffff16565b505050565b6000600760009054906101000a900473ffffffffffffffffffffffffffffffffffffffff16905081600760006101000a81548173ffffffffffffffffffffffffffffffffffffffff021916908373ffffffffffffffffffffffffffffffffffffffff1602179055508173ffffffffffffffffffffffffffffffffffffffff168173ffffffffffffffffffffffffffffffffffffffff167f8be0079c531659141344cd1fd0a4f28419497f9722a3daafe3b4186f6b6457e060405160405180910390a35050565b61257b816040516024016124f99190614a4b565b6040516020818303038152906040527f2c2ecbc2000000000000000000000000000000000000000000000000000000007bffffffffffffffffffffffffffffffffffffffffffffffffffffffff19166020820180517bffffffffffffffffffffffffffffffffffffffffffffffffffffffff838183161783525050505061302f565b50565b60008061258a84613058565b90506125a783612599836130d7565b61310790919063ffffffff16565b91505092915050565b61264882826040516024016125c6929190614bed565b6040516020818303038152906040527f319af333000000000000000000000000000000000000000000000000000000007bffffffffffffffffffffffffffffffffffffffffffffffffffffffff19166020820180517bffffffffffffffffffffffffffffffffffffffffffffffffffffffff838183161783525050505061302f565b5050565b600073ffffffffffffffffffffffffffffffffffffffff168273ffffffffffffffffffffffffffffffffffffffff1614156126bc576040517f08c379a00000000000000000000000000000000000000000000000000000000081526004016126b390614e1d565b60405180910390fd5b6126c581611eb3565b15612705576040517f08c379a00000000000000000000000000000000000000000000000000000000081526004016126fc90614cbd565b60405180910390fd5b61271160008383612c1e565b6001600360008473ffffffffffffffffffffffffffffffffffffffff1673ffffffffffffffffffffffffffffffffffffffff168152602001908152602001600020600082825461276191906150dd565b92505081905550816002600083815260200190815260200160002060006101000a81548173ffffffffffffffffffffffffffffffffffffffff021916908373ffffffffffffffffffffffffffffffffffffffff160217905550808273ffffffffffffffffffffffffffffffffffffffff16600073ffffffffffffffffffffffffffffffffffffffff167fddf252ad1be2c89b69c2b068fc378daa952ba7f163c4a11628f55a4df523b3ef60405160405180910390a45050565b61282382611eb3565b612862576040517f08c379a000000000000000000000000000000000000000000000000000000000815260040161285990614dbd565b60405180910390fd5b80600660008481526020019081526020016000209080519060200190612889929190613d60565b505050565b600061289d836000018361312e565b60001c905092915050565b8173ffffffffffffffffffffffffffffffffffffffff168373ffffffffffffffffffffffffffffffffffffffff161415612917576040517f08c379a000000000000000000000000000000000000000000000000000000000815260040161290e90614cfd565b60405180910390fd5b80600560008573ffffffffffffffffffffffffffffffffffffffff1673ffffffffffffffffffffffffffffffffffffffff16815260200190815260200160002060008473ffffffffffffffffffffffffffffffffffffffff1673ffffffffffffffffffffffffffffffffffffffff16815260200190815260200160002060006101000a81548160ff0219169083151502179055508173ffffffffffffffffffffffffffffffffffffffff168373ffffffffffffffffffffffffffffffffffffffff167f17307eab39ab6107e8899845ad3d59bd9653f200f220920489ca2b5937696c3183604051612a089190614ad4565b60405180910390a3505050565b612a208484846120be565b612a2c8484848461317f565b612a6b576040517f08c379a0000000000000000000000000000000000000000000000000000000008152600401612a6290614c7d565b60405180910390fd5b50505050565b606060405180602001604052806000815250905090565b6060612a9382611eb3565b612ad2576040517f08c379a0000000000000000000000000000000000000000000000000000000008152600401612ac990614ebd565b60405180910390fd5b6000612adc612a71565b90506000815111612afc5760405180602001604052806000815250612b27565b80612b0684613316565b604051602001612b17929190614990565b6040516020818303038152906040525b915050919050565b6000612b3d826000016134c3565b9050919050565b6000612b5083836134d4565b612ba9578260000182908060018154018082558091505060019003906000526020600020016000909190919091505582600001805490508360010160008481526020019081526020016000208190555060019050612bae565b600090505b92915050565b60007f01ffc9a7000000000000000000000000000000000000000000000000000000007bffffffffffffffffffffffffffffffffffffffffffffffffffffffff1916827bffffffffffffffffffffffffffffffffffffffffffffffffffffffff1916149050919050565b505050565b606060006002836002612c369190615164565b612c4091906150dd565b67ffffffffffffffff811115612c7f577f4e487b7100000000000000000000000000000000000000000000000000000000600052604160045260246000fd5b6040519080825280601f01601f191660200182016040528015612cb15781602001600182028036833780820191505090505b5090507f300000000000000000000000000000000000000000000000000000000000000081600081518110612d0f577f4e487b7100000000000000000000000000000000000000000000000000000000600052603260045260246000fd5b60200101907effffffffffffffffffffffffffffffffffffffffffffffffffffffffffffff1916908160001a9053507f780000000000000000000000000000000000000000000000000000000000000081600181518110612d99577f4e487b7100000000000000000000000000000000000000000000000000000000600052603260045260246000fd5b60200101907effffffffffffffffffffffffffffffffffffffffffffffffffffffffffffff1916908160001a90535060006001846002612dd99190615164565b612de391906150dd565b90505b6001811115612ecf577f3031323334353637383961626364656600000000000000000000000000000000600f861660108110612e4b577f4e487b7100000000000000000000000000000000000000000000000000000000600052603260045260246000fd5b1a60f81b828281518110612e88577f4e487b7100000000000000000000000000000000000000000000000000000000600052603260045260246000fd5b60200101907effffffffffffffffffffffffffffffffffffffffffffffffffffffffffffff1916908160001a905350600485901c945080612ec8906152bf565b9050612de6565b5060008414612f13576040517f08c379a0000000000000000000000000000000000000000000000000000000008152600401612f0a90614c3d565b60405180910390fd5b8091505092915050565b612f278282611734565b15612ffb5760006008600084815260200190815260200160002060000160008373ffffffffffffffffffffffffffffffffffffffff1673ffffffffffffffffffffffffffffffffffffffff16815260200190815260200160002060006101000a81548160ff021916908315150217905550612fa0611f1f565b73ffffffffffffffffffffffffffffffffffffffff168173ffffffffffffffffffffffffffffffffffffffff16837ff6391f5c32d9c69d2a47ea670b442974b53935d1edc7fd64eb21e047a839171b60405160405180910390a45b5050565b6000613027836000018373ffffffffffffffffffffffffffffffffffffffff1660001b6134f7565b905092915050565b60008151905060006a636f6e736f6c652e6c6f679050602083016000808483855afa5050505050565b60006130d07f1b51c0b447daca9b3baf5c10eb3177543bbe5d6accebaf0ab8f0728569aae13a83806000019061308e9190614f98565b60405161309c929190614977565b60405180910390206040516020016130b5929190614b0a565b6040516020818303038152906040528051906020012061367d565b9050919050565b6000816040516020016130ea91906149b4565b604051602081830303815290604052805190602001209050919050565b60008060006131168585613697565b915091506131238161371a565b819250505092915050565b600082600001828154811061316c577f4e487b7100000000000000000000000000000000000000000000000000000000600052603260045260246000fd5b9060005260206000200154905092915050565b60006131a08473ffffffffffffffffffffffffffffffffffffffff16613a6b565b15613309578373ffffffffffffffffffffffffffffffffffffffff1663150b7a026131c9611f1f565b8786866040518563ffffffff1660e01b81526004016131eb9493929190614a66565b602060405180830381600087803b15801561320557600080fd5b505af192505050801561323657506040513d601f19601f82011682018060405250810190613233919061423b565b60015b6132b9573d8060008114613266576040519150601f19603f3d011682016040523d82523d6000602084013e61326b565b606091505b506000815114156132b1576040517f08c379a00000000000000000000000000000000000000000000000000000000081526004016132a890614c7d565b60405180910390fd5b805181602001fd5b63150b7a0260e01b7bffffffffffffffffffffffffffffffffffffffffffffffffffffffff1916817bffffffffffffffffffffffffffffffffffffffffffffffffffffffff19161491505061330e565b600190505b949350505050565b6060600082141561335e576040518060400160405280600181526020017f300000000000000000000000000000000000000000000000000000000000000081525090506134be565b600082905060005b600082146133905780806133799061534c565b915050600a826133899190615133565b9150613366565b60008167ffffffffffffffff8111156133d2577f4e487b7100000000000000000000000000000000000000000000000000000000600052604160045260246000fd5b6040519080825280601f01601f1916602001820160405280156134045781602001600182028036833780820191505090505b5090505b600085146134b75760018261341d91906151be565b9150600a8561342c919061539f565b603061343891906150dd565b60f81b818381518110613474577f4e487b7100000000000000000000000000000000000000000000000000000000600052603260045260246000fd5b60200101907effffffffffffffffffffffffffffffffffffffffffffffffffffffffffffff1916908160001a905350600a856134b09190615133565b9450613408565b8093505050505b919050565b600081600001805490509050919050565b600080836001016000848152602001908152602001600020541415905092915050565b6000808360010160008481526020019081526020016000205490506000811461367157600060018261352991906151be565b905060006001866000018054905061354191906151be565b90508181146135fc576000866000018281548110613588577f4e487b7100000000000000000000000000000000000000000000000000000000600052603260045260246000fd5b90600052602060002001549050808760000184815481106135d2577f4e487b7100000000000000000000000000000000000000000000000000000000600052603260045260246000fd5b90600052602060002001819055508387600101600083815260200190815260200160002081905550505b85600001805480613636577f4e487b7100000000000000000000000000000000000000000000000000000000600052603160045260246000fd5b600190038181906000526020600020016000905590558560010160008681526020019081526020016000206000905560019350505050613677565b60009150505b92915050565b600061369061368a613a7e565b83613b98565b9050919050565b6000806041835114156136d95760008060006020860151925060408601519150606086015160001a90506136cd87828585613bcb565b94509450505050613713565b60408351141561370a5760008060208501519150604085015190506136ff868383613cd8565b935093505050613713565b60006002915091505b9250929050565b60006004811115613754577f4e487b7100000000000000000000000000000000000000000000000000000000600052602160045260246000fd5b81600481111561378d577f4e487b7100000000000000000000000000000000000000000000000000000000600052602160045260246000fd5b141561379857613a68565b600160048111156137d2577f4e487b7100000000000000000000000000000000000000000000000000000000600052602160045260246000fd5b81600481111561380b577f4e487b7100000000000000000000000000000000000000000000000000000000600052602160045260246000fd5b141561384c576040517f08c379a000000000000000000000000000000000000000000000000000000000815260040161384390614c1d565b60405180910390fd5b60026004811115613886577f4e487b7100000000000000000000000000000000000000000000000000000000600052602160045260246000fd5b8160048111156138bf577f4e487b7100000000000000000000000000000000000000000000000000000000600052602160045260246000fd5b1415613900576040517f08c379a00000000000000000000000000000000000000000000000000000000081526004016138f790614c5d565b60405180910390fd5b6003600481111561393a577f4e487b7100000000000000000000000000000000000000000000000000000000600052602160045260246000fd5b816004811115613973577f4e487b7100000000000000000000000000000000000000000000000000000000600052602160045260246000fd5b14156139b4576040517f08c379a00000000000000000000000000000000000000000000000000000000081526004016139ab90614d1d565b60405180910390fd5b6004808111156139ed577f4e487b7100000000000000000000000000000000000000000000000000000000600052602160045260246000fd5b816004811115613a26577f4e487b7100000000000000000000000000000000000000000000000000000000600052602160045260246000fd5b1415613a67576040517f08c379a0000000000000000000000000000000000000000000000000000000008152600401613a5e90614ddd565b60405180910390fd5b5b50565b600080823b905060008111915050919050565b60007f000000000000000000000000000000000000000000000000000000000000000073ffffffffffffffffffffffffffffffffffffffff163073ffffffffffffffffffffffffffffffffffffffff16148015613afa57507f000000000000000000000000000000000000000000000000000000000000000046145b15613b27577f00000000000000000000000000000000000000000000000000000000000000009050613b95565b613b927f00000000000000000000000000000000000000000000000000000000000000007f00000000000000000000000000000000000000000000000000000000000000007f0000000000000000000000000000000000000000000000000000000000000000613d26565b90505b90565b60008282604051602001613bad9291906149da565b60405160208183030381529060405280519060200120905092915050565b6000807f7fffffffffffffffffffffffffffffff5d576e7357a4501ddfe92f46681b20a08360001c1115613c06576000600391509150613ccf565b601b8560ff1614158015613c1e5750601c8560ff1614155b15613c30576000600491509150613ccf565b600060018787878760405160008152602001604052604051613c559493929190614b86565b6020604051602081039080840390855afa158015613c77573d6000803e3d6000fd5b505050602060405103519050600073ffffffffffffffffffffffffffffffffffffffff168173ffffffffffffffffffffffffffffffffffffffff161415613cc657600060019250925050613ccf565b80600092509250505b94509492505050565b6000806000807f7fffffffffffffffffffffffffffffffffffffffffffffffffffffffffffffff85169150601b8560ff1c019050613d1887828885613bcb565b935093505050935093915050565b60008383834630604051602001613d41959493929190614b33565b6040516020818303038152906040528051906020012090509392505050565b828054613d6c906152e9565b90600052602060002090601f016020900481019282613d8e5760008555613dd5565b82601f10613da757805160ff1916838001178555613dd5565b82800160010185558215613dd5579182015b82811115613dd4578251825591602001919060010190613db9565b5b509050613de29190613de6565b5090565b5b80821115613dff576000816000905550600101613de7565b5090565b6000613e16613e1184615014565b614fef565b905082815260208101848484011115613e2e57600080fd5b613e3984828561527d565b509392505050565b600081359050613e5081615c66565b92915050565b600081359050613e6581615c7d565b92915050565b600081359050613e7a81615c94565b92915050565b600081359050613e8f81615cab565b92915050565b600081519050613ea481615cab565b92915050565b600082601f830112613ebb57600080fd5b8135613ecb848260208601613e03565b91505092915050565b600060208284031215613ee657600080fd5b81905092915050565b600060a08284031215613f0157600080fd5b81905092915050565b600081359050613f1981615cc2565b92915050565b600060208284031215613f3157600080fd5b6000613f3f84828501613e41565b91505092915050565b60008060408385031215613f5b57600080fd5b6000613f6985828601613e41565b9250506020613f7a85828601613e41565b9150509250929050565b600080600060608486031215613f9957600080fd5b6000613fa786828701613e41565b9350506020613fb886828701613e41565b9250506040613fc986828701613f0a565b9150509250925092565b60008060008060808587031215613fe957600080fd5b6000613ff787828801613e41565b945050602061400887828801613e41565b935050604061401987828801613f0a565b925050606085013567ffffffffffffffff81111561403657600080fd5b61404287828801613eaa565b91505092959194509250565b6000806040838503121561406157600080fd5b600061406f85828601613e41565b925050602061408085828601613e56565b9150509250929050565b600080600080608085870312156140a057600080fd5b60006140ae87828801613e41565b945050602085013567ffffffffffffffff8111156140cb57600080fd5b6140d787828801613eef565b935050604085013567ffffffffffffffff8111156140f457600080fd5b61410087828801613ed4565b925050606085013567ffffffffffffffff81111561411d57600080fd5b61412987828801613eaa565b91505092959194509250565b6000806040838503121561414857600080fd5b600061415685828601613e41565b925050602061416785828601613f0a565b9150509250929050565b60006020828403121561418357600080fd5b600061419184828501613e6b565b91505092915050565b600080604083850312156141ad57600080fd5b60006141bb85828601613e6b565b92505060206141cc85828601613e41565b9150509250929050565b600080604083850312156141e957600080fd5b60006141f785828601613e6b565b925050602061420885828601613f0a565b9150509250929050565b60006020828403121561422457600080fd5b600061423284828501613e80565b91505092915050565b60006020828403121561424d57600080fd5b600061425b84828501613e95565b91505092915050565b60006020828403121561427657600080fd5b600061428484828501613f0a565b91505092915050565b600061429983836148a7565b905092915050565b6142aa816151f2565b82525050565b6142b9816151f2565b82525050565b60006142ca82615055565b6142d48185615083565b9350836020820285016142e685615045565b8060005b858110156143225784840389528151614303858261428d565b945061430e83615076565b925060208a019950506001810190506142ea565b50829750879550505050505092915050565b61433d81615204565b82525050565b61434c81615210565b82525050565b61436361435e82615210565b615395565b82525050565b600061437583856150a5565b935061438283858461527d565b82840190509392505050565b600061439982615060565b6143a38185615094565b93506143b381856020860161528c565b6143bc8161548c565b840191505092915050565b60006143d28261506b565b6143dc81856150b0565b93506143ec81856020860161528c565b6143f58161548c565b840191505092915050565b600061440b8261506b565b61441581856150c1565b935061442581856020860161528c565b61442e8161548c565b840191505092915050565b60006144448261506b565b61444e81856150d2565b935061445e81856020860161528c565b80840191505092915050565b60006144776018836150c1565b91506144828261549d565b602082019050919050565b600061449a6020836150c1565b91506144a5826154c6565b602082019050919050565b60006144bd601f836150c1565b91506144c8826154ef565b602082019050919050565b60006144e0601c836150d2565b91506144eb82615518565b601c82019050919050565b60006145036032836150c1565b915061450e82615541565b604082019050919050565b60006145266026836150c1565b915061453182615590565b604082019050919050565b6000614549601c836150c1565b9150614554826155df565b602082019050919050565b600061456c6002836150d2565b915061457782615608565b600282019050919050565b600061458f6024836150c1565b915061459a82615631565b604082019050919050565b60006145b26019836150c1565b91506145bd82615680565b602082019050919050565b60006145d56022836150c1565b91506145e0826156a9565b604082019050919050565b60006145f8602c836150c1565b9150614603826156f8565b604082019050919050565b600061461b6038836150c1565b915061462682615747565b604082019050919050565b600061463e602a836150c1565b915061464982615796565b604082019050919050565b60006146616029836150c1565b915061466c826157e5565b604082019050919050565b6000614684602e836150c1565b915061468f82615834565b604082019050919050565b60006146a76022836150c1565b91506146b282615883565b604082019050919050565b60006146ca601c836150c1565b91506146d5826158d2565b602082019050919050565b60006146ed6020836150c1565b91506146f8826158fb565b602082019050919050565b60006147106031836150c1565b915061471b82615924565b604082019050919050565b6000614733602c836150c1565b915061473e82615973565b604082019050919050565b60006147566020836150c1565b9150614761826159c2565b602082019050919050565b60006147796029836150c1565b9150614784826159eb565b604082019050919050565b600061479c602f836150c1565b91506147a782615a3a565b604082019050919050565b60006147bf6024836150c1565b91506147ca82615a89565b604082019050919050565b60006147e26021836150c1565b91506147ed82615ad8565b604082019050919050565b60006148056021836150c1565b915061481082615b27565b604082019050919050565b60006148286031836150c1565b915061483382615b76565b604082019050919050565b600061484b6017836150d2565b915061485682615bc5565b601782019050919050565b600061486e6011836150d2565b915061487982615bee565b601182019050919050565b6000614891602f836150c1565b915061489c82615c17565b604082019050919050565b600060e0830160008301516148bf600086018261494a565b5060208301516148d260208601826142a1565b5060408301516148e560408601826142a1565b5060608301516148f8606086018261494a565b506080830151848203608086015261491082826143c7565b91505060a083015184820360a086015261492a82826143c7565b91505060c083015161493f60c086018261494a565b508091505092915050565b61495381615266565b82525050565b61496281615266565b82525050565b61497181615270565b82525050565b6000614984828486614369565b91508190509392505050565b600061499c8285614439565b91506149a88284614439565b91508190509392505050565b60006149bf826144d3565b91506149cb8284614352565b60208201915081905092915050565b60006149e58261455f565b91506149f18285614352565b602082019150614a018284614352565b6020820191508190509392505050565b6000614a1c8261483e565b9150614a288285614439565b9150614a3382614861565b9150614a3f8284614439565b91508190509392505050565b6000602082019050614a6060008301846142b0565b92915050565b6000608082019050614a7b60008301876142b0565b614a8860208301866142b0565b614a956040830185614959565b8181036060830152614aa7818461438e565b905095945050505050565b60006020820190508181036000830152614acc81846142bf565b905092915050565b6000602082019050614ae96000830184614334565b92915050565b6000602082019050614b046000830184614343565b92915050565b6000604082019050614b1f6000830185614343565b614b2c6020830184614343565b9392505050565b600060a082019050614b486000830188614343565b614b556020830187614343565b614b626040830186614343565b614b6f6060830185614959565b614b7c60808301846142b0565b9695505050505050565b6000608082019050614b9b6000830187614343565b614ba86020830186614968565b614bb56040830185614343565b614bc26060830184614343565b95945050505050565b60006020820190508181036000830152614be58184614400565b905092915050565b60006040820190508181036000830152614c078185614400565b9050614c1660208301846142b0565b9392505050565b60006020820190508181036000830152614c368161446a565b9050919050565b60006020820190508181036000830152614c568161448d565b9050919050565b60006020820190508181036000830152614c76816144b0565b9050919050565b60006020820190508181036000830152614c96816144f6565b9050919050565b60006020820190508181036000830152614cb681614519565b9050919050565b60006020820190508181036000830152614cd68161453c565b9050919050565b60006020820190508181036000830152614cf681614582565b9050919050565b60006020820190508181036000830152614d16816145a5565b9050919050565b60006020820190508181036000830152614d36816145c8565b9050919050565b60006020820190508181036000830152614d56816145eb565b9050919050565b60006020820190508181036000830152614d768161460e565b9050919050565b60006020820190508181036000830152614d9681614631565b9050919050565b60006020820190508181036000830152614db681614654565b9050919050565b60006020820190508181036000830152614dd681614677565b9050919050565b60006020820190508181036000830152614df68161469a565b9050919050565b60006020820190508181036000830152614e16816146bd565b9050919050565b60006020820190508181036000830152614e36816146e0565b9050919050565b60006020820190508181036000830152614e5681614703565b9050919050565b60006020820190508181036000830152614e7681614726565b9050919050565b60006020820190508181036000830152614e9681614749565b9050919050565b60006020820190508181036000830152614eb68161476c565b9050919050565b60006020820190508181036000830152614ed68161478f565b9050919050565b60006020820190508181036000830152614ef6816147b2565b9050919050565b60006020820190508181036000830152614f16816147d5565b9050919050565b60006020820190508181036000830152614f36816147f8565b9050919050565b60006020820190508181036000830152614f568161481b565b9050919050565b60006020820190508181036000830152614f7681614884565b9050919050565b6000602082019050614f926000830184614959565b92915050565b60008083356001602003843603038112614fb157600080fd5b80840192508235915067ffffffffffffffff821115614fcf57600080fd5b602083019250600182023603831315614fe757600080fd5b509250929050565b6000614ff961500a565b9050615005828261531b565b919050565b6000604051905090565b600067ffffffffffffffff82111561502f5761502e61545d565b5b6150388261548c565b9050602081019050919050565b6000819050602082019050919050565b600081519050919050565b600081519050919050565b600081519050919050565b6000602082019050919050565b600082825260208201905092915050565b600082825260208201905092915050565b600081905092915050565b600082825260208201905092915050565b600082825260208201905092915050565b600081905092915050565b60006150e882615266565b91506150f383615266565b9250827fffffffffffffffffffffffffffffffffffffffffffffffffffffffffffffffff03821115615128576151276153d0565b5b828201905092915050565b600061513e82615266565b915061514983615266565b925082615159576151586153ff565b5b828204905092915050565b600061516f82615266565b915061517a83615266565b9250817fffffffffffffffffffffffffffffffffffffffffffffffffffffffffffffffff04831182151516156151b3576151b26153d0565b5b828202905092915050565b60006151c982615266565b91506151d483615266565b9250828210156151e7576151e66153d0565b5b828203905092915050565b60006151fd82615246565b9050919050565b60008115159050919050565b6000819050919050565b60007fffffffff0000000000000000000000000000000000000000000000000000000082169050919050565b600073ffffffffffffffffffffffffffffffffffffffff82169050919050565b6000819050919050565b600060ff82169050919050565b82818337600083830152505050565b60005b838110156152aa57808201518184015260208101905061528f565b838111156152b9576000848401525b50505050565b60006152ca82615266565b915060008214156152de576152dd6153d0565b5b600182039050919050565b6000600282049050600182168061530157607f821691505b602082108114156153155761531461542e565b5b50919050565b6153248261548c565b810181811067ffffffffffffffff821117156153435761534261545d565b5b80604052505050565b600061535782615266565b91507fffffffffffffffffffffffffffffffffffffffffffffffffffffffffffffffff82141561538a576153896153d0565b5b600182019050919050565b6000819050919050565b60006153aa82615266565b91506153b583615266565b9250826153c5576153c46153ff565b5b828206905092915050565b7f4e487b7100000000000000000000000000000000000000000000000000000000600052601160045260246000fd5b7f4e487b7100000000000000000000000000000000000000000000000000000000600052601260045260246000fd5b7f4e487b7100000000000000000000000000000000000000000000000000000000600052602260045260246000fd5b7f4e487b7100000000000000000000000000000000000000000000000000000000600052604160045260246000fd5b6000601f19601f8301169050919050565b7f45434453413a20696e76616c6964207369676e61747572650000000000000000600082015250565b7f537472696e67733a20686578206c656e67746820696e73756666696369656e74600082015250565b7f45434453413a20696e76616c6964207369676e6174757265206c656e67746800600082015250565b7f19457468657265756d205369676e6564204d6573736167653a0a333200000000600082015250565b7f4552433732313a207472616e7366657220746f206e6f6e20455243373231526560008201527f63656976657220696d706c656d656e7465720000000000000000000000000000602082015250565b7f4f776e61626c653a206e6577206f776e657220697320746865207a65726f206160008201527f6464726573730000000000000000000000000000000000000000000000000000602082015250565b7f4552433732313a20746f6b656e20616c7265616479206d696e74656400000000600082015250565b7f1901000000000000000000000000000000000000000000000000000000000000600082015250565b7f4552433732313a207472616e7366657220746f20746865207a65726f2061646460008201527f7265737300000000000000000000000000000000000000000000000000000000602082015250565b7f4552433732313a20617070726f766520746f2063616c6c657200000000000000600082015250565b7f45434453413a20696e76616c6964207369676e6174757265202773272076616c60008201527f7565000000000000000000000000000000000000000000000000000000000000602082015250565b7f4552433732313a206f70657261746f7220717565727920666f72206e6f6e657860008201527f697374656e7420746f6b656e0000000000000000000000000000000000000000602082015250565b7f4552433732313a20617070726f76652063616c6c6572206973206e6f74206f7760008201527f6e6572206e6f7220617070726f76656420666f7220616c6c0000000000000000602082015250565b7f4552433732313a2062616c616e636520717565727920666f7220746865207a6560008201527f726f206164647265737300000000000000000000000000000000000000000000602082015250565b7f4552433732313a206f776e657220717565727920666f72206e6f6e657869737460008201527f656e7420746f6b656e0000000000000000000000000000000000000000000000602082015250565b7f45524337323155524953746f726167653a2055524920736574206f66206e6f6e60008201527f6578697374656e7420746f6b656e000000000000000000000000000000000000602082015250565b7f45434453413a20696e76616c6964207369676e6174757265202776272076616c60008201527f7565000000000000000000000000000000000000000000000000000000000000602082015250565b7f496e73756666696369656e742066756e647320746f2072656465656d00000000600082015250565b7f4552433732313a206d696e7420746f20746865207a65726f2061646472657373600082015250565b7f45524337323155524953746f726167653a2055524920717565727920666f722060008201527f6e6f6e6578697374656e7420746f6b656e000000000000000000000000000000602082015250565b7f4552433732313a20617070726f76656420717565727920666f72206e6f6e657860008201527f697374656e7420746f6b656e0000000000000000000000000000000000000000602082015250565b7f4f776e61626c653a2063616c6c6572206973206e6f7420746865206f776e6572600082015250565b7f4552433732313a207472616e73666572206f6620746f6b656e2074686174206960008201527f73206e6f74206f776e0000000000000000000000000000000000000000000000602082015250565b7f4552433732314d657461646174613a2055524920717565727920666f72206e6f60008201527f6e6578697374656e7420746f6b656e0000000000000000000000000000000000602082015250565b7f4f6e6c7920617574686f72697a6564206d696e746572732063616e207769746860008201527f6472617700000000000000000000000000000000000000000000000000000000602082015250565b7f4552433732313a20617070726f76616c20746f2063757272656e74206f776e6560008201527f7200000000000000000000000000000000000000000000000000000000000000602082015250565b7f5369676e617475726520696e76616c6964206f7220756e617574686f72697a6560008201527f6400000000000000000000000000000000000000000000000000000000000000602082015250565b7f4552433732313a207472616e736665722063616c6c6572206973206e6f74206f60008201527f776e6572206e6f7220617070726f766564000000000000000000000000000000602082015250565b7f416363657373436f6e74726f6c3a206163636f756e7420000000000000000000600082015250565b7f206973206d697373696e6720726f6c6520000000000000000000000000000000600082015250565b7f416363657373436f6e74726f6c3a2063616e206f6e6c792072656e6f756e636560008201527f20726f6c657320666f722073656c660000000000000000000000000000000000602082015250565b615c6f816151f2565b8114615c7a57600080fd5b50565b615c8681615204565b8114615c9157600080fd5b50565b615c9d81615210565b8114615ca857600080fd5b50565b615cb48161521a565b8114615cbf57600080fd5b50565b615ccb81615266565b8114615cd657600080fd5b5056fea2646970667358221220308cb074d1c84d889128c3a4d72ca22a06a7cb185ac7af53f28bee523763618664736f6c63430008040033",
  "linkReferences": {},
  "deployedLinkReferences": {}
}